{
  "contractName": "Bank",
  "abi": [
    {
      "inputs": [
        {
          "internalType": "uint256",
          "name": "",
          "type": "uint256"
        }
      ],
      "name": "shgs",
      "outputs": [
        {
          "internalType": "uint256",
          "name": "id",
          "type": "uint256"
        },
        {
          "internalType": "string",
          "name": "name",
          "type": "string"
        },
        {
          "components": [
            {
              "internalType": "string",
              "name": "state",
              "type": "string"
            },
            {
              "internalType": "string",
              "name": "district",
              "type": "string"
            },
            {
              "internalType": "string",
              "name": "blockName",
              "type": "string"
            },
            {
              "internalType": "string",
              "name": "panchyarName",
              "type": "string"
            },
            {
              "internalType": "string",
              "name": "villageName",
              "type": "string"
            }
          ],
          "internalType": "struct structs.Location",
          "name": "location",
          "type": "tuple"
        },
        {
          "internalType": "string",
          "name": "dateOfFormation",
          "type": "string"
        },
        {
          "internalType": "uint256",
          "name": "currentBalance",
          "type": "uint256"
        },
        {
          "internalType": "uint256",
          "name": "owedBalance",
          "type": "uint256"
        },
        {
          "internalType": "uint256",
          "name": "baseIntrest",
          "type": "uint256"
        }
      ],
      "stateMutability": "view",
      "type": "function"
    },
    {
      "inputs": [
        {
          "internalType": "string",
          "name": "_name",
          "type": "string"
        },
        {
          "internalType": "address",
          "name": "_walletAddress",
          "type": "address"
        },
        {
          "internalType": "string",
          "name": "_code",
          "type": "string"
        },
        {
          "internalType": "uint256",
          "name": "_intrestRate",
          "type": "uint256"
        }
      ],
      "name": "addBank",
      "outputs": [],
      "stateMutability": "nonpayable",
      "type": "function"
    },
    {
      "inputs": [
        {
          "internalType": "uint256",
          "name": "_shgrequestid",
          "type": "uint256"
        },
        {
          "internalType": "uint256",
          "name": "_bankid",
          "type": "uint256"
        }
      ],
      "name": "approveLoan",
      "outputs": [],
      "stateMutability": "nonpayable",
      "type": "function"
    },
    {
      "inputs": [
        {
          "internalType": "uint256",
          "name": "_shgrequestid",
          "type": "uint256"
        },
        {
          "internalType": "uint256",
          "name": "_bankid",
          "type": "uint256"
        },
        {
          "internalType": "uint256",
          "name": "_amount",
          "type": "uint256"
        }
      ],
      "name": "grantLoan",
      "outputs": [],
      "stateMutability": "nonpayable",
      "type": "function"
    },
    {
      "inputs": [
        {
          "internalType": "uint256",
          "name": "_bankid",
          "type": "uint256"
        },
        {
          "internalType": "uint256",
          "name": "_requestid",
          "type": "uint256"
        },
        {
          "internalType": "uint256",
          "name": "_amount",
          "type": "uint256"
        }
      ],
      "name": "shgLoan",
      "outputs": [],
      "stateMutability": "payable",
      "type": "function"
    },
    {
      "inputs": [
        {
          "internalType": "uint256",
          "name": "bankid",
          "type": "uint256"
        }
      ],
      "name": "getbanks",
      "outputs": [
        {
          "components": [
            {
              "internalType": "uint256",
              "name": "id",
              "type": "uint256"
            },
            {
              "internalType": "string",
              "name": "name",
              "type": "string"
            },
            {
              "internalType": "address",
              "name": "walletAddress",
              "type": "address"
            },
            {
              "internalType": "string",
              "name": "code",
              "type": "string"
            },
            {
              "internalType": "uint256",
              "name": "intrestRate",
              "type": "uint256"
            },
            {
              "internalType": "uint256[]",
              "name": "requests",
              "type": "uint256[]"
            }
          ],
          "internalType": "struct structs.Bank",
          "name": "",
          "type": "tuple"
        }
      ],
      "stateMutability": "view",
      "type": "function"
    }
  ],
  "bytecode": "0x608060405234801561001057600080fd5b5061163d806100206000396000f3fe6080604052600436106100555760003560e01c806310673f521461005a57806314795ce314610097578063249c4bff146100c057806326271cf2146100dc5780637a6464921461011f578063db223b4c14610148575b600080fd5b34801561006657600080fd5b50610081600480360381019061007c9190610f67565b610171565b60405161008e9190611259565b60405180910390f35b3480156100a357600080fd5b506100be60048036038101906100b99190610ed4565b610384565b005b6100da60048036038101906100d59190610fcc565b61051e565b005b3480156100e857600080fd5b5061010360048036038101906100fe9190610f67565b610727565b604051610116979695949392919061127b565b60405180910390f35b34801561012b57600080fd5b5061014660048036038101906101419190610f90565b610b5d565b005b34801561015457600080fd5b5061016f600480360381019061016a9190610fcc565b610bec565b005b610179610d06565b600260008381526020019081526020016000206040518060c0016040529081600082015481526020016001820180546101b19061148f565b80601f01602080910402602001604051908101604052809291908181526020018280546101dd9061148f565b801561022a5780601f106101ff5761010080835404028352916020019161022a565b820191906000526020600020905b81548152906001019060200180831161020d57829003601f168201915b505050505081526020016002820160009054906101000a900473ffffffffffffffffffffffffffffffffffffffff1673ffffffffffffffffffffffffffffffffffffffff1673ffffffffffffffffffffffffffffffffffffffff1681526020016003820180546102999061148f565b80601f01602080910402602001604051908101604052809291908181526020018280546102c59061148f565b80156103125780601f106102e757610100808354040283529160200191610312565b820191906000526020600020905b8154815290600101906020018083116102f557829003601f168201915b50505050508152602001600482015481526020016005820180548060200260200160405190810160405280929190818152602001828054801561037457602002820191906000526020600020905b815481526020019060010190808311610360575b5050505050815250509050919050565b6000600b60008154610395906114f2565b91905081905590506040518060c001604052808281526020018681526020018573ffffffffffffffffffffffffffffffffffffffff168152602001848152602001838152602001600067ffffffffffffffff81111561041d577f4e487b7100000000000000000000000000000000000000000000000000000000600052604160045260246000fd5b60405190808252806020026020018201604052801561044b5781602001602082028036833780820191505090505b5081525060026000838152602001908152602001600020600082015181600001556020820151816001019080519060200190610488929190610d52565b5060408201518160020160006101000a81548173ffffffffffffffffffffffffffffffffffffffff021916908373ffffffffffffffffffffffffffffffffffffffff16021790555060608201518160030190805190602001906104ec929190610d52565b506080820151816004015560a0820151816005019080519060200190610513929190610dd8565b509050505050505050565b8260006002600083815260200190815260200160002060000154141561054357600080fd5b6000604051806101000160405280600c60008154610560906114f2565b9190508190558152602001600660008781526020019081526020016000206001015481526020018481526020018681526020016002600088815260200190815260200160002060040154815260200160066000878152602001908152602001600020600301548152602001428152602001600081525090506001600060066000878152602001908152602001600020600101548152602001908152602001600020600c01600c5490806001815401808255809150506001900390600052602060002001600090919091909150553073ffffffffffffffffffffffffffffffffffffffff166108fc849081150290604051600060405180830381858888f19350505050158015610673573d6000803e3d6000fd5b5082600160006006600088815260200190815260200160002060010154815260200190815260200160002060090160008282546106b091906113bb565b925050819055508060046000600c548152602001908152602001600020600082015181600001556020820151816001015560408201518160020155606082015181600301556080820151816004015560a0820151816005015560c0820151816006015560e082015181600701559050505050505050565b60016020528060005260406000206000915090508060000154908060020180546107509061148f565b80601f016020809104026020016040519081016040528092919081815260200182805461077c9061148f565b80156107c95780601f1061079e576101008083540402835291602001916107c9565b820191906000526020600020905b8154815290600101906020018083116107ac57829003601f168201915b505050505090806003016040518060a00160405290816000820180546107ee9061148f565b80601f016020809104026020016040519081016040528092919081815260200182805461081a9061148f565b80156108675780601f1061083c57610100808354040283529160200191610867565b820191906000526020600020905b81548152906001019060200180831161084a57829003601f168201915b505050505081526020016001820180546108809061148f565b80601f01602080910402602001604051908101604052809291908181526020018280546108ac9061148f565b80156108f95780601f106108ce576101008083540402835291602001916108f9565b820191906000526020600020905b8154815290600101906020018083116108dc57829003601f168201915b505050505081526020016002820180546109129061148f565b80601f016020809104026020016040519081016040528092919081815260200182805461093e9061148f565b801561098b5780601f106109605761010080835404028352916020019161098b565b820191906000526020600020905b81548152906001019060200180831161096e57829003601f168201915b505050505081526020016003820180546109a49061148f565b80601f01602080910402602001604051908101604052809291908181526020018280546109d09061148f565b8015610a1d5780601f106109f257610100808354040283529160200191610a1d565b820191906000526020600020905b815481529060010190602001808311610a0057829003601f168201915b50505050508152602001600482018054610a369061148f565b80601f0160208091040260200160405190810160405280929190818152602001828054610a629061148f565b8015610aaf5780601f10610a8457610100808354040283529160200191610aaf565b820191906000526020600020905b815481529060010190602001808311610a9257829003601f168201915b50505050508152505090806008018054610ac89061148f565b80601f0160208091040260200160405190810160405280929190818152602001828054610af49061148f565b8015610b415780601f10610b1657610100808354040283529160200191610b41565b820191906000526020600020905b815481529060010190602001808311610b2457829003601f168201915b50505050509080600901549080600a01549080600d0154905087565b80600060026000838152602001908152602001600020600001541415610b8257600080fd5b60006006600085815260200190815260200160002060040160006101000a81548160ff02191690836003811115610be2577f4e487b7100000000000000000000000000000000000000000000000000000000600052602160045260246000fd5b0217905550505050565b81600060026000838152602001908152602001600020600001541415610c1157600080fd5b3073ffffffffffffffffffffffffffffffffffffffff166108fc839081150290604051600060405180830381858888f19350505050158015610c57573d6000803e3d6000fd5b5060016006600086815260200190815260200160002060040160006101000a81548160ff02191690836003811115610cb8577f4e487b7100000000000000000000000000000000000000000000000000000000600052602160045260246000fd5b02179055508160016000600660008881526020019081526020016000206001015481526020019081526020016000206009016000828254610cf991906113bb565b9250508190555050505050565b6040518060c001604052806000815260200160608152602001600073ffffffffffffffffffffffffffffffffffffffff1681526020016060815260200160008152602001606081525090565b828054610d5e9061148f565b90600052602060002090601f016020900481019282610d805760008555610dc7565b82601f10610d9957805160ff1916838001178555610dc7565b82800160010185558215610dc7579182015b82811115610dc6578251825591602001919060010190610dab565b5b509050610dd49190610e25565b5090565b828054828255906000526020600020908101928215610e14579160200282015b82811115610e13578251825591602001919060010190610df8565b5b509050610e219190610e25565b5090565b5b80821115610e3e576000816000905550600101610e26565b5090565b6000610e55610e5084611324565b6112ff565b905082815260208101848484011115610e6d57600080fd5b610e7884828561144d565b509392505050565b600081359050610e8f816115d9565b92915050565b600082601f830112610ea657600080fd5b8135610eb6848260208601610e42565b91505092915050565b600081359050610ece816115f0565b92915050565b60008060008060808587031215610eea57600080fd5b600085013567ffffffffffffffff811115610f0457600080fd5b610f1087828801610e95565b9450506020610f2187828801610e80565b935050604085013567ffffffffffffffff811115610f3e57600080fd5b610f4a87828801610e95565b9250506060610f5b87828801610ebf565b91505092959194509250565b600060208284031215610f7957600080fd5b6000610f8784828501610ebf565b91505092915050565b60008060408385031215610fa357600080fd5b6000610fb185828601610ebf565b9250506020610fc285828601610ebf565b9150509250929050565b600080600060608486031215610fe157600080fd5b6000610fef86828701610ebf565b935050602061100086828701610ebf565b925050604061101186828701610ebf565b9150509250925092565b6000611027838361123b565b60208301905092915050565b61103c81611411565b82525050565b600061104d82611365565b6110578185611388565b935061106283611355565b8060005b8381101561109357815161107a888261101b565b97506110858361137b565b925050600181019050611066565b5085935050505092915050565b60006110ab82611370565b6110b58185611399565b93506110c581856020860161145c565b6110ce816115c8565b840191505092915050565b60006110e482611370565b6110ee81856113aa565b93506110fe81856020860161145c565b611107816115c8565b840191505092915050565b600060c08301600083015161112a600086018261123b565b506020830151848203602086015261114282826110a0565b91505060408301516111576040860182611033565b506060830151848203606086015261116f82826110a0565b9150506080830151611184608086018261123b565b5060a083015184820360a086015261119c8282611042565b9150508091505092915050565b600060a08301600083015184820360008601526111c682826110a0565b915050602083015184820360208601526111e082826110a0565b915050604083015184820360408601526111fa82826110a0565b9150506060830151848203606086015261121482826110a0565b9150506080830151848203608086015261122e82826110a0565b9150508091505092915050565b61124481611443565b82525050565b61125381611443565b82525050565b600060208201905081810360008301526112738184611112565b905092915050565b600060e082019050611290600083018a61124a565b81810360208301526112a281896110d9565b905081810360408301526112b681886111a9565b905081810360608301526112ca81876110d9565b90506112d9608083018661124a565b6112e660a083018561124a565b6112f360c083018461124a565b98975050505050505050565b600061130961131a565b905061131582826114c1565b919050565b6000604051905090565b600067ffffffffffffffff82111561133f5761133e611599565b5b611348826115c8565b9050602081019050919050565b6000819050602082019050919050565b600081519050919050565b600081519050919050565b6000602082019050919050565b600082825260208201905092915050565b600082825260208201905092915050565b600082825260208201905092915050565b60006113c682611443565b91506113d183611443565b9250827fffffffffffffffffffffffffffffffffffffffffffffffffffffffffffffffff038211156114065761140561153b565b5b828201905092915050565b600061141c82611423565b9050919050565b600073ffffffffffffffffffffffffffffffffffffffff82169050919050565b6000819050919050565b82818337600083830152505050565b60005b8381101561147a57808201518184015260208101905061145f565b83811115611489576000848401525b50505050565b600060028204905060018216806114a757607f821691505b602082108114156114bb576114ba61156a565b5b50919050565b6114ca826115c8565b810181811067ffffffffffffffff821117156114e9576114e8611599565b5b80604052505050565b60006114fd82611443565b91507fffffffffffffffffffffffffffffffffffffffffffffffffffffffffffffffff8214156115305761152f61153b565b5b600182019050919050565b7f4e487b7100000000000000000000000000000000000000000000000000000000600052601160045260246000fd5b7f4e487b7100000000000000000000000000000000000000000000000000000000600052602260045260246000fd5b7f4e487b7100000000000000000000000000000000000000000000000000000000600052604160045260246000fd5b6000601f19601f8301169050919050565b6115e281611411565b81146115ed57600080fd5b50565b6115f981611443565b811461160457600080fd5b5056fea26469706673582212202e9e89e4f390c69056694f01ee523d7fc2b016bdcc1f1f69dd3652c66fda4cdb64736f6c63430008040033",
  "immutableReferences": {},
  "source": "// SPDX-License-Identifier: MIT\npragma solidity ^0.8.1;\nimport \"./structs.sol\";\nimport \"./modifiers.sol\";\n\ncontract Bank is structs, modifiers {\n    function addBank(\n        string memory _name,\n        address _walletAddress,\n        string memory _code,\n        uint256 _intrestRate\n    ) public {\n        uint256 id = ++numBanks;\n        banks[id] = Bank(\n            id,\n            _name,\n            _walletAddress,\n            _code,\n            _intrestRate,\n            new uint256[](0)\n        );\n    }\n\n    function approveLoan(uint256 _shgrequestid, uint256 _bankid)\n        public\n        onlyBank(_bankid)\n    {\n        shgRequests[_shgrequestid].status = RequestStatus.APPROVED;\n    }\n\n    function grantLoan(\n        uint256 _shgrequestid,\n        uint256 _bankid,\n        uint256 _amount\n    ) public onlyBank(_bankid) {\n        payable(address(this)).transfer(_amount);\n        shgRequests[_shgrequestid].status = RequestStatus.COMPLETED;\n        shgs[shgRequests[_shgrequestid].shgid].currentBalance += _amount;\n    }\n\n    function shgLoan(\n        uint256 _bankid,\n        uint256 _requestid,\n        uint256 _amount\n    ) public payable onlyBank(_bankid) {\n        Loan memory newLoan = Loan({\n            loanId: ++numLoans,\n            lenderId: shgRequests[_requestid].shgid,\n            amount: _amount,\n            lendeeId: _bankid,\n            intrest: banks[_bankid].intrestRate,\n            loanTime: shgRequests[_requestid].loanTime,\n            date: block.timestamp,\n            lastEMI: 0\n        });\n\n        shgs[shgRequests[_requestid].shgid].loansTaken.push(numLoans);\n\n        payable(address(this)).transfer(_amount);\n        shgs[shgRequests[_requestid].shgid].currentBalance += _amount;\n        loans[numLoans] = newLoan;\n    }\n\n    // fetch functions\n\n    function getbanks(uint256 bankid) public view returns (Bank memory) {\n        return banks[bankid];\n    }\n}\n",
  "sourcePath": "/home/sdas/code/yogdaan-contracts/contracts/lib/Bank.sol",
  "compiler": {
    "name": "solc",
    "version": "0.8.4+commit.c7e474f2.Emscripten.clang"
  },
  "schemaVersion": "3.4.9",
  "updatedAt": "2022-08-22T05:55:02.380Z",
  "devdoc": {
    "kind": "dev",
    "methods": {},
    "version": 1
  },
  "userdoc": {
    "kind": "user",
    "methods": {},
    "version": 1
  }
}