{
  "contractName": "Bank",
  "abi": [
    {
      "inputs": [
        {
          "internalType": "address",
          "name": "",
          "type": "address"
        }
      ],
      "name": "addressToBankid",
      "outputs": [
        {
          "internalType": "uint256",
          "name": "",
          "type": "uint256"
        }
      ],
      "stateMutability": "view",
      "type": "function"
    },
    {
      "inputs": [
        {
          "internalType": "address",
          "name": "",
          "type": "address"
        }
      ],
      "name": "addressToSHGid",
      "outputs": [
        {
          "internalType": "uint256",
          "name": "",
          "type": "uint256"
        }
      ],
      "stateMutability": "view",
      "type": "function"
    },
    {
      "inputs": [
        {
          "internalType": "address",
          "name": "",
          "type": "address"
        }
      ],
      "name": "addressToUser",
      "outputs": [
        {
          "internalType": "uint256",
          "name": "",
          "type": "uint256"
        }
      ],
      "stateMutability": "view",
      "type": "function"
    },
    {
      "inputs": [
        {
          "internalType": "uint256",
          "name": "",
          "type": "uint256"
        }
      ],
      "name": "banks",
      "outputs": [
        {
          "internalType": "uint256",
          "name": "id",
          "type": "uint256"
        },
        {
          "internalType": "string",
          "name": "name",
          "type": "string"
        },
        {
          "internalType": "address",
          "name": "walletAddress",
          "type": "address"
        },
        {
          "internalType": "string",
          "name": "code",
          "type": "string"
        },
        {
          "internalType": "uint256",
          "name": "intrestRate",
          "type": "uint256"
        }
      ],
      "stateMutability": "view",
      "type": "function"
    },
    {
      "inputs": [
        {
          "internalType": "uint256",
          "name": "",
          "type": "uint256"
        }
      ],
      "name": "loans",
      "outputs": [
        {
          "internalType": "uint256",
          "name": "loanId",
          "type": "uint256"
        },
        {
          "internalType": "uint256",
          "name": "lenderId",
          "type": "uint256"
        },
        {
          "internalType": "uint256",
          "name": "amount",
          "type": "uint256"
        },
        {
          "internalType": "uint256",
          "name": "lendeeId",
          "type": "uint256"
        },
        {
          "internalType": "uint256",
          "name": "intrest",
          "type": "uint256"
        },
        {
          "internalType": "uint256",
          "name": "loanTime",
          "type": "uint256"
        },
        {
          "internalType": "uint256",
          "name": "date",
          "type": "uint256"
        },
        {
          "internalType": "uint256",
          "name": "lastEMI",
          "type": "uint256"
        }
      ],
      "stateMutability": "view",
      "type": "function"
    },
    {
      "inputs": [
        {
          "internalType": "uint256",
          "name": "",
          "type": "uint256"
        }
      ],
      "name": "shgRequests",
      "outputs": [
        {
          "internalType": "uint256",
          "name": "requestid",
          "type": "uint256"
        },
        {
          "internalType": "uint256",
          "name": "shgid",
          "type": "uint256"
        },
        {
          "internalType": "uint256",
          "name": "amount",
          "type": "uint256"
        },
        {
          "internalType": "uint256",
          "name": "loanTime",
          "type": "uint256"
        },
        {
          "internalType": "enum structs.RequestStatus",
          "name": "status",
          "type": "uint8"
        }
      ],
      "stateMutability": "view",
      "type": "function"
    },
    {
      "inputs": [
        {
          "internalType": "uint256",
          "name": "",
          "type": "uint256"
        }
      ],
      "name": "shgs",
      "outputs": [
        {
          "internalType": "uint256",
          "name": "id",
          "type": "uint256"
        },
        {
          "internalType": "string",
          "name": "name",
          "type": "string"
        },
        {
          "components": [
            {
              "internalType": "string",
              "name": "state",
              "type": "string"
            },
            {
              "internalType": "string",
              "name": "district",
              "type": "string"
            },
            {
              "internalType": "string",
              "name": "blockName",
              "type": "string"
            },
            {
              "internalType": "string",
              "name": "panchyatName",
              "type": "string"
            },
            {
              "internalType": "string",
              "name": "villageName",
              "type": "string"
            }
          ],
          "internalType": "struct structs.Location",
          "name": "location",
          "type": "tuple"
        },
        {
          "internalType": "string",
          "name": "dateOfFormation",
          "type": "string"
        },
        {
          "internalType": "uint256",
          "name": "currentBalance",
          "type": "uint256"
        },
        {
          "internalType": "uint256",
          "name": "owedBalance",
          "type": "uint256"
        },
        {
          "internalType": "uint256",
          "name": "baseIntrest",
          "type": "uint256"
        }
      ],
      "stateMutability": "view",
      "type": "function"
    },
    {
      "inputs": [
        {
          "internalType": "uint256",
          "name": "",
          "type": "uint256"
        }
      ],
      "name": "userRequests",
      "outputs": [
        {
          "internalType": "uint256",
          "name": "requestId",
          "type": "uint256"
        },
        {
          "internalType": "uint256",
          "name": "userId",
          "type": "uint256"
        },
        {
          "internalType": "uint256",
          "name": "amount",
          "type": "uint256"
        },
        {
          "internalType": "string",
          "name": "description",
          "type": "string"
        },
        {
          "internalType": "uint256",
          "name": "SHGId",
          "type": "uint256"
        },
        {
          "internalType": "enum structs.RequestStatus",
          "name": "status",
          "type": "uint8"
        },
        {
          "internalType": "uint256",
          "name": "loanTime",
          "type": "uint256"
        }
      ],
      "stateMutability": "view",
      "type": "function"
    },
    {
      "inputs": [
        {
          "internalType": "uint256",
          "name": "",
          "type": "uint256"
        }
      ],
      "name": "users",
      "outputs": [
        {
          "internalType": "uint256",
          "name": "id",
          "type": "uint256"
        },
        {
          "internalType": "string",
          "name": "name",
          "type": "string"
        },
        {
          "internalType": "string",
          "name": "aadhar",
          "type": "string"
        },
        {
          "internalType": "uint256",
          "name": "mobno",
          "type": "uint256"
        },
        {
          "internalType": "string",
          "name": "fatherName",
          "type": "string"
        },
        {
          "internalType": "address",
          "name": "walletAddress",
          "type": "address"
        },
        {
          "internalType": "uint256",
          "name": "amountTaken",
          "type": "uint256"
        },
        {
          "internalType": "uint256",
          "name": "shgid",
          "type": "uint256"
        },
        {
          "internalType": "enum structs.UserType",
          "name": "userType",
          "type": "uint8"
        },
        {
          "internalType": "enum structs.Gender",
          "name": "gender",
          "type": "uint8"
        },
        {
          "components": [
            {
              "internalType": "string",
              "name": "state",
              "type": "string"
            },
            {
              "internalType": "string",
              "name": "district",
              "type": "string"
            },
            {
              "internalType": "string",
              "name": "blockName",
              "type": "string"
            },
            {
              "internalType": "string",
              "name": "panchyatName",
              "type": "string"
            },
            {
              "internalType": "string",
              "name": "villageName",
              "type": "string"
            }
          ],
          "internalType": "struct structs.Location",
          "name": "location",
          "type": "tuple"
        }
      ],
      "stateMutability": "view",
      "type": "function"
    },
    {
      "inputs": [
        {
          "internalType": "string",
          "name": "_name",
          "type": "string"
        },
        {
          "internalType": "address",
          "name": "_walletAddress",
          "type": "address"
        },
        {
          "internalType": "string",
          "name": "_code",
          "type": "string"
        },
        {
          "internalType": "uint256",
          "name": "_intrestRate",
          "type": "uint256"
        }
      ],
      "name": "addBank",
      "outputs": [],
      "stateMutability": "nonpayable",
      "type": "function"
    },
    {
      "inputs": [
        {
          "internalType": "uint256",
          "name": "_shgrequestid",
          "type": "uint256"
        },
        {
          "internalType": "uint256",
          "name": "_bankid",
          "type": "uint256"
        }
      ],
      "name": "approveLoan",
      "outputs": [],
      "stateMutability": "nonpayable",
      "type": "function"
    },
    {
      "inputs": [
        {
          "internalType": "uint256",
          "name": "_shgrequestid",
          "type": "uint256"
        },
        {
          "internalType": "uint256",
          "name": "_bankid",
          "type": "uint256"
        },
        {
          "internalType": "uint256",
          "name": "_amount",
          "type": "uint256"
        }
      ],
      "name": "grantLoan",
      "outputs": [],
      "stateMutability": "nonpayable",
      "type": "function"
    },
    {
      "inputs": [
        {
          "internalType": "uint256",
          "name": "_bankid",
          "type": "uint256"
        },
        {
          "internalType": "uint256",
          "name": "_requestid",
          "type": "uint256"
        },
        {
          "internalType": "uint256",
          "name": "_amount",
          "type": "uint256"
        }
      ],
      "name": "shgLoan",
      "outputs": [],
      "stateMutability": "payable",
      "type": "function"
    },
    {
      "inputs": [
        {
          "internalType": "uint256",
          "name": "bankid",
          "type": "uint256"
        }
      ],
      "name": "getbanks",
      "outputs": [
        {
          "components": [
            {
              "internalType": "uint256",
              "name": "id",
              "type": "uint256"
            },
            {
              "internalType": "string",
              "name": "name",
              "type": "string"
            },
            {
              "internalType": "address",
              "name": "walletAddress",
              "type": "address"
            },
            {
              "internalType": "string",
              "name": "code",
              "type": "string"
            },
            {
              "internalType": "uint256",
              "name": "intrestRate",
              "type": "uint256"
            },
            {
              "internalType": "uint256[]",
              "name": "requests",
              "type": "uint256[]"
            }
          ],
          "internalType": "struct structs.Bank",
          "name": "",
          "type": "tuple"
        }
      ],
      "stateMutability": "view",
      "type": "function"
    }
  ],
  "bytecode": "0x608060405234801561001057600080fd5b506124fa806100206000396000f3fe6080604052600436106100dc5760003560e01c80633ae0058f1161007f57806394169656116100595780639416965614610312578063db223b4c14610355578063e1ec3c681461037e578063edf53886146103c2576100dc565b80633ae0058f1461026f57806361c91b70146102ac5780637a646492146102e9576100dc565b8063249c4bff116100bb578063249c4bff14610188578063257a170b146101a457806326271cf2146101e5578063365b98b214610228576100dc565b806285ae2b146100e157806310673f521461012257806314795ce31461015f575b600080fd5b3480156100ed57600080fd5b5061010860048036038101906101039190611a84565b6103ff565b604051610119959493929190611def565b60405180910390f35b34801561012e57600080fd5b5061014960048036038101906101449190611a84565b610565565b6040516101569190611db2565b60405180910390f35b34801561016b57600080fd5b50610186600480360381019061018191906119f1565b610778565b005b6101a2600480360381019061019d9190611ae9565b610958565b005b3480156101b057600080fd5b506101cb60048036038101906101c69190611a84565b610b61565b6040516101dc959493929190612011565b60405180910390f35b3480156101f157600080fd5b5061020c60048036038101906102079190611a84565b610ba4565b60405161021f9796959493929190611f17565b60405180910390f35b34801561023457600080fd5b5061024f600480360381019061024a9190611a84565b610fda565b6040516102669b9a99989796959493929190611e50565b60405180910390f35b34801561027b57600080fd5b50610296600480360381019061029191906119c8565b6114ea565b6040516102a39190611dd4565b60405180910390f35b3480156102b857600080fd5b506102d360048036038101906102ce91906119c8565b611502565b6040516102e09190611dd4565b60405180910390f35b3480156102f557600080fd5b50610310600480360381019061030b9190611aad565b61151a565b005b34801561031e57600080fd5b5061033960048036038101906103349190611a84565b6115a9565b60405161034c9796959493929190611f9b565b60405180910390f35b34801561036157600080fd5b5061037c60048036038101906103779190611ae9565b611680565b005b34801561038a57600080fd5b506103a560048036038101906103a09190611a84565b61179a565b6040516103b9989796959493929190612064565b60405180910390f35b3480156103ce57600080fd5b506103e960048036038101906103e491906119c8565b6117e2565b6040516103f69190611dd4565b60405180910390f35b6002602052806000526040600020600091509050806000015490806001018054610428906122e1565b80601f0160208091040260200160405190810160405280929190818152602001828054610454906122e1565b80156104a15780601f10610476576101008083540402835291602001916104a1565b820191906000526020600020905b81548152906001019060200180831161048457829003601f168201915b5050505050908060020160009054906101000a900473ffffffffffffffffffffffffffffffffffffffff16908060030180546104dc906122e1565b80601f0160208091040260200160405190810160405280929190818152602001828054610508906122e1565b80156105555780601f1061052a57610100808354040283529160200191610555565b820191906000526020600020905b81548152906001019060200180831161053857829003601f168201915b5050505050908060040154905085565b61056d6117fa565b600260008381526020019081526020016000206040518060c0016040529081600082015481526020016001820180546105a5906122e1565b80601f01602080910402602001604051908101604052809291908181526020018280546105d1906122e1565b801561061e5780601f106105f35761010080835404028352916020019161061e565b820191906000526020600020905b81548152906001019060200180831161060157829003601f168201915b505050505081526020016002820160009054906101000a900473ffffffffffffffffffffffffffffffffffffffff1673ffffffffffffffffffffffffffffffffffffffff1673ffffffffffffffffffffffffffffffffffffffff16815260200160038201805461068d906122e1565b80601f01602080910402602001604051908101604052809291908181526020018280546106b9906122e1565b80156107065780601f106106db57610100808354040283529160200191610706565b820191906000526020600020905b8154815290600101906020018083116106e957829003601f168201915b50505050508152602001600482015481526020016005820180548060200260200160405190810160405280929190818152602001828054801561076857602002820191906000526020600020905b815481526020019060010190808311610754575b5050505050815250509050919050565b6000600d6000815461078990612344565b91905081905590506040518060c001604052808281526020018681526020018573ffffffffffffffffffffffffffffffffffffffff168152602001848152602001838152602001600067ffffffffffffffff811115610811577f4e487b7100000000000000000000000000000000000000000000000000000000600052604160045260246000fd5b60405190808252806020026020018201604052801561083f5781602001602082028036833780820191505090505b508152506002600083815260200190815260200160002060008201518160000155602082015181600101908051906020019061087c929190611846565b5060408201518160020160006101000a81548173ffffffffffffffffffffffffffffffffffffffff021916908373ffffffffffffffffffffffffffffffffffffffff16021790555060608201518160030190805190602001906108e0929190611846565b506080820151816004015560a08201518160050190805190602001906109079291906118cc565b50905050600d54600860008673ffffffffffffffffffffffffffffffffffffffff1673ffffffffffffffffffffffffffffffffffffffff168152602001908152602001600020819055505050505050565b8260006002600083815260200190815260200160002060000154141561097d57600080fd5b6000604051806101000160405280600e6000815461099a90612344565b9190508190558152602001600660008781526020019081526020016000206001015481526020018481526020018681526020016002600088815260200190815260200160002060040154815260200160066000878152602001908152602001600020600301548152602001428152602001600081525090506001600060066000878152602001908152602001600020600101548152602001908152602001600020600c01600e5490806001815401808255809150506001900390600052602060002001600090919091909150553073ffffffffffffffffffffffffffffffffffffffff166108fc849081150290604051600060405180830381858888f19350505050158015610aad573d6000803e3d6000fd5b508260016000600660008881526020019081526020016000206001015481526020019081526020016000206009016000828254610aea919061219e565b925050819055508060046000600e548152602001908152602001600020600082015181600001556020820151816001015560408201518160020155606082015181600301556080820151816004015560a0820151816005015560c0820151816006015560e082015181600701559050505050505050565b60066020528060005260406000206000915090508060000154908060010154908060020154908060030154908060040160009054906101000a900460ff16905085565b6001602052806000526040600020600091509050806000015490806002018054610bcd906122e1565b80601f0160208091040260200160405190810160405280929190818152602001828054610bf9906122e1565b8015610c465780601f10610c1b57610100808354040283529160200191610c46565b820191906000526020600020905b815481529060010190602001808311610c2957829003601f168201915b505050505090806003016040518060a0016040529081600082018054610c6b906122e1565b80601f0160208091040260200160405190810160405280929190818152602001828054610c97906122e1565b8015610ce45780601f10610cb957610100808354040283529160200191610ce4565b820191906000526020600020905b815481529060010190602001808311610cc757829003601f168201915b50505050508152602001600182018054610cfd906122e1565b80601f0160208091040260200160405190810160405280929190818152602001828054610d29906122e1565b8015610d765780601f10610d4b57610100808354040283529160200191610d76565b820191906000526020600020905b815481529060010190602001808311610d5957829003601f168201915b50505050508152602001600282018054610d8f906122e1565b80601f0160208091040260200160405190810160405280929190818152602001828054610dbb906122e1565b8015610e085780601f10610ddd57610100808354040283529160200191610e08565b820191906000526020600020905b815481529060010190602001808311610deb57829003601f168201915b50505050508152602001600382018054610e21906122e1565b80601f0160208091040260200160405190810160405280929190818152602001828054610e4d906122e1565b8015610e9a5780601f10610e6f57610100808354040283529160200191610e9a565b820191906000526020600020905b815481529060010190602001808311610e7d57829003601f168201915b50505050508152602001600482018054610eb3906122e1565b80601f0160208091040260200160405190810160405280929190818152602001828054610edf906122e1565b8015610f2c5780601f10610f0157610100808354040283529160200191610f2c565b820191906000526020600020905b815481529060010190602001808311610f0f57829003601f168201915b50505050508152505090806008018054610f45906122e1565b80601f0160208091040260200160405190810160405280929190818152602001828054610f71906122e1565b8015610fbe5780601f10610f9357610100808354040283529160200191610fbe565b820191906000526020600020905b815481529060010190602001808311610fa157829003601f168201915b50505050509080600901549080600a01549080600d0154905087565b6000602052806000526040600020600091509050806000015490806001018054611003906122e1565b80601f016020809104026020016040519081016040528092919081815260200182805461102f906122e1565b801561107c5780601f106110515761010080835404028352916020019161107c565b820191906000526020600020905b81548152906001019060200180831161105f57829003601f168201915b505050505090806002018054611091906122e1565b80601f01602080910402602001604051908101604052809291908181526020018280546110bd906122e1565b801561110a5780601f106110df5761010080835404028352916020019161110a565b820191906000526020600020905b8154815290600101906020018083116110ed57829003601f168201915b505050505090806003015490806004018054611125906122e1565b80601f0160208091040260200160405190810160405280929190818152602001828054611151906122e1565b801561119e5780601f106111735761010080835404028352916020019161119e565b820191906000526020600020905b81548152906001019060200180831161118157829003601f168201915b5050505050908060050160009054906101000a900473ffffffffffffffffffffffffffffffffffffffff16908060070154908060080154908060090160009054906101000a900460ff16908060090160019054906101000a900460ff169080600a016040518060a001604052908160008201805461121b906122e1565b80601f0160208091040260200160405190810160405280929190818152602001828054611247906122e1565b80156112945780601f1061126957610100808354040283529160200191611294565b820191906000526020600020905b81548152906001019060200180831161127757829003601f168201915b505050505081526020016001820180546112ad906122e1565b80601f01602080910402602001604051908101604052809291908181526020018280546112d9906122e1565b80156113265780601f106112fb57610100808354040283529160200191611326565b820191906000526020600020905b81548152906001019060200180831161130957829003601f168201915b5050505050815260200160028201805461133f906122e1565b80601f016020809104026020016040519081016040528092919081815260200182805461136b906122e1565b80156113b85780601f1061138d576101008083540402835291602001916113b8565b820191906000526020600020905b81548152906001019060200180831161139b57829003601f168201915b505050505081526020016003820180546113d1906122e1565b80601f01602080910402602001604051908101604052809291908181526020018280546113fd906122e1565b801561144a5780601f1061141f5761010080835404028352916020019161144a565b820191906000526020600020905b81548152906001019060200180831161142d57829003601f168201915b50505050508152602001600482018054611463906122e1565b80601f016020809104026020016040519081016040528092919081815260200182805461148f906122e1565b80156114dc5780601f106114b1576101008083540402835291602001916114dc565b820191906000526020600020905b8154815290600101906020018083116114bf57829003601f168201915b50505050508152505090508b565b60076020528060005260406000206000915090505481565b60086020528060005260406000206000915090505481565b8060006002600083815260200190815260200160002060000154141561153f57600080fd5b60006006600085815260200190815260200160002060040160006101000a81548160ff0219169083600381111561159f577f4e487b7100000000000000000000000000000000000000000000000000000000600052602160045260246000fd5b0217905550505050565b60056020528060005260406000206000915090508060000154908060010154908060020154908060030180546115de906122e1565b80601f016020809104026020016040519081016040528092919081815260200182805461160a906122e1565b80156116575780601f1061162c57610100808354040283529160200191611657565b820191906000526020600020905b81548152906001019060200180831161163a57829003601f168201915b5050505050908060040154908060050160009054906101000a900460ff16908060060154905087565b816000600260008381526020019081526020016000206000015414156116a557600080fd5b3073ffffffffffffffffffffffffffffffffffffffff166108fc839081150290604051600060405180830381858888f193505050501580156116eb573d6000803e3d6000fd5b5060016006600086815260200190815260200160002060040160006101000a81548160ff0219169083600381111561174c577f4e487b7100000000000000000000000000000000000000000000000000000000600052602160045260246000fd5b0217905550816001600060066000888152602001908152602001600020600101548152602001908152602001600020600901600082825461178d919061219e565b9250508190555050505050565b60046020528060005260406000206000915090508060000154908060010154908060020154908060030154908060040154908060050154908060060154908060070154905088565b60036020528060005260406000206000915090505481565b6040518060c001604052806000815260200160608152602001600073ffffffffffffffffffffffffffffffffffffffff1681526020016060815260200160008152602001606081525090565b828054611852906122e1565b90600052602060002090601f01602090048101928261187457600085556118bb565b82601f1061188d57805160ff19168380011785556118bb565b828001600101855582156118bb579182015b828111156118ba57825182559160200191906001019061189f565b5b5090506118c89190611919565b5090565b828054828255906000526020600020908101928215611908579160200282015b828111156119075782518255916020019190600101906118ec565b5b5090506119159190611919565b5090565b5b8082111561193257600081600090555060010161191a565b5090565b600061194961194484612107565b6120e2565b90508281526020810184848401111561196157600080fd5b61196c84828561229f565b509392505050565b60008135905061198381612496565b92915050565b600082601f83011261199a57600080fd5b81356119aa848260208601611936565b91505092915050565b6000813590506119c2816124ad565b92915050565b6000602082840312156119da57600080fd5b60006119e884828501611974565b91505092915050565b60008060008060808587031215611a0757600080fd5b600085013567ffffffffffffffff811115611a2157600080fd5b611a2d87828801611989565b9450506020611a3e87828801611974565b935050604085013567ffffffffffffffff811115611a5b57600080fd5b611a6787828801611989565b9250506060611a78878288016119b3565b91505092959194509250565b600060208284031215611a9657600080fd5b6000611aa4848285016119b3565b91505092915050565b60008060408385031215611ac057600080fd5b6000611ace858286016119b3565b9250506020611adf858286016119b3565b9150509250929050565b600080600060608486031215611afe57600080fd5b6000611b0c868287016119b3565b9350506020611b1d868287016119b3565b9250506040611b2e868287016119b3565b9150509250925092565b6000611b448383611d94565b60208301905092915050565b611b59816121f4565b82525050565b611b68816121f4565b82525050565b6000611b7982612148565b611b83818561216b565b9350611b8e83612138565b8060005b83811015611bbf578151611ba68882611b38565b9750611bb18361215e565b925050600181019050611b92565b5085935050505092915050565b611bd581612269565b82525050565b611be48161227b565b82525050565b611bf38161228d565b82525050565b6000611c0482612153565b611c0e818561217c565b9350611c1e8185602086016122ae565b611c2781612449565b840191505092915050565b6000611c3d82612153565b611c47818561218d565b9350611c578185602086016122ae565b611c6081612449565b840191505092915050565b600060c083016000830151611c836000860182611d94565b5060208301518482036020860152611c9b8282611bf9565b9150506040830151611cb06040860182611b50565b5060608301518482036060860152611cc88282611bf9565b9150506080830151611cdd6080860182611d94565b5060a083015184820360a0860152611cf58282611b6e565b9150508091505092915050565b600060a0830160008301518482036000860152611d1f8282611bf9565b91505060208301518482036020860152611d398282611bf9565b91505060408301518482036040860152611d538282611bf9565b91505060608301518482036060860152611d6d8282611bf9565b91505060808301518482036080860152611d878282611bf9565b9150508091505092915050565b611d9d8161225f565b82525050565b611dac8161225f565b82525050565b60006020820190508181036000830152611dcc8184611c6b565b905092915050565b6000602082019050611de96000830184611da3565b92915050565b600060a082019050611e046000830188611da3565b8181036020830152611e168187611c32565b9050611e256040830186611b5f565b8181036060830152611e378185611c32565b9050611e466080830184611da3565b9695505050505050565b600061016082019050611e66600083018e611da3565b8181036020830152611e78818d611c32565b90508181036040830152611e8c818c611c32565b9050611e9b606083018b611da3565b8181036080830152611ead818a611c32565b9050611ebc60a0830189611b5f565b611ec960c0830188611da3565b611ed660e0830187611da3565b611ee4610100830186611bea565b611ef2610120830185611bcc565b818103610140830152611f058184611d02565b90509c9b505050505050505050505050565b600060e082019050611f2c600083018a611da3565b8181036020830152611f3e8189611c32565b90508181036040830152611f528188611d02565b90508181036060830152611f668187611c32565b9050611f756080830186611da3565b611f8260a0830185611da3565b611f8f60c0830184611da3565b98975050505050505050565b600060e082019050611fb0600083018a611da3565b611fbd6020830189611da3565b611fca6040830188611da3565b8181036060830152611fdc8187611c32565b9050611feb6080830186611da3565b611ff860a0830185611bdb565b61200560c0830184611da3565b98975050505050505050565b600060a0820190506120266000830188611da3565b6120336020830187611da3565b6120406040830186611da3565b61204d6060830185611da3565b61205a6080830184611bdb565b9695505050505050565b60006101008201905061207a600083018b611da3565b612087602083018a611da3565b6120946040830189611da3565b6120a16060830188611da3565b6120ae6080830187611da3565b6120bb60a0830186611da3565b6120c860c0830185611da3565b6120d560e0830184611da3565b9998505050505050505050565b60006120ec6120fd565b90506120f88282612313565b919050565b6000604051905090565b600067ffffffffffffffff8211156121225761212161241a565b5b61212b82612449565b9050602081019050919050565b6000819050602082019050919050565b600081519050919050565b600081519050919050565b6000602082019050919050565b600082825260208201905092915050565b600082825260208201905092915050565b600082825260208201905092915050565b60006121a98261225f565b91506121b48361225f565b9250827fffffffffffffffffffffffffffffffffffffffffffffffffffffffffffffffff038211156121e9576121e861238d565b5b828201905092915050565b60006121ff8261223f565b9050919050565b60008190506122148261245a565b919050565b60008190506122278261246e565b919050565b600081905061223a82612482565b919050565b600073ffffffffffffffffffffffffffffffffffffffff82169050919050565b6000819050919050565b600061227482612206565b9050919050565b600061228682612219565b9050919050565b60006122988261222c565b9050919050565b82818337600083830152505050565b60005b838110156122cc5780820151818401526020810190506122b1565b838111156122db576000848401525b50505050565b600060028204905060018216806122f957607f821691505b6020821081141561230d5761230c6123eb565b5b50919050565b61231c82612449565b810181811067ffffffffffffffff8211171561233b5761233a61241a565b5b80604052505050565b600061234f8261225f565b91507fffffffffffffffffffffffffffffffffffffffffffffffffffffffffffffffff8214156123825761238161238d565b5b600182019050919050565b7f4e487b7100000000000000000000000000000000000000000000000000000000600052601160045260246000fd5b7f4e487b7100000000000000000000000000000000000000000000000000000000600052602160045260246000fd5b7f4e487b7100000000000000000000000000000000000000000000000000000000600052602260045260246000fd5b7f4e487b7100000000000000000000000000000000000000000000000000000000600052604160045260246000fd5b6000601f19601f8301169050919050565b6003811061246b5761246a6123bc565b5b50565b6004811061247f5761247e6123bc565b5b50565b60068110612493576124926123bc565b5b50565b61249f816121f4565b81146124aa57600080fd5b50565b6124b68161225f565b81146124c157600080fd5b5056fea2646970667358221220f58b10a983c3cf1b1550fcb5e1bb0a92c681d22b8503a877b15b7a343e4b22ff64736f6c63430008040033",
  "immutableReferences": {},
  "source": "// SPDX-License-Identifier: MIT\r\npragma solidity ^0.8.1;\r\nimport \"./structs.sol\";\r\nimport \"./modifiers.sol\";\r\n\r\ncontract Bank is structs, modifiers {\r\n    function addBank(\r\n        string memory _name,\r\n        address _walletAddress,\r\n        string memory _code,\r\n        uint256 _intrestRate\r\n    ) public {\r\n        uint256 id = ++numBanks;\r\n        banks[id] = Bank(\r\n            id,\r\n            _name,\r\n            _walletAddress,\r\n            _code,\r\n            _intrestRate,\r\n            new uint256[](0)\r\n        );\r\n\r\n        addressToBankid[_walletAddress] = numBanks;\r\n    }\r\n\r\n    function approveLoan(uint256 _shgrequestid, uint256 _bankid)\r\n        public\r\n        onlyBank(_bankid)\r\n    {\r\n        shgRequests[_shgrequestid].status = RequestStatus.APPROVED;\r\n    }\r\n\r\n    function grantLoan(\r\n        uint256 _shgrequestid,\r\n        uint256 _bankid,\r\n        uint256 _amount\r\n    ) public onlyBank(_bankid) {\r\n        payable(address(this)).transfer(_amount);\r\n        shgRequests[_shgrequestid].status = RequestStatus.COMPLETED;\r\n        shgs[shgRequests[_shgrequestid].shgid].currentBalance += _amount;\r\n    }\r\n\r\n    function shgLoan(\r\n        uint256 _bankid,\r\n        uint256 _requestid,\r\n        uint256 _amount\r\n    ) public payable onlyBank(_bankid) {\r\n        Loan memory newLoan = Loan({\r\n            loanId: ++numLoans,\r\n            lenderId: shgRequests[_requestid].shgid,\r\n            amount: _amount,\r\n            lendeeId: _bankid,\r\n            intrest: banks[_bankid].intrestRate,\r\n            loanTime: shgRequests[_requestid].loanTime,\r\n            date: block.timestamp,\r\n            lastEMI: 0\r\n        });\r\n\r\n        shgs[shgRequests[_requestid].shgid].loansTaken.push(numLoans);\r\n\r\n        payable(address(this)).transfer(_amount);\r\n        shgs[shgRequests[_requestid].shgid].currentBalance += _amount;\r\n        loans[numLoans] = newLoan;\r\n    }\r\n\r\n    // fetch functions\r\n\r\n    function getbanks(uint256 bankid) public view returns (Bank memory) {\r\n        return banks[bankid];\r\n    }\r\n}\r\n",
  "sourcePath": "C:/Users/hardi/Desktop/yogdaan/contracts/lib/Bank.sol",
  "compiler": {
    "name": "solc",
    "version": "0.8.4+commit.c7e474f2.Emscripten.clang"
  },
  "schemaVersion": "3.4.0",
  "updatedAt": "2022-08-23T20:31:08.298Z",
  "devdoc": {
    "kind": "dev",
    "methods": {},
    "version": 1
  },
  "userdoc": {
    "kind": "user",
    "methods": {},
    "version": 1
  }
}