{
  "contractName": "SHG",
  "abi": [
    {
      "inputs": [
        {
          "internalType": "uint256",
          "name": "",
          "type": "uint256"
        }
      ],
      "name": "shgs",
      "outputs": [
        {
          "internalType": "uint256",
          "name": "id",
          "type": "uint256"
        },
        {
          "internalType": "string",
          "name": "name",
          "type": "string"
        },
        {
          "components": [
            {
              "internalType": "string",
              "name": "state",
              "type": "string"
            },
            {
              "internalType": "string",
              "name": "district",
              "type": "string"
            },
            {
              "internalType": "string",
              "name": "blockName",
              "type": "string"
            },
            {
              "internalType": "string",
              "name": "panchyarName",
              "type": "string"
            },
            {
              "internalType": "string",
              "name": "villageName",
              "type": "string"
            }
          ],
          "internalType": "struct structs.Location",
          "name": "location",
          "type": "tuple"
        },
        {
          "internalType": "string",
          "name": "dateOfFormation",
          "type": "string"
        },
        {
          "internalType": "uint256",
          "name": "currentBalance",
          "type": "uint256"
        },
        {
          "internalType": "uint256",
          "name": "owedBalance",
          "type": "uint256"
        },
        {
          "internalType": "uint256",
          "name": "baseIntrest",
          "type": "uint256"
        }
      ],
      "stateMutability": "view",
      "type": "function"
    },
    {
      "inputs": [
        {
          "internalType": "uint256[]",
          "name": "members",
          "type": "uint256[]"
        },
        {
          "internalType": "uint256",
          "name": "president",
          "type": "uint256"
        },
        {
          "internalType": "string",
          "name": "name",
          "type": "string"
        },
        {
          "components": [
            {
              "internalType": "string",
              "name": "state",
              "type": "string"
            },
            {
              "internalType": "string",
              "name": "district",
              "type": "string"
            },
            {
              "internalType": "string",
              "name": "blockName",
              "type": "string"
            },
            {
              "internalType": "string",
              "name": "panchyarName",
              "type": "string"
            },
            {
              "internalType": "string",
              "name": "villageName",
              "type": "string"
            }
          ],
          "internalType": "struct structs.Location",
          "name": "location",
          "type": "tuple"
        },
        {
          "internalType": "string",
          "name": "dateOfFormation",
          "type": "string"
        },
        {
          "internalType": "uint256",
          "name": "_baseIntrest",
          "type": "uint256"
        }
      ],
      "name": "addSHG",
      "outputs": [],
      "stateMutability": "nonpayable",
      "type": "function"
    },
    {
      "inputs": [
        {
          "internalType": "uint256",
          "name": "userid",
          "type": "uint256"
        },
        {
          "internalType": "uint256",
          "name": "shg",
          "type": "uint256"
        }
      ],
      "name": "addSHGMember",
      "outputs": [],
      "stateMutability": "nonpayable",
      "type": "function"
    },
    {
      "inputs": [
        {
          "internalType": "uint256",
          "name": "userid",
          "type": "uint256"
        },
        {
          "internalType": "uint256",
          "name": "shgid",
          "type": "uint256"
        }
      ],
      "name": "removeSHGMember",
      "outputs": [],
      "stateMutability": "nonpayable",
      "type": "function"
    },
    {
      "inputs": [
        {
          "internalType": "uint256",
          "name": "id",
          "type": "uint256"
        },
        {
          "internalType": "enum structs.UserType",
          "name": "updatedType",
          "type": "uint8"
        }
      ],
      "name": "updateMemberRole",
      "outputs": [],
      "stateMutability": "nonpayable",
      "type": "function"
    },
    {
      "inputs": [
        {
          "internalType": "uint256",
          "name": "_requestid",
          "type": "uint256"
        }
      ],
      "name": "sendGrant",
      "outputs": [],
      "stateMutability": "nonpayable",
      "type": "function"
    },
    {
      "inputs": [
        {
          "internalType": "uint256",
          "name": "_requestid",
          "type": "uint256"
        },
        {
          "internalType": "uint256",
          "name": "_shgid",
          "type": "uint256"
        }
      ],
      "name": "approveRequest",
      "outputs": [],
      "stateMutability": "nonpayable",
      "type": "function"
    },
    {
      "inputs": [
        {
          "internalType": "uint256",
          "name": "_shgid",
          "type": "uint256"
        },
        {
          "internalType": "uint256",
          "name": "_amount",
          "type": "uint256"
        },
        {
          "internalType": "uint256",
          "name": "_loanTime",
          "type": "uint256"
        }
      ],
      "name": "sendRequestToBank",
      "outputs": [],
      "stateMutability": "nonpayable",
      "type": "function"
    },
    {
      "inputs": [
        {
          "internalType": "uint256",
          "name": "_shgid",
          "type": "uint256"
        },
        {
          "internalType": "uint256",
          "name": "_loanid",
          "type": "uint256"
        },
        {
          "internalType": "uint256",
          "name": "_amount",
          "type": "uint256"
        }
      ],
      "name": "shgPayEMI",
      "outputs": [],
      "stateMutability": "nonpayable",
      "type": "function"
    },
    {
      "inputs": [
        {
          "internalType": "uint256",
          "name": "_shgid",
          "type": "uint256"
        },
        {
          "internalType": "uint256",
          "name": "_loanid",
          "type": "uint256"
        }
      ],
      "name": "getSHGEMI",
      "outputs": [
        {
          "internalType": "uint256",
          "name": "",
          "type": "uint256"
        }
      ],
      "stateMutability": "nonpayable",
      "type": "function"
    },
    {
      "inputs": [
        {
          "internalType": "uint256",
          "name": "shgid",
          "type": "uint256"
        }
      ],
      "name": "getSHG",
      "outputs": [
        {
          "components": [
            {
              "internalType": "uint256",
              "name": "id",
              "type": "uint256"
            },
            {
              "internalType": "uint256[]",
              "name": "users",
              "type": "uint256[]"
            },
            {
              "internalType": "string",
              "name": "name",
              "type": "string"
            },
            {
              "components": [
                {
                  "internalType": "string",
                  "name": "state",
                  "type": "string"
                },
                {
                  "internalType": "string",
                  "name": "district",
                  "type": "string"
                },
                {
                  "internalType": "string",
                  "name": "blockName",
                  "type": "string"
                },
                {
                  "internalType": "string",
                  "name": "panchyarName",
                  "type": "string"
                },
                {
                  "internalType": "string",
                  "name": "villageName",
                  "type": "string"
                }
              ],
              "internalType": "struct structs.Location",
              "name": "location",
              "type": "tuple"
            },
            {
              "internalType": "string",
              "name": "dateOfFormation",
              "type": "string"
            },
            {
              "internalType": "uint256",
              "name": "currentBalance",
              "type": "uint256"
            },
            {
              "internalType": "uint256",
              "name": "owedBalance",
              "type": "uint256"
            },
            {
              "internalType": "uint256[]",
              "name": "loansGiven",
              "type": "uint256[]"
            },
            {
              "internalType": "uint256[]",
              "name": "loansTaken",
              "type": "uint256[]"
            },
            {
              "internalType": "uint256",
              "name": "baseIntrest",
              "type": "uint256"
            }
          ],
          "internalType": "struct structs.SHG",
          "name": "",
          "type": "tuple"
        }
      ],
      "stateMutability": "view",
      "type": "function"
    },
    {
      "inputs": [
        {
          "internalType": "uint256",
          "name": "requestid",
          "type": "uint256"
        }
      ],
      "name": "getUserRequests",
      "outputs": [
        {
          "components": [
            {
              "internalType": "uint256",
              "name": "requestId",
              "type": "uint256"
            },
            {
              "internalType": "uint256",
              "name": "userId",
              "type": "uint256"
            },
            {
              "internalType": "uint256",
              "name": "amount",
              "type": "uint256"
            },
            {
              "internalType": "string",
              "name": "description",
              "type": "string"
            },
            {
              "internalType": "uint256",
              "name": "SHGId",
              "type": "uint256"
            },
            {
              "internalType": "enum structs.RequestStatus",
              "name": "status",
              "type": "uint8"
            },
            {
              "internalType": "uint256",
              "name": "loanTime",
              "type": "uint256"
            },
            {
              "internalType": "uint256[]",
              "name": "approvals",
              "type": "uint256[]"
            }
          ],
          "internalType": "struct structs.UserRequest",
          "name": "",
          "type": "tuple"
        }
      ],
      "stateMutability": "view",
      "type": "function"
    },
    {
      "inputs": [
        {
          "internalType": "uint256",
          "name": "requestid",
          "type": "uint256"
        }
      ],
      "name": "getSHGRequests",
      "outputs": [
        {
          "components": [
            {
              "internalType": "uint256",
              "name": "requestid",
              "type": "uint256"
            },
            {
              "internalType": "uint256",
              "name": "shgid",
              "type": "uint256"
            },
            {
              "internalType": "uint256",
              "name": "amount",
              "type": "uint256"
            },
            {
              "internalType": "uint256",
              "name": "loanTime",
              "type": "uint256"
            },
            {
              "internalType": "enum structs.RequestStatus",
              "name": "status",
              "type": "uint8"
            }
          ],
          "internalType": "struct structs.SHGRequest",
          "name": "",
          "type": "tuple"
        }
      ],
      "stateMutability": "view",
      "type": "function"
    },
    {
      "inputs": [
        {
          "internalType": "uint256",
          "name": "shgid",
          "type": "uint256"
        }
      ],
      "name": "getSHGMembers",
      "outputs": [
        {
          "internalType": "uint256[]",
          "name": "",
          "type": "uint256[]"
        }
      ],
      "stateMutability": "view",
      "type": "function"
    }
  ],
  "bytecode": "0x608060405234801561001057600080fd5b506136c6806100206000396000f3fe608060405234801561001057600080fd5b50600436106100ea5760003560e01c80637d550bb31161008c578063a29231fe11610066578063a29231fe1461025d578063a6e90a5814610279578063af08a94f14610295578063d3f86fb8146102c5576100ea565b80637d550bb3146101f55780637fa70fe2146102115780639bbc9ab114610241576100ea565b806339d8bed1116100c857806339d8bed11461015d5780633b0ed213146101795780634f269c92146101a9578063769d0e16146101c5576100ea565b8063021af397146100ef57806326271cf21461010b5780632c0a90a914610141575b600080fd5b610109600480360381019061010491906129ca565b6102f5565b005b61012560048036038101906101209190612929565b6104cc565b60405161013897969594939291906130b7565b60405180910390f35b61015b6004803603810190610156919061298e565b610902565b005b6101776004803603810190610172919061298e565b610a58565b005b610193600480360381019061018e9190612929565b610b6e565b6040516101a0919061307a565b60405180910390f35b6101c360048036038101906101be9190612952565b610d3f565b005b6101df60048036038101906101da919061298e565b610da6565b6040516101ec919061309c565b60405180910390f35b61020f600480360381019061020a91906129ca565b610ec4565b005b61022b60048036038101906102269190612929565b610fa3565b6040516102389190613058565b60405180910390f35b61025b60048036038101906102569190612929565b611513565b005b61027760048036038101906102729190612840565b6119bb565b005b610293600480360381019061028e919061298e565b611dc8565b005b6102af60048036038101906102aa9190612929565b611f5a565b6040516102bc9190612f7b565b60405180910390f35b6102df60048036038101906102da9190612929565b611fc8565b6040516102ec919061303d565b60405180910390f35b8260006001600083815260200190815260200160002060000154141561031a57600080fd5b83600080600360003373ffffffffffffffffffffffffffffffffffffffff1673ffffffffffffffffffffffffffffffffffffffff168152602001908152602001600020548152602001908152602001600020600801541461037a57600080fd5b6000600a600081548092919061038f9061341d565b9190505590506040518060a001604052808281526020018681526020018581526020018481526020016003808111156103f1577f4e487b7100000000000000000000000000000000000000000000000000000000600052602160045260246000fd5b815250600660008381526020019081526020016000206000820151816000015560208201518160010155604082015181600201556060820151816003015560808201518160040160006101000a81548160ff02191690836003811115610480577f4e487b7100000000000000000000000000000000000000000000000000000000600052602160045260246000fd5b021790555090505060016000868152602001908152602001600020600c018190806001815401808255809150506001900390600052602060002001600090919091909150555050505050565b60016020528060005260406000206000915090508060000154908060020180546104f5906133ba565b80601f0160208091040260200160405190810160405280929190818152602001828054610521906133ba565b801561056e5780601f106105435761010080835404028352916020019161056e565b820191906000526020600020905b81548152906001019060200180831161055157829003601f168201915b505050505090806003016040518060a0016040529081600082018054610593906133ba565b80601f01602080910402602001604051908101604052809291908181526020018280546105bf906133ba565b801561060c5780601f106105e15761010080835404028352916020019161060c565b820191906000526020600020905b8154815290600101906020018083116105ef57829003601f168201915b50505050508152602001600182018054610625906133ba565b80601f0160208091040260200160405190810160405280929190818152602001828054610651906133ba565b801561069e5780601f106106735761010080835404028352916020019161069e565b820191906000526020600020905b81548152906001019060200180831161068157829003601f168201915b505050505081526020016002820180546106b7906133ba565b80601f01602080910402602001604051908101604052809291908181526020018280546106e3906133ba565b80156107305780601f1061070557610100808354040283529160200191610730565b820191906000526020600020905b81548152906001019060200180831161071357829003601f168201915b50505050508152602001600382018054610749906133ba565b80601f0160208091040260200160405190810160405280929190818152602001828054610775906133ba565b80156107c25780601f10610797576101008083540402835291602001916107c2565b820191906000526020600020905b8154815290600101906020018083116107a557829003601f168201915b505050505081526020016004820180546107db906133ba565b80601f0160208091040260200160405190810160405280929190818152602001828054610807906133ba565b80156108545780601f1061082957610100808354040283529160200191610854565b820191906000526020600020905b81548152906001019060200180831161083757829003601f168201915b5050505050815250509080600801805461086d906133ba565b80601f0160208091040260200160405190810160405280929190818152602001828054610899906133ba565b80156108e65780601f106108bb576101008083540402835291602001916108e6565b820191906000526020600020905b8154815290600101906020018083116108c957829003601f168201915b50505050509080600901549080600a01549080600d0154905087565b8060006001600083815260200190815260200160002060000154141561092757600080fd5b60006005600085815260200190815260200160002090508281600401541461094e57600080fd5b610957846120a4565b61096057600080fd5b80600701600360003373ffffffffffffffffffffffffffffffffffffffff1673ffffffffffffffffffffffffffffffffffffffff168152602001908152602001600020549080600181540180825580915050600190039060005260206000200160009091909190915055600260016000858152602001908152602001600020600101805490506109f0919061328a565b81600701805490501115610a525760008160050160006101000a81548160ff02191690836003811115610a4c577f4e487b7100000000000000000000000000000000000000000000000000000000600052602160045260246000fd5b02179055505b50505050565b806000808481526020019081526020016000206008015414610aaf576040517f08c379a0000000000000000000000000000000000000000000000000000000008152600401610aa690612fdd565b60405180910390fd5b8060008084815260200190815260200160002060080181905550600360008084815260200190815260200160002060090160006101000a81548160ff02191690836005811115610b28577f4e487b7100000000000000000000000000000000000000000000000000000000600052602160045260246000fd5b0217905550600160008281526020019081526020016000206001018290806001815401808255809150506001900390600052602060002001600090919091909150555050565b610b766123bc565b6005600083815260200190815260200160002060405180610100016040529081600082015481526020016001820154815260200160028201548152602001600382018054610bc3906133ba565b80601f0160208091040260200160405190810160405280929190818152602001828054610bef906133ba565b8015610c3c5780601f10610c1157610100808354040283529160200191610c3c565b820191906000526020600020905b815481529060010190602001808311610c1f57829003601f168201915b50505050508152602001600482015481526020016005820160009054906101000a900460ff166003811115610c9a577f4e487b7100000000000000000000000000000000000000000000000000000000600052602160045260246000fd5b6003811115610cd2577f4e487b7100000000000000000000000000000000000000000000000000000000600052602160045260246000fd5b81526020016006820154815260200160078201805480602002602001604051908101604052809291908181526020018280548015610d2f57602002820191906000526020600020905b815481526020019060010190808311610d1b575b5050505050815250509050919050565b8060008084815260200190815260200160002060090160006101000a81548160ff02191690836005811115610d9d577f4e487b7100000000000000000000000000000000000000000000000000000000600052602160045260246000fd5b02179055505050565b600082600060016000838152602001908152602001600020600001541415610dcd57600080fd5b60006004600085815260200190815260200160002090506000601e603c806018856007015442610dfd9190613315565b610e07919061328a565b610e1191906132bb565b610e1b91906132bb565b610e2591906132bb565b905060008111610e3457600080fd5b60008260020154905060008360040154905060008460050154905060008382600c610e5f91906132bb565b610e699190613315565b600c606485610e78919061328a565b610e8291906132bb565b6001610e8e9190613234565b85610e9991906132bb565b189050808660020154610eac9190613315565b86600201819055508097505050505050505092915050565b82600060016000838152602001908152602001600020600001541415610ee957600080fd5b6000610ef58585610da6565b9050828114610f0357600080fd5b60006004600086815260200190815260200160002090503073ffffffffffffffffffffffffffffffffffffffff166108fc859081150290604051600060405180830381858888f19350505050158015610f60573d6000803e3d6000fd5b508360016000836003015481526020019081526020016000206009016000828254610f8b9190613234565b92505081905550428160070181905550505050505050565b610fab612439565b6001600083815260200190815260200160002060405180610140016040529081600082015481526020016001820180548060200260200160405190810160405280929190818152602001828054801561102357602002820191906000526020600020905b81548152602001906001019080831161100f575b5050505050815260200160028201805461103c906133ba565b80601f0160208091040260200160405190810160405280929190818152602001828054611068906133ba565b80156110b55780601f1061108a576101008083540402835291602001916110b5565b820191906000526020600020905b81548152906001019060200180831161109857829003601f168201915b50505050508152602001600382016040518060a00160405290816000820180546110de906133ba565b80601f016020809104026020016040519081016040528092919081815260200182805461110a906133ba565b80156111575780601f1061112c57610100808354040283529160200191611157565b820191906000526020600020905b81548152906001019060200180831161113a57829003601f168201915b50505050508152602001600182018054611170906133ba565b80601f016020809104026020016040519081016040528092919081815260200182805461119c906133ba565b80156111e95780601f106111be576101008083540402835291602001916111e9565b820191906000526020600020905b8154815290600101906020018083116111cc57829003601f168201915b50505050508152602001600282018054611202906133ba565b80601f016020809104026020016040519081016040528092919081815260200182805461122e906133ba565b801561127b5780601f106112505761010080835404028352916020019161127b565b820191906000526020600020905b81548152906001019060200180831161125e57829003601f168201915b50505050508152602001600382018054611294906133ba565b80601f01602080910402602001604051908101604052809291908181526020018280546112c0906133ba565b801561130d5780601f106112e25761010080835404028352916020019161130d565b820191906000526020600020905b8154815290600101906020018083116112f057829003601f168201915b50505050508152602001600482018054611326906133ba565b80601f0160208091040260200160405190810160405280929190818152602001828054611352906133ba565b801561139f5780601f106113745761010080835404028352916020019161139f565b820191906000526020600020905b81548152906001019060200180831161138257829003601f168201915b50505050508152505081526020016008820180546113bc906133ba565b80601f01602080910402602001604051908101604052809291908181526020018280546113e8906133ba565b80156114355780601f1061140a57610100808354040283529160200191611435565b820191906000526020600020905b81548152906001019060200180831161141857829003601f168201915b5050505050815260200160098201548152602001600a8201548152602001600b82018054806020026020016040519081016040528092919081815260200182805480156114a157602002820191906000526020600020905b81548152602001906001019080831161148d575b50505050508152602001600c82018054806020026020016040519081016040528092919081815260200182805480156114f957602002820191906000526020600020905b8154815260200190600101908083116114e5575b50505050508152602001600d820154815250509050919050565b6002600581111561154d577f4e487b7100000000000000000000000000000000000000000000000000000000600052602160045260246000fd5b600080600360003373ffffffffffffffffffffffffffffffffffffffff1673ffffffffffffffffffffffffffffffffffffffff16815260200190815260200160002054815260200190815260200160002060090160009054906101000a900460ff1660058111156115e7577f4e487b7100000000000000000000000000000000000000000000000000000000600052602160045260246000fd5b14611627576040517f08c379a000000000000000000000000000000000000000000000000000000000815260040161161e9061301d565b60405180910390fd5b60006003811115611661577f4e487b7100000000000000000000000000000000000000000000000000000000600052602160045260246000fd5b6005600083815260200190815260200160002060050160009054906101000a900460ff1660038111156116bd577f4e487b7100000000000000000000000000000000000000000000000000000000600052602160045260246000fd5b146116fd576040517f08c379a00000000000000000000000000000000000000000000000000000000081526004016116f490612ffd565b60405180910390fd5b600060056000838152602001908152602001600020905060018160050160006101000a81548160ff02191690836003811115611762577f4e487b7100000000000000000000000000000000000000000000000000000000600052602160045260246000fd5b02179055506000604051806101000160405280600c600081546117849061341d565b91905081905581526020018360040154815260200183600201548152602001836001015481526020016001600085600401548152602001908152602001600020600d0154815260200183600601548152602001428152602001600081525090508060046000600c548152602001908152602001600020600082015181600001556020820151816001015560408201518160020155606082015181600301556080820151816004015560a0820151816005015560c0820151816006015560e082015181600701559050506001600083600401548152602001908152602001600020600b01600c54908060018154018082558091505060019003906000526020600020016000909190919091505560008083600101548152602001908152602001600020600601600c549080600181540180825580915050600190039060005260206000200160009091909190915055816002015460016000846004015481526020019081526020016000206009015410156118fd57600080fd5b6000808360010154815260200190815260200160002060050160009054906101000a900473ffffffffffffffffffffffffffffffffffffffff1673ffffffffffffffffffffffffffffffffffffffff166108fc83600201549081150290604051600060405180830381858888f19350505050158015611980573d6000803e3d6000fd5b508160020154600160008460040154815260200190815260200160002060090160008282546119af9190613315565b92505081905550505050565b600786511015611a00576040517f08c379a00000000000000000000000000000000000000000000000000000000081526004016119f790612f9d565b60405180910390fd5b6000600860008154611a119061341d565b91905081905590506040518061014001604052808281526020018881526020018681526020018581526020018481526020016000815260200160008152602001600067ffffffffffffffff811115611a92577f4e487b7100000000000000000000000000000000000000000000000000000000600052604160045260246000fd5b604051908082528060200260200182016040528015611ac05781602001602082028036833780820191505090505b508152602001600067ffffffffffffffff811115611b07577f4e487b7100000000000000000000000000000000000000000000000000000000600052604160045260246000fd5b604051908082528060200260200182016040528015611b355781602001602082028036833780820191505090505b5081526020018381525060016000838152602001908152602001600020600082015181600001556020820151816001019080519060200190611b78929190612492565b506040820151816002019080519060200190611b959291906124df565b506060820151816003016000820151816000019080519060200190611bbb9291906124df565b506020820151816001019080519060200190611bd89291906124df565b506040820151816002019080519060200190611bf59291906124df565b506060820151816003019080519060200190611c129291906124df565b506080820151816004019080519060200190611c2f9291906124df565b5050506080820151816008019080519060200190611c4e9291906124df565b5060a0820151816009015560c082015181600a015560e082015181600b019080519060200190611c7f929190612492565b5061010082015181600c019080519060200190611c9d929190612492565b5061012082015181600d015590505060005b8751811015611dbe5786888281518110611cf2577f4e487b7100000000000000000000000000000000000000000000000000000000600052603260045260246000fd5b602002602001015114611d06576003611d09565b60005b6000808a8481518110611d45577f4e487b7100000000000000000000000000000000000000000000000000000000600052603260045260246000fd5b6020026020010151815260200190815260200160002060090160006101000a81548160ff02191690836005811115611da6577f4e487b7100000000000000000000000000000000000000000000000000000000600052602160045260246000fd5b02179055508080611db69061341d565b915050611caf565b5050505050505050565b6000600160008381526020019081526020016000209050611e3b81600101805480602002602001604051908101604052809291908181526020018280548015611e3057602002820191906000526020600020905b815481526020019060010190808311611e1c575b505050505083612182565b611e7a576040517f08c379a0000000000000000000000000000000000000000000000000000000008152600401611e7190612fbd565b60405180910390fd5b6000611ed882600101805480602002602001604051908101604052809291908181526020018280548015611ecd57602002820191906000526020600020905b815481526020019060010190808311611eb9575b505050505085612210565b90506000611f3883600101805480602002602001604051908101604052809291908181526020018280548015611f2d57602002820191906000526020600020905b815481526020019060010190808311611f19575b505050505083612291565b905080836001019080519060200190611f52929190612492565b505050505050565b606060016000838152602001908152602001600020600101805480602002602001604051908101604052809291908181526020018280548015611fbc57602002820191906000526020600020905b815481526020019060010190808311611fa8575b50505050509050919050565b611fd0612565565b600660008381526020019081526020016000206040518060a0016040529081600082015481526020016001820154815260200160028201548152602001600382015481526020016004820160009054906101000a900460ff166003811115612061577f4e487b7100000000000000000000000000000000000000000000000000000000600052602160045260246000fd5b6003811115612099577f4e487b7100000000000000000000000000000000000000000000000000000000600052602160045260246000fd5b815250509050919050565b60008060056000848152602001908152602001600020600701905060005b818054905081101561217657600360003373ffffffffffffffffffffffffffffffffffffffff1673ffffffffffffffffffffffffffffffffffffffff16815260200190815260200160002054828281548110612147577f4e487b7100000000000000000000000000000000000000000000000000000000600052603260045260246000fd5b906000526020600020015414156121635760009250505061217d565b808061216e9061341d565b9150506120c2565b5060019150505b919050565b600080600090505b600184516121989190613315565b81101561220457828482815181106121d9577f4e487b7100000000000000000000000000000000000000000000000000000000600052603260045260246000fd5b602002602001015114156121f157600191505061220a565b80806121fc9061341d565b91505061218a565b50600090505b92915050565b600080600090505b8351811015612285578284828151811061225b577f4e487b7100000000000000000000000000000000000000000000000000000000600052603260045260246000fd5b60200260200101511415612272578091505061228b565b808061227d9061341d565b915050612218565b50600090505b92915050565b6060825182106122a057600080fd5b60008290505b600184516122b49190613315565b81101561236057836001826122c99190613234565b81518110612300577f4e487b7100000000000000000000000000000000000000000000000000000000600052603260045260246000fd5b6020026020010151848281518110612341577f4e487b7100000000000000000000000000000000000000000000000000000000600052603260045260246000fd5b60200260200101818152505080806123589061341d565b9150506122a6565b5082600184516123709190613315565b815181106123a7577f4e487b7100000000000000000000000000000000000000000000000000000000600052603260045260246000fd5b60200260200101600081525082905092915050565b604051806101000160405280600081526020016000815260200160008152602001606081526020016000815260200160006003811115612425577f4e487b7100000000000000000000000000000000000000000000000000000000600052602160045260246000fd5b815260200160008152602001606081525090565b6040518061014001604052806000815260200160608152602001606081526020016124626125cc565b81526020016060815260200160008152602001600081526020016060815260200160608152602001600081525090565b8280548282559060005260206000209081019282156124ce579160200282015b828111156124cd5782518255916020019190600101906124b2565b5b5090506124db91906125fb565b5090565b8280546124eb906133ba565b90600052602060002090601f01602090048101928261250d5760008555612554565b82601f1061252657805160ff1916838001178555612554565b82800160010185558215612554579182015b82811115612553578251825591602001919060010190612538565b5b50905061256191906125fb565b5090565b6040518060a0016040528060008152602001600081526020016000815260200160008152602001600060038111156125c6577f4e487b7100000000000000000000000000000000000000000000000000000000600052602160045260246000fd5b81525090565b6040518060a0016040528060608152602001606081526020016060815260200160608152602001606081525090565b5b808211156126145760008160009055506001016125fc565b5090565b600061262b61262684613160565b61313b565b9050808382526020820190508285602086028201111561264a57600080fd5b60005b8581101561267a5781612660888261282b565b84526020840193506020830192505060018101905061264d565b5050509392505050565b60006126976126928461318c565b61313b565b9050828152602081018484840111156126af57600080fd5b6126ba848285613378565b509392505050565b600082601f8301126126d357600080fd5b81356126e3848260208601612618565b91505092915050565b6000813590506126fb81613669565b92915050565b600082601f83011261271257600080fd5b8135612722848260208601612684565b91505092915050565b600060a0828403121561273d57600080fd5b61274760a061313b565b9050600082013567ffffffffffffffff81111561276357600080fd5b61276f84828501612701565b600083015250602082013567ffffffffffffffff81111561278f57600080fd5b61279b84828501612701565b602083015250604082013567ffffffffffffffff8111156127bb57600080fd5b6127c784828501612701565b604083015250606082013567ffffffffffffffff8111156127e757600080fd5b6127f384828501612701565b606083015250608082013567ffffffffffffffff81111561281357600080fd5b61281f84828501612701565b60808301525092915050565b60008135905061283a81613679565b92915050565b60008060008060008060c0878903121561285957600080fd5b600087013567ffffffffffffffff81111561287357600080fd5b61287f89828a016126c2565b965050602061289089828a0161282b565b955050604087013567ffffffffffffffff8111156128ad57600080fd5b6128b989828a01612701565b945050606087013567ffffffffffffffff8111156128d657600080fd5b6128e289828a0161272b565b935050608087013567ffffffffffffffff8111156128ff57600080fd5b61290b89828a01612701565b92505060a061291c89828a0161282b565b9150509295509295509295565b60006020828403121561293b57600080fd5b60006129498482850161282b565b91505092915050565b6000806040838503121561296557600080fd5b60006129738582860161282b565b9250506020612984858286016126ec565b9150509250929050565b600080604083850312156129a157600080fd5b60006129af8582860161282b565b92505060206129c08582860161282b565b9150509250929050565b6000806000606084860312156129df57600080fd5b60006129ed8682870161282b565b93505060206129fe8682870161282b565b9250506040612a0f8682870161282b565b9150509250925092565b6000612a258383612f5d565b60208301905092915050565b6000612a3c826131cd565b612a4681856131f0565b9350612a51836131bd565b8060005b83811015612a82578151612a698882612a19565b9750612a74836131e3565b925050600181019050612a55565b5085935050505092915050565b6000612a9a826131cd565b612aa48185613201565b9350612aaf836131bd565b8060005b83811015612ae0578151612ac78882612a19565b9750612ad2836131e3565b925050600181019050612ab3565b5085935050505092915050565b612af681613366565b82525050565b6000612b07826131d8565b612b118185613212565b9350612b21818560208601613387565b612b2a81613551565b840191505092915050565b6000612b40826131d8565b612b4a8185613223565b9350612b5a818560208601613387565b612b6381613551565b840191505092915050565b6000612b7b601a83613223565b9150612b8682613562565b602082019050919050565b6000612b9e602583613223565b9150612ba98261358b565b604082019050919050565b6000612bc1601283613223565b9150612bcc826135da565b602082019050919050565b6000612be4601283613223565b9150612bef82613603565b602082019050919050565b6000612c07601383613223565b9150612c128261362c565b602082019050919050565b600060a0830160008301518482036000860152612c3a8282612afc565b91505060208301518482036020860152612c548282612afc565b91505060408301518482036040860152612c6e8282612afc565b91505060608301518482036060860152612c888282612afc565b91505060808301518482036080860152612ca28282612afc565b9150508091505092915050565b600060a0830160008301518482036000860152612ccc8282612afc565b91505060208301518482036020860152612ce68282612afc565b91505060408301518482036040860152612d008282612afc565b91505060608301518482036060860152612d1a8282612afc565b91505060808301518482036080860152612d348282612afc565b9150508091505092915050565b60a082016000820151612d576000850182612f5d565b506020820151612d6a6020850182612f5d565b506040820151612d7d6040850182612f5d565b506060820151612d906060850182612f5d565b506080820151612da36080850182612aed565b50505050565b600061014083016000830151612dc26000860182612f5d565b5060208301518482036020860152612dda8282612a31565b91505060408301518482036040860152612df48282612afc565b91505060608301518482036060860152612e0e8282612c1d565b91505060808301518482036080860152612e288282612afc565b91505060a0830151612e3d60a0860182612f5d565b5060c0830151612e5060c0860182612f5d565b5060e083015184820360e0860152612e688282612a31565b915050610100830151848203610100860152612e848282612a31565b915050610120830151612e9b610120860182612f5d565b508091505092915050565b600061010083016000830151612ebf6000860182612f5d565b506020830151612ed26020860182612f5d565b506040830151612ee56040860182612f5d565b5060608301518482036060860152612efd8282612afc565b9150506080830151612f126080860182612f5d565b5060a0830151612f2560a0860182612aed565b5060c0830151612f3860c0860182612f5d565b5060e083015184820360e0860152612f508282612a31565b9150508091505092915050565b612f668161335c565b82525050565b612f758161335c565b82525050565b60006020820190508181036000830152612f958184612a8f565b905092915050565b60006020820190508181036000830152612fb681612b6e565b9050919050565b60006020820190508181036000830152612fd681612b91565b9050919050565b60006020820190508181036000830152612ff681612bb4565b9050919050565b6000602082019050818103600083015261301681612bd7565b9050919050565b6000602082019050818103600083015261303681612bfa565b9050919050565b600060a0820190506130526000830184612d41565b92915050565b600060208201905081810360008301526130728184612da9565b905092915050565b600060208201905081810360008301526130948184612ea6565b905092915050565b60006020820190506130b16000830184612f6c565b92915050565b600060e0820190506130cc600083018a612f6c565b81810360208301526130de8189612b35565b905081810360408301526130f28188612caf565b905081810360608301526131068187612b35565b90506131156080830186612f6c565b61312260a0830185612f6c565b61312f60c0830184612f6c565b98975050505050505050565b6000613145613156565b905061315182826133ec565b919050565b6000604051905090565b600067ffffffffffffffff82111561317b5761317a613522565b5b602082029050602081019050919050565b600067ffffffffffffffff8211156131a7576131a6613522565b5b6131b082613551565b9050602081019050919050565b6000819050602082019050919050565b600081519050919050565b600081519050919050565b6000602082019050919050565b600082825260208201905092915050565b600082825260208201905092915050565b600082825260208201905092915050565b600082825260208201905092915050565b600061323f8261335c565b915061324a8361335c565b9250827fffffffffffffffffffffffffffffffffffffffffffffffffffffffffffffffff0382111561327f5761327e613466565b5b828201905092915050565b60006132958261335c565b91506132a08361335c565b9250826132b0576132af613495565b5b828204905092915050565b60006132c68261335c565b91506132d18361335c565b9250817fffffffffffffffffffffffffffffffffffffffffffffffffffffffffffffffff048311821515161561330a57613309613466565b5b828202905092915050565b60006133208261335c565b915061332b8361335c565b92508282101561333e5761333d613466565b5b828203905092915050565b600081905061335782613655565b919050565b6000819050919050565b600061337182613349565b9050919050565b82818337600083830152505050565b60005b838110156133a557808201518184015260208101905061338a565b838111156133b4576000848401525b50505050565b600060028204905060018216806133d257607f821691505b602082108114156133e6576133e56134f3565b5b50919050565b6133f582613551565b810181811067ffffffffffffffff8211171561341457613413613522565b5b80604052505050565b60006134288261335c565b91507fffffffffffffffffffffffffffffffffffffffffffffffffffffffffffffffff82141561345b5761345a613466565b5b600182019050919050565b7f4e487b7100000000000000000000000000000000000000000000000000000000600052601160045260246000fd5b7f4e487b7100000000000000000000000000000000000000000000000000000000600052601260045260246000fd5b7f4e487b7100000000000000000000000000000000000000000000000000000000600052602160045260246000fd5b7f4e487b7100000000000000000000000000000000000000000000000000000000600052602260045260246000fd5b7f4e487b7100000000000000000000000000000000000000000000000000000000600052604160045260246000fd5b6000601f19601f8301169050919050565b7f41746c656173742037206d656d62657273207265717569726564000000000000600082015250565b7f5573657220697320616c7265616479206e6f7420612070617274206f6620746860008201527f6520534847000000000000000000000000000000000000000000000000000000602082015250565b7f5573657220616c72656164792061646465640000000000000000000000000000600082015250565b7f556e617070726f76656420726571756573740000000000000000000000000000600082015250565b7f556e617574686f72697a65642072657165737400000000000000000000000000600082015250565b60048110613666576136656134c4565b5b50565b6006811061367657600080fd5b50565b6136828161335c565b811461368d57600080fd5b5056fea26469706673582212207615bc0f899977309aca22a6a75ec442c4d45f96f66f8659c9bff7d1efa6d65764736f6c63430008040033",
  "immutableReferences": {},
  "source": "// SPDX-License-Identifier: MIT\npragma solidity ^0.8.1;\n\nimport \"./structs.sol\";\nimport \"./helpers.sol\";\nimport \"./modifiers.sol\";\n\ncontract SHG is structs, helpers, modifiers {\n    function addSHG(\n        uint256[] memory members,\n        uint256 president,\n        string memory name,\n        Location memory location,\n        string memory dateOfFormation,\n        uint256 _baseIntrest\n    ) public {\n        require(members.length >= 7, \"Atleast 7 members required\");\n        uint256 id = ++numSHGs;\n        shgs[id] = SHG(\n            id,\n            members,\n            name,\n            location,\n            dateOfFormation,\n            0,\n            0,\n            new uint256[](0),\n            new uint256[](0),\n            _baseIntrest\n        );\n        for (uint256 i = 0; i < members.length; i++) {\n            users[members[i]].userType = members[i] == president\n                ? UserType.PRESIDENT\n                : UserType.MEMBER;\n        }\n    }\n\n    function addSHGMember(uint256 userid, uint256 shg) public {\n        require(users[userid].shgid == shg, \"User already added\");\n        users[userid].shgid = shg;\n        users[userid].userType = UserType.MEMBER;\n        shgs[shg].users.push(userid);\n    }\n\n    function removeSHGMember(uint256 userid, uint256 shgid) public {\n        SHG storage shg = shgs[shgid];\n        require(\n            check(shg.users, shgid),\n            \"User is already not a part of the SHG\"\n        );\n\n        uint256 index = getIndex(shg.users, userid);\n        uint256[] memory newusers = deleteIndex(shg.users, index);\n        shg.users = newusers;\n    }\n\n    function updateMemberRole(uint256 id, UserType updatedType) public {\n        // TODO: add requires\n        users[id].userType = updatedType;\n    }\n\n    function sendGrant(uint256 _requestid) public {\n        require(\n            users[addressToUser[msg.sender]].userType == UserType.TREASURER,\n            \"Unauthorized reqest\"\n        );\n        require(\n            userRequests[_requestid].status == RequestStatus.APPROVED,\n            \"Unapproved request\"\n        );\n        UserRequest storage request = userRequests[_requestid];\n\n        request.status = RequestStatus.COMPLETED;\n\n        Loan memory newLoan = Loan({\n            loanId: ++numLoans,\n            lenderId: request.SHGId,\n            amount: request.amount,\n            lendeeId: request.userId,\n            intrest: shgs[request.SHGId].baseIntrest,\n            loanTime: request.loanTime,\n            date: block.timestamp,\n            lastEMI: 0\n        });\n\n        loans[numLoans] = newLoan;\n        shgs[request.SHGId].loansGiven.push(numLoans);\n        users[request.userId].loansTaken.push(numLoans);\n\n        require(shgs[request.SHGId].currentBalance >= request.amount);\n        payable(users[request.userId].walletAddress).transfer(request.amount);\n        shgs[request.SHGId].currentBalance -= request.amount;\n    }\n\n    function checkApproval(uint256 _requestid) internal view returns (bool) {\n        uint256[] storage approvals = userRequests[_requestid].approvals;\n\n        for (uint256 i = 0; i < approvals.length; i++) {\n            if (approvals[i] == addressToUser[msg.sender]) {\n                return false;\n            }\n        }\n\n        return true;\n    }\n\n    function approveRequest(uint256 _requestid, uint256 _shgid)\n        public\n        onlySHG(_shgid)\n    {\n        UserRequest storage request = userRequests[_requestid];\n        require(request.SHGId == _shgid);\n\n        require(checkApproval(_requestid));\n        request.approvals.push(addressToUser[msg.sender]);\n\n        if (request.approvals.length > shgs[_shgid].users.length / 2) {\n            request.status = RequestStatus.APPROVED;\n        }\n    }\n\n    function sendRequestToBank(\n        uint256 _shgid,\n        uint256 _amount,\n        uint256 _loanTime\n    ) public onlySHG(_shgid) {\n        require(users[addressToUser[msg.sender]].shgid == _shgid);\n        uint256 reqid = numSHGRequests++;\n        shgRequests[reqid] = SHGRequest(\n            reqid,\n            _shgid,\n            _amount,\n            _loanTime,\n            RequestStatus.IN_PROCESS\n        );\n        shgs[_shgid].loansTaken.push(reqid);\n    }\n\n    function shgPayEMI(\n        uint256 _shgid,\n        uint256 _loanid,\n        uint256 _amount\n    ) public onlySHG(_shgid) {\n        uint256 amount = getSHGEMI(_shgid, _loanid);\n        require(amount == _amount);\n        Loan storage loan = loans[_loanid];\n        payable(address(this)).transfer(_amount);\n        shgs[loan.lendeeId].currentBalance += _amount;\n        loan.lastEMI = block.timestamp;\n    }\n\n    // fetch functions\n    function getSHGEMI(uint256 _shgid, uint256 _loanid)\n        public\n        onlySHG(_shgid)\n        returns (uint256)\n    {\n        Loan storage loan = loans[_loanid];\n        uint256 months = ((block.timestamp - loan.lastEMI) / 24) * 60 * 60 * 30;\n\n        require(months > 0);\n        uint256 P = loan.amount;\n        uint256 r = loan.intrest;\n        uint256 t = loan.loanTime;\n        uint256 emi = (P * (1 + ((r / 100) * 12))) ^ ((12 * t) - P);\n\n        loan.amount = loan.amount - emi;\n        return emi;\n    }\n\n    function getSHG(uint256 shgid) public view returns (SHG memory) {\n        return shgs[shgid];\n    }\n\n    function getUserRequests(uint256 requestid)\n        public\n        view\n        returns (UserRequest memory)\n    {\n        return userRequests[requestid];\n    }\n\n    function getSHGRequests(uint256 requestid)\n        public\n        view\n        returns (SHGRequest memory)\n    {\n        return shgRequests[requestid];\n    }\n\n    function getSHGMembers(uint256 shgid)\n        public\n        view\n        returns (uint256[] memory)\n    {\n        return shgs[shgid].users;\n    }\n}\n",
  "sourcePath": "/home/sdas/code/yogdaan-contracts/contracts/lib/SHG.sol",
  "compiler": {
    "name": "solc",
    "version": "0.8.4+commit.c7e474f2.Emscripten.clang"
  },
  "schemaVersion": "3.4.9",
  "updatedAt": "2022-08-22T05:55:02.398Z",
  "devdoc": {
    "kind": "dev",
    "methods": {},
    "version": 1
  },
  "userdoc": {
    "kind": "user",
    "methods": {},
    "version": 1
  }
}