{
  "contractName": "SHG",
  "abi": [
    {
      "inputs": [
        {
          "internalType": "address",
          "name": "",
          "type": "address"
        }
      ],
      "name": "addressToBankid",
      "outputs": [
        {
          "internalType": "uint256",
          "name": "",
          "type": "uint256"
        }
      ],
      "stateMutability": "view",
      "type": "function"
    },
    {
      "inputs": [
        {
          "internalType": "address",
          "name": "",
          "type": "address"
        }
      ],
      "name": "addressToSHGid",
      "outputs": [
        {
          "internalType": "uint256",
          "name": "",
          "type": "uint256"
        }
      ],
      "stateMutability": "view",
      "type": "function"
    },
    {
      "inputs": [
        {
          "internalType": "address",
          "name": "",
          "type": "address"
        }
      ],
      "name": "addressToUser",
      "outputs": [
        {
          "internalType": "uint256",
          "name": "",
          "type": "uint256"
        }
      ],
      "stateMutability": "view",
      "type": "function"
    },
    {
      "inputs": [
        {
          "internalType": "uint256",
          "name": "",
          "type": "uint256"
        }
      ],
      "name": "banks",
      "outputs": [
        {
          "internalType": "uint256",
          "name": "id",
          "type": "uint256"
        },
        {
          "internalType": "string",
          "name": "name",
          "type": "string"
        },
        {
          "internalType": "address",
          "name": "walletAddress",
          "type": "address"
        },
        {
          "internalType": "string",
          "name": "code",
          "type": "string"
        },
        {
          "internalType": "uint256",
          "name": "intrestRate",
          "type": "uint256"
        }
      ],
      "stateMutability": "view",
      "type": "function"
    },
    {
      "inputs": [
        {
          "internalType": "uint256",
          "name": "",
          "type": "uint256"
        }
      ],
      "name": "loans",
      "outputs": [
        {
          "internalType": "uint256",
          "name": "loanId",
          "type": "uint256"
        },
        {
          "internalType": "uint256",
          "name": "lenderId",
          "type": "uint256"
        },
        {
          "internalType": "uint256",
          "name": "amount",
          "type": "uint256"
        },
        {
          "internalType": "uint256",
          "name": "lendeeId",
          "type": "uint256"
        },
        {
          "internalType": "uint256",
          "name": "intrest",
          "type": "uint256"
        },
        {
          "internalType": "uint256",
          "name": "loanTime",
          "type": "uint256"
        },
        {
          "internalType": "uint256",
          "name": "date",
          "type": "uint256"
        },
        {
          "internalType": "uint256",
          "name": "lastEMI",
          "type": "uint256"
        }
      ],
      "stateMutability": "view",
      "type": "function"
    },
    {
      "inputs": [
        {
          "internalType": "uint256",
          "name": "",
          "type": "uint256"
        }
      ],
      "name": "shgRequests",
      "outputs": [
        {
          "internalType": "uint256",
          "name": "requestid",
          "type": "uint256"
        },
        {
          "internalType": "uint256",
          "name": "shgid",
          "type": "uint256"
        },
        {
          "internalType": "uint256",
          "name": "amount",
          "type": "uint256"
        },
        {
          "internalType": "uint256",
          "name": "loanTime",
          "type": "uint256"
        },
        {
          "internalType": "enum structs.RequestStatus",
          "name": "status",
          "type": "uint8"
        }
      ],
      "stateMutability": "view",
      "type": "function"
    },
    {
      "inputs": [
        {
          "internalType": "uint256",
          "name": "",
          "type": "uint256"
        }
      ],
      "name": "shgs",
      "outputs": [
        {
          "internalType": "uint256",
          "name": "id",
          "type": "uint256"
        },
        {
          "internalType": "string",
          "name": "name",
          "type": "string"
        },
        {
          "components": [
            {
              "internalType": "string",
              "name": "state",
              "type": "string"
            },
            {
              "internalType": "string",
              "name": "district",
              "type": "string"
            },
            {
              "internalType": "string",
              "name": "blockName",
              "type": "string"
            },
            {
              "internalType": "string",
              "name": "panchyatName",
              "type": "string"
            },
            {
              "internalType": "string",
              "name": "villageName",
              "type": "string"
            }
          ],
          "internalType": "struct structs.Location",
          "name": "location",
          "type": "tuple"
        },
        {
          "internalType": "string",
          "name": "dateOfFormation",
          "type": "string"
        },
        {
          "internalType": "uint256",
          "name": "currentBalance",
          "type": "uint256"
        },
        {
          "internalType": "uint256",
          "name": "owedBalance",
          "type": "uint256"
        },
        {
          "internalType": "uint256",
          "name": "baseIntrest",
          "type": "uint256"
        }
      ],
      "stateMutability": "view",
      "type": "function"
    },
    {
      "inputs": [
        {
          "internalType": "uint256",
          "name": "",
          "type": "uint256"
        }
      ],
      "name": "userRequests",
      "outputs": [
        {
          "internalType": "uint256",
          "name": "requestId",
          "type": "uint256"
        },
        {
          "internalType": "uint256",
          "name": "userId",
          "type": "uint256"
        },
        {
          "internalType": "uint256",
          "name": "amount",
          "type": "uint256"
        },
        {
          "internalType": "string",
          "name": "description",
          "type": "string"
        },
        {
          "internalType": "uint256",
          "name": "SHGId",
          "type": "uint256"
        },
        {
          "internalType": "enum structs.RequestStatus",
          "name": "status",
          "type": "uint8"
        },
        {
          "internalType": "uint256",
          "name": "loanTime",
          "type": "uint256"
        }
      ],
      "stateMutability": "view",
      "type": "function"
    },
    {
      "inputs": [
        {
          "internalType": "uint256",
          "name": "",
          "type": "uint256"
        }
      ],
      "name": "users",
      "outputs": [
        {
          "internalType": "uint256",
          "name": "id",
          "type": "uint256"
        },
        {
          "internalType": "string",
          "name": "name",
          "type": "string"
        },
        {
          "internalType": "string",
          "name": "aadhar",
          "type": "string"
        },
        {
          "internalType": "uint256",
          "name": "mobno",
          "type": "uint256"
        },
        {
          "internalType": "string",
          "name": "fatherName",
          "type": "string"
        },
        {
          "internalType": "address",
          "name": "walletAddress",
          "type": "address"
        },
        {
          "internalType": "uint256",
          "name": "amountTaken",
          "type": "uint256"
        },
        {
          "internalType": "uint256",
          "name": "shgid",
          "type": "uint256"
        },
        {
          "internalType": "enum structs.UserType",
          "name": "userType",
          "type": "uint8"
        },
        {
          "internalType": "enum structs.Gender",
          "name": "gender",
          "type": "uint8"
        },
        {
          "components": [
            {
              "internalType": "string",
              "name": "state",
              "type": "string"
            },
            {
              "internalType": "string",
              "name": "district",
              "type": "string"
            },
            {
              "internalType": "string",
              "name": "blockName",
              "type": "string"
            },
            {
              "internalType": "string",
              "name": "panchyatName",
              "type": "string"
            },
            {
              "internalType": "string",
              "name": "villageName",
              "type": "string"
            }
          ],
          "internalType": "struct structs.Location",
          "name": "location",
          "type": "tuple"
        }
      ],
      "stateMutability": "view",
      "type": "function"
    },
    {
      "inputs": [
        {
          "internalType": "uint256[]",
          "name": "members",
          "type": "uint256[]"
        },
        {
          "internalType": "uint256",
          "name": "president",
          "type": "uint256"
        },
        {
          "internalType": "string",
          "name": "name",
          "type": "string"
        },
        {
          "components": [
            {
              "internalType": "string",
              "name": "state",
              "type": "string"
            },
            {
              "internalType": "string",
              "name": "district",
              "type": "string"
            },
            {
              "internalType": "string",
              "name": "blockName",
              "type": "string"
            },
            {
              "internalType": "string",
              "name": "panchyatName",
              "type": "string"
            },
            {
              "internalType": "string",
              "name": "villageName",
              "type": "string"
            }
          ],
          "internalType": "struct structs.Location",
          "name": "location",
          "type": "tuple"
        },
        {
          "internalType": "string",
          "name": "dateOfFormation",
          "type": "string"
        },
        {
          "internalType": "uint256",
          "name": "_baseIntrest",
          "type": "uint256"
        }
      ],
      "name": "addSHG",
      "outputs": [],
      "stateMutability": "nonpayable",
      "type": "function"
    },
    {
      "inputs": [
        {
          "internalType": "uint256",
          "name": "userid",
          "type": "uint256"
        },
        {
          "internalType": "uint256",
          "name": "shg",
          "type": "uint256"
        }
      ],
      "name": "addSHGMember",
      "outputs": [],
      "stateMutability": "nonpayable",
      "type": "function"
    },
    {
      "inputs": [
        {
          "internalType": "uint256",
          "name": "userid",
          "type": "uint256"
        },
        {
          "internalType": "uint256",
          "name": "shgid",
          "type": "uint256"
        }
      ],
      "name": "removeSHGMember",
      "outputs": [],
      "stateMutability": "nonpayable",
      "type": "function"
    },
    {
      "inputs": [
        {
          "internalType": "uint256",
          "name": "id",
          "type": "uint256"
        },
        {
          "internalType": "enum structs.UserType",
          "name": "updatedType",
          "type": "uint8"
        }
      ],
      "name": "updateMemberRole",
      "outputs": [],
      "stateMutability": "nonpayable",
      "type": "function"
    },
    {
      "inputs": [
        {
          "internalType": "uint256",
          "name": "_requestid",
          "type": "uint256"
        }
      ],
      "name": "sendGrant",
      "outputs": [],
      "stateMutability": "nonpayable",
      "type": "function"
    },
    {
      "inputs": [
        {
          "internalType": "uint256",
          "name": "_requestid",
          "type": "uint256"
        },
        {
          "internalType": "uint256",
          "name": "_shgid",
          "type": "uint256"
        }
      ],
      "name": "approveRequest",
      "outputs": [],
      "stateMutability": "nonpayable",
      "type": "function"
    },
    {
      "inputs": [
        {
          "internalType": "uint256",
          "name": "_shgid",
          "type": "uint256"
        },
        {
          "internalType": "uint256",
          "name": "_amount",
          "type": "uint256"
        },
        {
          "internalType": "uint256",
          "name": "_loanTime",
          "type": "uint256"
        }
      ],
      "name": "sendRequestToBank",
      "outputs": [],
      "stateMutability": "nonpayable",
      "type": "function"
    },
    {
      "inputs": [
        {
          "internalType": "uint256",
          "name": "_shgid",
          "type": "uint256"
        },
        {
          "internalType": "uint256",
          "name": "_loanid",
          "type": "uint256"
        },
        {
          "internalType": "uint256",
          "name": "_amount",
          "type": "uint256"
        }
      ],
      "name": "shgPayEMI",
      "outputs": [],
      "stateMutability": "nonpayable",
      "type": "function"
    },
    {
      "inputs": [
        {
          "internalType": "uint256",
          "name": "_shgid",
          "type": "uint256"
        },
        {
          "internalType": "uint256",
          "name": "_loanid",
          "type": "uint256"
        }
      ],
      "name": "getSHGEMI",
      "outputs": [
        {
          "internalType": "uint256",
          "name": "",
          "type": "uint256"
        }
      ],
      "stateMutability": "nonpayable",
      "type": "function"
    },
    {
      "inputs": [
        {
          "internalType": "uint256",
          "name": "shgid",
          "type": "uint256"
        }
      ],
      "name": "getSHG",
      "outputs": [
        {
          "components": [
            {
              "internalType": "uint256",
              "name": "id",
              "type": "uint256"
            },
            {
              "internalType": "uint256[]",
              "name": "users",
              "type": "uint256[]"
            },
            {
              "internalType": "string",
              "name": "name",
              "type": "string"
            },
            {
              "components": [
                {
                  "internalType": "string",
                  "name": "state",
                  "type": "string"
                },
                {
                  "internalType": "string",
                  "name": "district",
                  "type": "string"
                },
                {
                  "internalType": "string",
                  "name": "blockName",
                  "type": "string"
                },
                {
                  "internalType": "string",
                  "name": "panchyatName",
                  "type": "string"
                },
                {
                  "internalType": "string",
                  "name": "villageName",
                  "type": "string"
                }
              ],
              "internalType": "struct structs.Location",
              "name": "location",
              "type": "tuple"
            },
            {
              "internalType": "string",
              "name": "dateOfFormation",
              "type": "string"
            },
            {
              "internalType": "uint256",
              "name": "currentBalance",
              "type": "uint256"
            },
            {
              "internalType": "uint256",
              "name": "owedBalance",
              "type": "uint256"
            },
            {
              "internalType": "uint256[]",
              "name": "loansGiven",
              "type": "uint256[]"
            },
            {
              "internalType": "uint256[]",
              "name": "loansTaken",
              "type": "uint256[]"
            },
            {
              "internalType": "uint256",
              "name": "baseIntrest",
              "type": "uint256"
            }
          ],
          "internalType": "struct structs.SHG",
          "name": "",
          "type": "tuple"
        }
      ],
      "stateMutability": "view",
      "type": "function"
    },
    {
      "inputs": [
        {
          "internalType": "uint256",
          "name": "requestid",
          "type": "uint256"
        }
      ],
      "name": "getUserRequests",
      "outputs": [
        {
          "components": [
            {
              "internalType": "uint256",
              "name": "requestId",
              "type": "uint256"
            },
            {
              "internalType": "uint256",
              "name": "userId",
              "type": "uint256"
            },
            {
              "internalType": "uint256",
              "name": "amount",
              "type": "uint256"
            },
            {
              "internalType": "string",
              "name": "description",
              "type": "string"
            },
            {
              "internalType": "uint256",
              "name": "SHGId",
              "type": "uint256"
            },
            {
              "internalType": "enum structs.RequestStatus",
              "name": "status",
              "type": "uint8"
            },
            {
              "internalType": "uint256",
              "name": "loanTime",
              "type": "uint256"
            },
            {
              "internalType": "uint256[]",
              "name": "approvals",
              "type": "uint256[]"
            }
          ],
          "internalType": "struct structs.UserRequest",
          "name": "",
          "type": "tuple"
        }
      ],
      "stateMutability": "view",
      "type": "function"
    },
    {
      "inputs": [
        {
          "internalType": "uint256",
          "name": "requestid",
          "type": "uint256"
        }
      ],
      "name": "getSHGRequests",
      "outputs": [
        {
          "components": [
            {
              "internalType": "uint256",
              "name": "requestid",
              "type": "uint256"
            },
            {
              "internalType": "uint256",
              "name": "shgid",
              "type": "uint256"
            },
            {
              "internalType": "uint256",
              "name": "amount",
              "type": "uint256"
            },
            {
              "internalType": "uint256",
              "name": "loanTime",
              "type": "uint256"
            },
            {
              "internalType": "enum structs.RequestStatus",
              "name": "status",
              "type": "uint8"
            }
          ],
          "internalType": "struct structs.SHGRequest",
          "name": "",
          "type": "tuple"
        }
      ],
      "stateMutability": "view",
      "type": "function"
    },
    {
      "inputs": [
        {
          "internalType": "uint256",
          "name": "shgid",
          "type": "uint256"
        }
      ],
      "name": "getSHGMembers",
      "outputs": [
        {
          "internalType": "uint256[]",
          "name": "",
          "type": "uint256[]"
        }
      ],
      "stateMutability": "view",
      "type": "function"
    }
  ],
  "bytecode": "0x608060405234801561001057600080fd5b5061455b806100206000396000f3fe608060405234801561001057600080fd5b50600436106101415760003560e01c8063769d0e16116100b8578063a29231fe1161007c578063a29231fe146103ec578063a6e90a5814610408578063af08a94f14610424578063d3f86fb814610454578063e1ec3c6814610484578063edf53886146104bb57610141565b8063769d0e161461031e5780637d550bb31461034e5780637fa70fe21461036a578063941696561461039a5780639bbc9ab1146103d057610141565b8063365b98b21161010a578063365b98b21461021c57806339d8bed1146102565780633ae0058f146102725780633b0ed213146102a25780634f269c92146102d257806361c91b70146102ee57610141565b806285ae2b14610146578063021af3971461017a578063257a170b1461019657806326271cf2146101ca5780632c0a90a914610200575b600080fd5b610160600480360381019061015b9190613458565b6104eb565b604051610171959493929190613c22565b60405180910390f35b610194600480360381019061018f91906134f9565b610651565b005b6101b060048036038101906101ab9190613458565b610828565b6040516101c1959493929190613e44565b60405180910390f35b6101e460048036038101906101df9190613458565b61086b565b6040516101f79796959493929190613d4a565b60405180910390f35b61021a600480360381019061021591906134bd565b610ca1565b005b61023660048036038101906102319190613458565b610df7565b60405161024d9b9a99989796959493929190613c83565b60405180910390f35b610270600480360381019061026b91906134bd565b611307565b005b61028c60048036038101906102879190613346565b61141d565b6040516102999190613c07565b60405180910390f35b6102bc60048036038101906102b79190613458565b611435565b6040516102c99190613be5565b60405180910390f35b6102ec60048036038101906102e79190613481565b611606565b005b61030860048036038101906103039190613346565b61166d565b6040516103159190613c07565b60405180910390f35b610338600480360381019061033391906134bd565b611685565b6040516103459190613c07565b60405180910390f35b610368600480360381019061036391906134f9565b6117a3565b005b610384600480360381019061037f9190613458565b611882565b6040516103919190613bc3565b60405180910390f35b6103b460048036038101906103af9190613458565b611df2565b6040516103c79796959493929190613dce565b60405180910390f35b6103ea60048036038101906103e59190613458565b611ec9565b005b6104066004803603810190610401919061336f565b612371565b005b610422600480360381019061041d91906134bd565b612859565b005b61043e60048036038101906104399190613458565b6129eb565b60405161044b9190613ae6565b60405180910390f35b61046e60048036038101906104699190613458565b612a59565b60405161047b9190613ba8565b60405180910390f35b61049e60048036038101906104999190613458565b612b35565b6040516104b2989796959493929190613e97565b60405180910390f35b6104d560048036038101906104d09190613346565b612b7d565b6040516104e29190613c07565b60405180910390f35b600260205280600052604060002060009150905080600001549080600101805461051490614210565b80601f016020809104026020016040519081016040528092919081815260200182805461054090614210565b801561058d5780601f106105625761010080835404028352916020019161058d565b820191906000526020600020905b81548152906001019060200180831161057057829003601f168201915b5050505050908060020160009054906101000a900473ffffffffffffffffffffffffffffffffffffffff16908060030180546105c890614210565b80601f01602080910402602001604051908101604052809291908181526020018280546105f490614210565b80156106415780601f1061061657610100808354040283529160200191610641565b820191906000526020600020905b81548152906001019060200180831161062457829003601f168201915b5050505050908060040154905085565b8260006001600083815260200190815260200160002060000154141561067657600080fd5b83600080600360003373ffffffffffffffffffffffffffffffffffffffff1673ffffffffffffffffffffffffffffffffffffffff16815260200190815260200160002054815260200190815260200160002060080154146106d657600080fd5b6000600c60008154809291906106eb90614273565b9190505590506040518060a0016040528082815260200186815260200185815260200184815260200160038081111561074d577f4e487b7100000000000000000000000000000000000000000000000000000000600052602160045260246000fd5b815250600660008381526020019081526020016000206000820151816000015560208201518160010155604082015181600201556060820151816003015560808201518160040160006101000a81548160ff021916908360038111156107dc577f4e487b7100000000000000000000000000000000000000000000000000000000600052602160045260246000fd5b021790555090505060016000868152602001908152602001600020600c018190806001815401808255809150506001900390600052602060002001600090919091909150555050505050565b60066020528060005260406000206000915090508060000154908060010154908060020154908060030154908060040160009054906101000a900460ff16905085565b600160205280600052604060002060009150905080600001549080600201805461089490614210565b80601f01602080910402602001604051908101604052809291908181526020018280546108c090614210565b801561090d5780601f106108e25761010080835404028352916020019161090d565b820191906000526020600020905b8154815290600101906020018083116108f057829003601f168201915b505050505090806003016040518060a001604052908160008201805461093290614210565b80601f016020809104026020016040519081016040528092919081815260200182805461095e90614210565b80156109ab5780601f10610980576101008083540402835291602001916109ab565b820191906000526020600020905b81548152906001019060200180831161098e57829003601f168201915b505050505081526020016001820180546109c490614210565b80601f01602080910402602001604051908101604052809291908181526020018280546109f090614210565b8015610a3d5780601f10610a1257610100808354040283529160200191610a3d565b820191906000526020600020905b815481529060010190602001808311610a2057829003601f168201915b50505050508152602001600282018054610a5690614210565b80601f0160208091040260200160405190810160405280929190818152602001828054610a8290614210565b8015610acf5780601f10610aa457610100808354040283529160200191610acf565b820191906000526020600020905b815481529060010190602001808311610ab257829003601f168201915b50505050508152602001600382018054610ae890614210565b80601f0160208091040260200160405190810160405280929190818152602001828054610b1490614210565b8015610b615780601f10610b3657610100808354040283529160200191610b61565b820191906000526020600020905b815481529060010190602001808311610b4457829003601f168201915b50505050508152602001600482018054610b7a90614210565b80601f0160208091040260200160405190810160405280929190818152602001828054610ba690614210565b8015610bf35780601f10610bc857610100808354040283529160200191610bf3565b820191906000526020600020905b815481529060010190602001808311610bd657829003601f168201915b50505050508152505090806008018054610c0c90614210565b80601f0160208091040260200160405190810160405280929190818152602001828054610c3890614210565b8015610c855780601f10610c5a57610100808354040283529160200191610c85565b820191906000526020600020905b815481529060010190602001808311610c6857829003601f168201915b50505050509080600901549080600a01549080600d0154905087565b80600060016000838152602001908152602001600020600001541415610cc657600080fd5b600060056000858152602001908152602001600020905082816004015414610ced57600080fd5b610cf684612b95565b610cff57600080fd5b80600701600360003373ffffffffffffffffffffffffffffffffffffffff1673ffffffffffffffffffffffffffffffffffffffff16815260200190815260200160002054908060018154018082558091505060019003906000526020600020016000909190919091505560026001600085815260200190815260200160002060010180549050610d8f9190614064565b81600701805490501115610df15760008160050160006101000a81548160ff02191690836003811115610deb577f4e487b7100000000000000000000000000000000000000000000000000000000600052602160045260246000fd5b02179055505b50505050565b6000602052806000526040600020600091509050806000015490806001018054610e2090614210565b80601f0160208091040260200160405190810160405280929190818152602001828054610e4c90614210565b8015610e995780601f10610e6e57610100808354040283529160200191610e99565b820191906000526020600020905b815481529060010190602001808311610e7c57829003601f168201915b505050505090806002018054610eae90614210565b80601f0160208091040260200160405190810160405280929190818152602001828054610eda90614210565b8015610f275780601f10610efc57610100808354040283529160200191610f27565b820191906000526020600020905b815481529060010190602001808311610f0a57829003601f168201915b505050505090806003015490806004018054610f4290614210565b80601f0160208091040260200160405190810160405280929190818152602001828054610f6e90614210565b8015610fbb5780601f10610f9057610100808354040283529160200191610fbb565b820191906000526020600020905b815481529060010190602001808311610f9e57829003601f168201915b5050505050908060050160009054906101000a900473ffffffffffffffffffffffffffffffffffffffff16908060070154908060080154908060090160009054906101000a900460ff16908060090160019054906101000a900460ff169080600a016040518060a001604052908160008201805461103890614210565b80601f016020809104026020016040519081016040528092919081815260200182805461106490614210565b80156110b15780601f10611086576101008083540402835291602001916110b1565b820191906000526020600020905b81548152906001019060200180831161109457829003601f168201915b505050505081526020016001820180546110ca90614210565b80601f01602080910402602001604051908101604052809291908181526020018280546110f690614210565b80156111435780601f1061111857610100808354040283529160200191611143565b820191906000526020600020905b81548152906001019060200180831161112657829003601f168201915b5050505050815260200160028201805461115c90614210565b80601f016020809104026020016040519081016040528092919081815260200182805461118890614210565b80156111d55780601f106111aa576101008083540402835291602001916111d5565b820191906000526020600020905b8154815290600101906020018083116111b857829003601f168201915b505050505081526020016003820180546111ee90614210565b80601f016020809104026020016040519081016040528092919081815260200182805461121a90614210565b80156112675780601f1061123c57610100808354040283529160200191611267565b820191906000526020600020905b81548152906001019060200180831161124a57829003601f168201915b5050505050815260200160048201805461128090614210565b80601f01602080910402602001604051908101604052809291908181526020018280546112ac90614210565b80156112f95780601f106112ce576101008083540402835291602001916112f9565b820191906000526020600020905b8154815290600101906020018083116112dc57829003601f168201915b50505050508152505090508b565b80600080848152602001908152602001600020600801541461135e576040517f08c379a000000000000000000000000000000000000000000000000000000000815260040161135590613b48565b60405180910390fd5b8060008084815260200190815260200160002060080181905550600360008084815260200190815260200160002060090160006101000a81548160ff021916908360058111156113d7577f4e487b7100000000000000000000000000000000000000000000000000000000600052602160045260246000fd5b0217905550600160008281526020019081526020016000206001018290806001815401808255809150506001900390600052602060002001600090919091909150555050565b60076020528060005260406000206000915090505481565b61143d612ead565b600560008381526020019081526020016000206040518061010001604052908160008201548152602001600182015481526020016002820154815260200160038201805461148a90614210565b80601f01602080910402602001604051908101604052809291908181526020018280546114b690614210565b80156115035780601f106114d857610100808354040283529160200191611503565b820191906000526020600020905b8154815290600101906020018083116114e657829003601f168201915b50505050508152602001600482015481526020016005820160009054906101000a900460ff166003811115611561577f4e487b7100000000000000000000000000000000000000000000000000000000600052602160045260246000fd5b6003811115611599577f4e487b7100000000000000000000000000000000000000000000000000000000600052602160045260246000fd5b815260200160068201548152602001600782018054806020026020016040519081016040528092919081815260200182805480156115f657602002820191906000526020600020905b8154815260200190600101908083116115e2575b5050505050815250509050919050565b8060008084815260200190815260200160002060090160006101000a81548160ff02191690836005811115611664577f4e487b7100000000000000000000000000000000000000000000000000000000600052602160045260246000fd5b02179055505050565b60086020528060005260406000206000915090505481565b6000826000600160008381526020019081526020016000206000015414156116ac57600080fd5b60006004600085815260200190815260200160002090506000601e603c8060188560070154426116dc91906140ef565b6116e69190614064565b6116f09190614095565b6116fa9190614095565b6117049190614095565b90506000811161171357600080fd5b60008260020154905060008360040154905060008460050154905060008382600c61173e9190614095565b61174891906140ef565b600c6064856117579190614064565b6117619190614095565b600161176d919061400e565b856117789190614095565b18905080866002015461178b91906140ef565b86600201819055508097505050505050505092915050565b826000600160008381526020019081526020016000206000015414156117c857600080fd5b60006117d48585611685565b90508281146117e257600080fd5b60006004600086815260200190815260200160002090503073ffffffffffffffffffffffffffffffffffffffff166108fc859081150290604051600060405180830381858888f1935050505015801561183f573d6000803e3d6000fd5b50836001600083600301548152602001908152602001600020600901600082825461186a919061400e565b92505081905550428160070181905550505050505050565b61188a612f2a565b6001600083815260200190815260200160002060405180610140016040529081600082015481526020016001820180548060200260200160405190810160405280929190818152602001828054801561190257602002820191906000526020600020905b8154815260200190600101908083116118ee575b5050505050815260200160028201805461191b90614210565b80601f016020809104026020016040519081016040528092919081815260200182805461194790614210565b80156119945780601f1061196957610100808354040283529160200191611994565b820191906000526020600020905b81548152906001019060200180831161197757829003601f168201915b50505050508152602001600382016040518060a00160405290816000820180546119bd90614210565b80601f01602080910402602001604051908101604052809291908181526020018280546119e990614210565b8015611a365780601f10611a0b57610100808354040283529160200191611a36565b820191906000526020600020905b815481529060010190602001808311611a1957829003601f168201915b50505050508152602001600182018054611a4f90614210565b80601f0160208091040260200160405190810160405280929190818152602001828054611a7b90614210565b8015611ac85780601f10611a9d57610100808354040283529160200191611ac8565b820191906000526020600020905b815481529060010190602001808311611aab57829003601f168201915b50505050508152602001600282018054611ae190614210565b80601f0160208091040260200160405190810160405280929190818152602001828054611b0d90614210565b8015611b5a5780601f10611b2f57610100808354040283529160200191611b5a565b820191906000526020600020905b815481529060010190602001808311611b3d57829003601f168201915b50505050508152602001600382018054611b7390614210565b80601f0160208091040260200160405190810160405280929190818152602001828054611b9f90614210565b8015611bec5780601f10611bc157610100808354040283529160200191611bec565b820191906000526020600020905b815481529060010190602001808311611bcf57829003601f168201915b50505050508152602001600482018054611c0590614210565b80601f0160208091040260200160405190810160405280929190818152602001828054611c3190614210565b8015611c7e5780601f10611c5357610100808354040283529160200191611c7e565b820191906000526020600020905b815481529060010190602001808311611c6157829003601f168201915b5050505050815250508152602001600882018054611c9b90614210565b80601f0160208091040260200160405190810160405280929190818152602001828054611cc790614210565b8015611d145780601f10611ce957610100808354040283529160200191611d14565b820191906000526020600020905b815481529060010190602001808311611cf757829003601f168201915b5050505050815260200160098201548152602001600a8201548152602001600b8201805480602002602001604051908101604052809291908181526020018280548015611d8057602002820191906000526020600020905b815481526020019060010190808311611d6c575b50505050508152602001600c8201805480602002602001604051908101604052809291908181526020018280548015611dd857602002820191906000526020600020905b815481526020019060010190808311611dc4575b50505050508152602001600d820154815250509050919050565b6005602052806000526040600020600091509050806000015490806001015490806002015490806003018054611e2790614210565b80601f0160208091040260200160405190810160405280929190818152602001828054611e5390614210565b8015611ea05780601f10611e7557610100808354040283529160200191611ea0565b820191906000526020600020905b815481529060010190602001808311611e8357829003601f168201915b5050505050908060040154908060050160009054906101000a900460ff16908060060154905087565b60026005811115611f03577f4e487b7100000000000000000000000000000000000000000000000000000000600052602160045260246000fd5b600080600360003373ffffffffffffffffffffffffffffffffffffffff1673ffffffffffffffffffffffffffffffffffffffff16815260200190815260200160002054815260200190815260200160002060090160009054906101000a900460ff166005811115611f9d577f4e487b7100000000000000000000000000000000000000000000000000000000600052602160045260246000fd5b14611fdd576040517f08c379a0000000000000000000000000000000000000000000000000000000008152600401611fd490613b88565b60405180910390fd5b60006003811115612017577f4e487b7100000000000000000000000000000000000000000000000000000000600052602160045260246000fd5b6005600083815260200190815260200160002060050160009054906101000a900460ff166003811115612073577f4e487b7100000000000000000000000000000000000000000000000000000000600052602160045260246000fd5b146120b3576040517f08c379a00000000000000000000000000000000000000000000000000000000081526004016120aa90613b68565b60405180910390fd5b600060056000838152602001908152602001600020905060018160050160006101000a81548160ff02191690836003811115612118577f4e487b7100000000000000000000000000000000000000000000000000000000600052602160045260246000fd5b02179055506000604051806101000160405280600e6000815461213a90614273565b91905081905581526020018360040154815260200183600201548152602001836001015481526020016001600085600401548152602001908152602001600020600d0154815260200183600601548152602001428152602001600081525090508060046000600e548152602001908152602001600020600082015181600001556020820151816001015560408201518160020155606082015181600301556080820151816004015560a0820151816005015560c0820151816006015560e082015181600701559050506001600083600401548152602001908152602001600020600b01600e54908060018154018082558091505060019003906000526020600020016000909190919091505560008083600101548152602001908152602001600020600601600e549080600181540180825580915050600190039060005260206000200160009091909190915055816002015460016000846004015481526020019081526020016000206009015410156122b357600080fd5b6000808360010154815260200190815260200160002060050160009054906101000a900473ffffffffffffffffffffffffffffffffffffffff1673ffffffffffffffffffffffffffffffffffffffff166108fc83600201549081150290604051600060405180830381858888f19350505050158015612336573d6000803e3d6000fd5b5081600201546001600084600401548152602001908152602001600020600901600082825461236591906140ef565b92505081905550505050565b6007865110156123b6576040517f08c379a00000000000000000000000000000000000000000000000000000000081526004016123ad90613b08565b60405180910390fd5b6000600a600081546123c790614273565b91905081905590506040518061014001604052808281526020018881526020018681526020018581526020018481526020016000815260200160008152602001600067ffffffffffffffff811115612448577f4e487b7100000000000000000000000000000000000000000000000000000000600052604160045260246000fd5b6040519080825280602002602001820160405280156124765781602001602082028036833780820191505090505b508152602001600067ffffffffffffffff8111156124bd577f4e487b7100000000000000000000000000000000000000000000000000000000600052604160045260246000fd5b6040519080825280602002602001820160405280156124eb5781602001602082028036833780820191505090505b508152602001838152506001600083815260200190815260200160002060008201518160000155602082015181600101908051906020019061252e929190612f83565b50604082015181600201908051906020019061254b929190612fd0565b506060820151816003016000820151816000019080519060200190612571929190612fd0565b50602082015181600101908051906020019061258e929190612fd0565b5060408201518160020190805190602001906125ab929190612fd0565b5060608201518160030190805190602001906125c8929190612fd0565b5060808201518160040190805190602001906125e5929190612fd0565b5050506080820151816008019080519060200190612604929190612fd0565b5060a0820151816009015560c082015181600a015560e082015181600b019080519060200190612635929190612f83565b5061010082015181600c019080519060200190612653929190612f83565b5061012082015181600d015590505060005b875181101561277457868882815181106126a8577f4e487b7100000000000000000000000000000000000000000000000000000000600052603260045260246000fd5b6020026020010151146126bc5760036126bf565b60005b6000808a84815181106126fb577f4e487b7100000000000000000000000000000000000000000000000000000000600052603260045260246000fd5b6020026020010151815260200190815260200160002060090160006101000a81548160ff0219169083600581111561275c577f4e487b7100000000000000000000000000000000000000000000000000000000600052602160045260246000fd5b0217905550808061276c90614273565b915050612665565b5060005b875181101561284f57600a54600760008060008c86815181106127c4577f4e487b7100000000000000000000000000000000000000000000000000000000600052603260045260246000fd5b6020026020010151815260200190815260200160002060050160009054906101000a900473ffffffffffffffffffffffffffffffffffffffff1673ffffffffffffffffffffffffffffffffffffffff1673ffffffffffffffffffffffffffffffffffffffff16815260200190815260200160002081905550808061284790614273565b915050612778565b5050505050505050565b60006001600083815260200190815260200160002090506128cc816001018054806020026020016040519081016040528092919081815260200182805480156128c157602002820191906000526020600020905b8154815260200190600101908083116128ad575b505050505083612c73565b61290b576040517f08c379a000000000000000000000000000000000000000000000000000000000815260040161290290613b28565b60405180910390fd5b60006129698260010180548060200260200160405190810160405280929190818152602001828054801561295e57602002820191906000526020600020905b81548152602001906001019080831161294a575b505050505085612d01565b905060006129c9836001018054806020026020016040519081016040528092919081815260200182805480156129be57602002820191906000526020600020905b8154815260200190600101908083116129aa575b505050505083612d82565b9050808360010190805190602001906129e3929190612f83565b505050505050565b606060016000838152602001908152602001600020600101805480602002602001604051908101604052809291908181526020018280548015612a4d57602002820191906000526020600020905b815481526020019060010190808311612a39575b50505050509050919050565b612a61613056565b600660008381526020019081526020016000206040518060a0016040529081600082015481526020016001820154815260200160028201548152602001600382015481526020016004820160009054906101000a900460ff166003811115612af2577f4e487b7100000000000000000000000000000000000000000000000000000000600052602160045260246000fd5b6003811115612b2a577f4e487b7100000000000000000000000000000000000000000000000000000000600052602160045260246000fd5b815250509050919050565b60046020528060005260406000206000915090508060000154908060010154908060020154908060030154908060040154908060050154908060060154908060070154905088565b60036020528060005260406000206000915090505481565b60008060056000848152602001908152602001600020600701905060005b8180549050811015612c6757600360003373ffffffffffffffffffffffffffffffffffffffff1673ffffffffffffffffffffffffffffffffffffffff16815260200190815260200160002054828281548110612c38577f4e487b7100000000000000000000000000000000000000000000000000000000600052603260045260246000fd5b90600052602060002001541415612c5457600092505050612c6e565b8080612c5f90614273565b915050612bb3565b5060019150505b919050565b600080600090505b60018451612c8991906140ef565b811015612cf55782848281518110612cca577f4e487b7100000000000000000000000000000000000000000000000000000000600052603260045260246000fd5b60200260200101511415612ce2576001915050612cfb565b8080612ced90614273565b915050612c7b565b50600090505b92915050565b600080600090505b8351811015612d765782848281518110612d4c577f4e487b7100000000000000000000000000000000000000000000000000000000600052603260045260246000fd5b60200260200101511415612d635780915050612d7c565b8080612d6e90614273565b915050612d09565b50600090505b92915050565b606082518210612d9157600080fd5b60008290505b60018451612da591906140ef565b811015612e515783600182612dba919061400e565b81518110612df1577f4e487b7100000000000000000000000000000000000000000000000000000000600052603260045260246000fd5b6020026020010151848281518110612e32577f4e487b7100000000000000000000000000000000000000000000000000000000600052603260045260246000fd5b6020026020010181815250508080612e4990614273565b915050612d97565b508260018451612e6191906140ef565b81518110612e98577f4e487b7100000000000000000000000000000000000000000000000000000000600052603260045260246000fd5b60200260200101600081525082905092915050565b604051806101000160405280600081526020016000815260200160008152602001606081526020016000815260200160006003811115612f16577f4e487b7100000000000000000000000000000000000000000000000000000000600052602160045260246000fd5b815260200160008152602001606081525090565b604051806101400160405280600081526020016060815260200160608152602001612f536130bd565b81526020016060815260200160008152602001600081526020016060815260200160608152602001600081525090565b828054828255906000526020600020908101928215612fbf579160200282015b82811115612fbe578251825591602001919060010190612fa3565b5b509050612fcc91906130ec565b5090565b828054612fdc90614210565b90600052602060002090601f016020900481019282612ffe5760008555613045565b82601f1061301757805160ff1916838001178555613045565b82800160010185558215613045579182015b82811115613044578251825591602001919060010190613029565b5b50905061305291906130ec565b5090565b6040518060a0016040528060008152602001600081526020016000815260200160008152602001600060038111156130b7577f4e487b7100000000000000000000000000000000000000000000000000000000600052602160045260246000fd5b81525090565b6040518060a0016040528060608152602001606081526020016060815260200160608152602001606081525090565b5b808211156131055760008160009055506001016130ed565b5090565b600061311c61311784613f3a565b613f15565b9050808382526020820190508285602086028201111561313b57600080fd5b60005b8581101561316b57816131518882613331565b84526020840193506020830192505060018101905061313e565b5050509392505050565b600061318861318384613f66565b613f15565b9050828152602081018484840111156131a057600080fd5b6131ab8482856141ce565b509392505050565b6000813590506131c2816144e7565b92915050565b600082601f8301126131d957600080fd5b81356131e9848260208601613109565b91505092915050565b600081359050613201816144fe565b92915050565b600082601f83011261321857600080fd5b8135613228848260208601613175565b91505092915050565b600060a0828403121561324357600080fd5b61324d60a0613f15565b9050600082013567ffffffffffffffff81111561326957600080fd5b61327584828501613207565b600083015250602082013567ffffffffffffffff81111561329557600080fd5b6132a184828501613207565b602083015250604082013567ffffffffffffffff8111156132c157600080fd5b6132cd84828501613207565b604083015250606082013567ffffffffffffffff8111156132ed57600080fd5b6132f984828501613207565b606083015250608082013567ffffffffffffffff81111561331957600080fd5b61332584828501613207565b60808301525092915050565b6000813590506133408161450e565b92915050565b60006020828403121561335857600080fd5b6000613366848285016131b3565b91505092915050565b60008060008060008060c0878903121561338857600080fd5b600087013567ffffffffffffffff8111156133a257600080fd5b6133ae89828a016131c8565b96505060206133bf89828a01613331565b955050604087013567ffffffffffffffff8111156133dc57600080fd5b6133e889828a01613207565b945050606087013567ffffffffffffffff81111561340557600080fd5b61341189828a01613231565b935050608087013567ffffffffffffffff81111561342e57600080fd5b61343a89828a01613207565b92505060a061344b89828a01613331565b9150509295509295509295565b60006020828403121561346a57600080fd5b600061347884828501613331565b91505092915050565b6000806040838503121561349457600080fd5b60006134a285828601613331565b92505060206134b3858286016131f2565b9150509250929050565b600080604083850312156134d057600080fd5b60006134de85828601613331565b92505060206134ef85828601613331565b9150509250929050565b60008060006060848603121561350e57600080fd5b600061351c86828701613331565b935050602061352d86828701613331565b925050604061353e86828701613331565b9150509250925092565b60006135548383613ac8565b60208301905092915050565b61356981614123565b82525050565b600061357a82613fa7565b6135848185613fca565b935061358f83613f97565b8060005b838110156135c05781516135a78882613548565b97506135b283613fbd565b925050600181019050613593565b5085935050505092915050565b60006135d882613fa7565b6135e28185613fdb565b93506135ed83613f97565b8060005b8381101561361e5781516136058882613548565b975061361083613fbd565b9250506001810190506135f1565b5085935050505092915050565b61363481614198565b82525050565b613643816141aa565b82525050565b613652816141aa565b82525050565b613661816141bc565b82525050565b600061367282613fb2565b61367c8185613fec565b935061368c8185602086016141dd565b613695816143a7565b840191505092915050565b60006136ab82613fb2565b6136b58185613ffd565b93506136c58185602086016141dd565b6136ce816143a7565b840191505092915050565b60006136e6601a83613ffd565b91506136f1826143b8565b602082019050919050565b6000613709602583613ffd565b9150613714826143e1565b604082019050919050565b600061372c601283613ffd565b915061373782614430565b602082019050919050565b600061374f601283613ffd565b915061375a82614459565b602082019050919050565b6000613772601383613ffd565b915061377d82614482565b602082019050919050565b600060a08301600083015184820360008601526137a58282613667565b915050602083015184820360208601526137bf8282613667565b915050604083015184820360408601526137d98282613667565b915050606083015184820360608601526137f38282613667565b9150506080830151848203608086015261380d8282613667565b9150508091505092915050565b600060a08301600083015184820360008601526138378282613667565b915050602083015184820360208601526138518282613667565b9150506040830151848203604086015261386b8282613667565b915050606083015184820360608601526138858282613667565b9150506080830151848203608086015261389f8282613667565b9150508091505092915050565b60a0820160008201516138c26000850182613ac8565b5060208201516138d56020850182613ac8565b5060408201516138e86040850182613ac8565b5060608201516138fb6060850182613ac8565b50608082015161390e608085018261363a565b50505050565b60006101408301600083015161392d6000860182613ac8565b5060208301518482036020860152613945828261356f565b9150506040830151848203604086015261395f8282613667565b915050606083015184820360608601526139798282613788565b915050608083015184820360808601526139938282613667565b91505060a08301516139a860a0860182613ac8565b5060c08301516139bb60c0860182613ac8565b5060e083015184820360e08601526139d3828261356f565b9150506101008301518482036101008601526139ef828261356f565b915050610120830151613a06610120860182613ac8565b508091505092915050565b600061010083016000830151613a2a6000860182613ac8565b506020830151613a3d6020860182613ac8565b506040830151613a506040860182613ac8565b5060608301518482036060860152613a688282613667565b9150506080830151613a7d6080860182613ac8565b5060a0830151613a9060a086018261363a565b5060c0830151613aa360c0860182613ac8565b5060e083015184820360e0860152613abb828261356f565b9150508091505092915050565b613ad18161418e565b82525050565b613ae08161418e565b82525050565b60006020820190508181036000830152613b0081846135cd565b905092915050565b60006020820190508181036000830152613b21816136d9565b9050919050565b60006020820190508181036000830152613b41816136fc565b9050919050565b60006020820190508181036000830152613b618161371f565b9050919050565b60006020820190508181036000830152613b8181613742565b9050919050565b60006020820190508181036000830152613ba181613765565b9050919050565b600060a082019050613bbd60008301846138ac565b92915050565b60006020820190508181036000830152613bdd8184613914565b905092915050565b60006020820190508181036000830152613bff8184613a11565b905092915050565b6000602082019050613c1c6000830184613ad7565b92915050565b600060a082019050613c376000830188613ad7565b8181036020830152613c4981876136a0565b9050613c586040830186613560565b8181036060830152613c6a81856136a0565b9050613c796080830184613ad7565b9695505050505050565b600061016082019050613c99600083018e613ad7565b8181036020830152613cab818d6136a0565b90508181036040830152613cbf818c6136a0565b9050613cce606083018b613ad7565b8181036080830152613ce0818a6136a0565b9050613cef60a0830189613560565b613cfc60c0830188613ad7565b613d0960e0830187613ad7565b613d17610100830186613658565b613d2561012083018561362b565b818103610140830152613d38818461381a565b90509c9b505050505050505050505050565b600060e082019050613d5f600083018a613ad7565b8181036020830152613d7181896136a0565b90508181036040830152613d85818861381a565b90508181036060830152613d9981876136a0565b9050613da86080830186613ad7565b613db560a0830185613ad7565b613dc260c0830184613ad7565b98975050505050505050565b600060e082019050613de3600083018a613ad7565b613df06020830189613ad7565b613dfd6040830188613ad7565b8181036060830152613e0f81876136a0565b9050613e1e6080830186613ad7565b613e2b60a0830185613649565b613e3860c0830184613ad7565b98975050505050505050565b600060a082019050613e596000830188613ad7565b613e666020830187613ad7565b613e736040830186613ad7565b613e806060830185613ad7565b613e8d6080830184613649565b9695505050505050565b600061010082019050613ead600083018b613ad7565b613eba602083018a613ad7565b613ec76040830189613ad7565b613ed46060830188613ad7565b613ee16080830187613ad7565b613eee60a0830186613ad7565b613efb60c0830185613ad7565b613f0860e0830184613ad7565b9998505050505050505050565b6000613f1f613f30565b9050613f2b8282614242565b919050565b6000604051905090565b600067ffffffffffffffff821115613f5557613f54614378565b5b602082029050602081019050919050565b600067ffffffffffffffff821115613f8157613f80614378565b5b613f8a826143a7565b9050602081019050919050565b6000819050602082019050919050565b600081519050919050565b600081519050919050565b6000602082019050919050565b600082825260208201905092915050565b600082825260208201905092915050565b600082825260208201905092915050565b600082825260208201905092915050565b60006140198261418e565b91506140248361418e565b9250827fffffffffffffffffffffffffffffffffffffffffffffffffffffffffffffffff03821115614059576140586142bc565b5b828201905092915050565b600061406f8261418e565b915061407a8361418e565b92508261408a576140896142eb565b5b828204905092915050565b60006140a08261418e565b91506140ab8361418e565b9250817fffffffffffffffffffffffffffffffffffffffffffffffffffffffffffffffff04831182151516156140e4576140e36142bc565b5b828202905092915050565b60006140fa8261418e565b91506141058361418e565b925082821015614118576141176142bc565b5b828203905092915050565b600061412e8261416e565b9050919050565b6000819050614143826144ab565b919050565b6000819050614156826144bf565b919050565b6000819050614169826144d3565b919050565b600073ffffffffffffffffffffffffffffffffffffffff82169050919050565b6000819050919050565b60006141a382614135565b9050919050565b60006141b582614148565b9050919050565b60006141c78261415b565b9050919050565b82818337600083830152505050565b60005b838110156141fb5780820151818401526020810190506141e0565b8381111561420a576000848401525b50505050565b6000600282049050600182168061422857607f821691505b6020821081141561423c5761423b614349565b5b50919050565b61424b826143a7565b810181811067ffffffffffffffff8211171561426a57614269614378565b5b80604052505050565b600061427e8261418e565b91507fffffffffffffffffffffffffffffffffffffffffffffffffffffffffffffffff8214156142b1576142b06142bc565b5b600182019050919050565b7f4e487b7100000000000000000000000000000000000000000000000000000000600052601160045260246000fd5b7f4e487b7100000000000000000000000000000000000000000000000000000000600052601260045260246000fd5b7f4e487b7100000000000000000000000000000000000000000000000000000000600052602160045260246000fd5b7f4e487b7100000000000000000000000000000000000000000000000000000000600052602260045260246000fd5b7f4e487b7100000000000000000000000000000000000000000000000000000000600052604160045260246000fd5b6000601f19601f8301169050919050565b7f41746c656173742037206d656d62657273207265717569726564000000000000600082015250565b7f5573657220697320616c7265616479206e6f7420612070617274206f6620746860008201527f6520534847000000000000000000000000000000000000000000000000000000602082015250565b7f5573657220616c72656164792061646465640000000000000000000000000000600082015250565b7f556e617070726f76656420726571756573740000000000000000000000000000600082015250565b7f556e617574686f72697a65642072657165737400000000000000000000000000600082015250565b600381106144bc576144bb61431a565b5b50565b600481106144d0576144cf61431a565b5b50565b600681106144e4576144e361431a565b5b50565b6144f081614123565b81146144fb57600080fd5b50565b6006811061450b57600080fd5b50565b6145178161418e565b811461452257600080fd5b5056fea2646970667358221220300a15448da3afa401498d632a80378e3deb40fa3ba40bfb969b1fc92368dacf64736f6c63430008040033",
  "immutableReferences": {},
  "source": "// SPDX-License-Identifier: MIT\r\npragma solidity ^0.8.1;\r\n\r\nimport \"./structs.sol\";\r\nimport \"./helpers.sol\";\r\nimport \"./modifiers.sol\";\r\n\r\ncontract SHG is structs, helpers, modifiers {\r\n    function addSHG(\r\n        uint256[] memory members,\r\n        uint256 president,\r\n        string memory name,\r\n        Location memory location,\r\n        string memory dateOfFormation,\r\n        uint256 _baseIntrest\r\n    ) public {\r\n        require(members.length >= 7, \"Atleast 7 members required\");\r\n        uint256 id = ++numSHGs;\r\n        shgs[id] = SHG(\r\n            id,\r\n            members,\r\n            name,\r\n            location,\r\n            dateOfFormation,\r\n            0,\r\n            0,\r\n            new uint256[](0),\r\n            new uint256[](0),\r\n            _baseIntrest\r\n        );\r\n        for (uint256 i = 0; i < members.length; i++) {\r\n            users[members[i]].userType = members[i] == president\r\n                ? UserType.PRESIDENT\r\n                : UserType.MEMBER;\r\n        }\r\n\r\n        for (uint256 i = 0; i < members.length; i++) {\r\n            addressToSHGid[users[members[i]].walletAddress] = numSHGs;\r\n        }\r\n    }\r\n\r\n    function addSHGMember(uint256 userid, uint256 shg) public {\r\n        require(users[userid].shgid == shg, \"User already added\");\r\n        users[userid].shgid = shg;\r\n        users[userid].userType = UserType.MEMBER;\r\n        shgs[shg].users.push(userid);\r\n    }\r\n\r\n    function removeSHGMember(uint256 userid, uint256 shgid) public {\r\n        SHG storage shg = shgs[shgid];\r\n        require(\r\n            check(shg.users, shgid),\r\n            \"User is already not a part of the SHG\"\r\n        );\r\n\r\n        uint256 index = getIndex(shg.users, userid);\r\n        uint256[] memory newusers = deleteIndex(shg.users, index);\r\n        shg.users = newusers;\r\n    }\r\n\r\n    function updateMemberRole(uint256 id, UserType updatedType) public {\r\n        // TODO: add requires\r\n        users[id].userType = updatedType;\r\n    }\r\n\r\n    function sendGrant(uint256 _requestid) public {\r\n        require(\r\n            users[addressToUser[msg.sender]].userType == UserType.TREASURER,\r\n            \"Unauthorized reqest\"\r\n        );\r\n        require(\r\n            userRequests[_requestid].status == RequestStatus.APPROVED,\r\n            \"Unapproved request\"\r\n        );\r\n        UserRequest storage request = userRequests[_requestid];\r\n\r\n        request.status = RequestStatus.COMPLETED;\r\n\r\n        Loan memory newLoan = Loan({\r\n            loanId: ++numLoans,\r\n            lenderId: request.SHGId,\r\n            amount: request.amount,\r\n            lendeeId: request.userId,\r\n            intrest: shgs[request.SHGId].baseIntrest,\r\n            loanTime: request.loanTime,\r\n            date: block.timestamp,\r\n            lastEMI: 0\r\n        });\r\n\r\n        loans[numLoans] = newLoan;\r\n        shgs[request.SHGId].loansGiven.push(numLoans);\r\n        users[request.userId].loansTaken.push(numLoans);\r\n\r\n        require(shgs[request.SHGId].currentBalance >= request.amount);\r\n        payable(users[request.userId].walletAddress).transfer(request.amount);\r\n        shgs[request.SHGId].currentBalance -= request.amount;\r\n    }\r\n\r\n    function checkApproval(uint256 _requestid) internal view returns (bool) {\r\n        uint256[] storage approvals = userRequests[_requestid].approvals;\r\n\r\n        for (uint256 i = 0; i < approvals.length; i++) {\r\n            if (approvals[i] == addressToUser[msg.sender]) {\r\n                return false;\r\n            }\r\n        }\r\n\r\n        return true;\r\n    }\r\n\r\n    function approveRequest(uint256 _requestid, uint256 _shgid)\r\n        public\r\n        onlySHG(_shgid)\r\n    {\r\n        UserRequest storage request = userRequests[_requestid];\r\n        require(request.SHGId == _shgid);\r\n\r\n        require(checkApproval(_requestid));\r\n        request.approvals.push(addressToUser[msg.sender]);\r\n\r\n        if (request.approvals.length > shgs[_shgid].users.length / 2) {\r\n            request.status = RequestStatus.APPROVED;\r\n        }\r\n    }\r\n\r\n    function sendRequestToBank(\r\n        uint256 _shgid,\r\n        uint256 _amount,\r\n        uint256 _loanTime\r\n    ) public onlySHG(_shgid) {\r\n        require(users[addressToUser[msg.sender]].shgid == _shgid);\r\n        uint256 reqid = numSHGRequests++;\r\n        shgRequests[reqid] = SHGRequest(\r\n            reqid,\r\n            _shgid,\r\n            _amount,\r\n            _loanTime,\r\n            RequestStatus.IN_PROCESS\r\n        );\r\n        shgs[_shgid].loansTaken.push(reqid);\r\n    }\r\n\r\n    function shgPayEMI(\r\n        uint256 _shgid,\r\n        uint256 _loanid,\r\n        uint256 _amount\r\n    ) public onlySHG(_shgid) {\r\n        uint256 amount = getSHGEMI(_shgid, _loanid);\r\n        require(amount == _amount);\r\n        Loan storage loan = loans[_loanid];\r\n        payable(address(this)).transfer(_amount);\r\n        shgs[loan.lendeeId].currentBalance += _amount;\r\n        loan.lastEMI = block.timestamp;\r\n    }\r\n\r\n    // fetch functions\r\n    function getSHGEMI(uint256 _shgid, uint256 _loanid)\r\n        public\r\n        onlySHG(_shgid)\r\n        returns (uint256)\r\n    {\r\n        Loan storage loan = loans[_loanid];\r\n        uint256 months = ((block.timestamp - loan.lastEMI) / 24) * 60 * 60 * 30;\r\n\r\n        require(months > 0);\r\n        uint256 P = loan.amount;\r\n        uint256 r = loan.intrest;\r\n        uint256 t = loan.loanTime;\r\n        uint256 emi = (P * (1 + ((r / 100) * 12))) ^ ((12 * t) - P);\r\n\r\n        loan.amount = loan.amount - emi;\r\n        return emi;\r\n    }\r\n\r\n    function getSHG(uint256 shgid) public view returns (SHG memory) {\r\n        return shgs[shgid];\r\n    }\r\n\r\n    function getUserRequests(uint256 requestid)\r\n        public\r\n        view\r\n        returns (UserRequest memory)\r\n    {\r\n        return userRequests[requestid];\r\n    }\r\n\r\n    function getSHGRequests(uint256 requestid)\r\n        public\r\n        view\r\n        returns (SHGRequest memory)\r\n    {\r\n        return shgRequests[requestid];\r\n    }\r\n\r\n    function getSHGMembers(uint256 shgid)\r\n        public\r\n        view\r\n        returns (uint256[] memory)\r\n    {\r\n        return shgs[shgid].users;\r\n    }\r\n}\r\n",
  "sourcePath": "C:/Users/hardi/Desktop/yogdaan/contracts/lib/SHG.sol",
  "compiler": {
    "name": "solc",
    "version": "0.8.4+commit.c7e474f2.Emscripten.clang"
  },
  "schemaVersion": "3.4.0",
  "updatedAt": "2022-08-23T20:31:08.367Z",
  "devdoc": {
    "kind": "dev",
    "methods": {},
    "version": 1
  },
  "userdoc": {
    "kind": "user",
    "methods": {},
    "version": 1
  }
}