{
  "contractName": "User",
  "abi": [
    {
      "inputs": [
        {
          "internalType": "address",
          "name": "",
          "type": "address"
        }
      ],
      "name": "addressToBankid",
      "outputs": [
        {
          "internalType": "uint256",
          "name": "",
          "type": "uint256"
        }
      ],
      "stateMutability": "view",
      "type": "function"
    },
    {
      "inputs": [
        {
          "internalType": "address",
          "name": "",
          "type": "address"
        }
      ],
      "name": "addressToSHGid",
      "outputs": [
        {
          "internalType": "uint256",
          "name": "",
          "type": "uint256"
        }
      ],
      "stateMutability": "view",
      "type": "function"
    },
    {
      "inputs": [
        {
          "internalType": "address",
          "name": "",
          "type": "address"
        }
      ],
      "name": "addressToUser",
      "outputs": [
        {
          "internalType": "uint256",
          "name": "",
          "type": "uint256"
        }
      ],
      "stateMutability": "view",
      "type": "function"
    },
    {
      "inputs": [
        {
          "internalType": "uint256",
          "name": "",
          "type": "uint256"
        }
      ],
      "name": "banks",
      "outputs": [
        {
          "internalType": "uint256",
          "name": "id",
          "type": "uint256"
        },
        {
          "internalType": "string",
          "name": "name",
          "type": "string"
        },
        {
          "internalType": "address",
          "name": "walletAddress",
          "type": "address"
        },
        {
          "internalType": "string",
          "name": "code",
          "type": "string"
        },
        {
          "internalType": "uint256",
          "name": "intrestRate",
          "type": "uint256"
        }
      ],
      "stateMutability": "view",
      "type": "function"
    },
    {
      "inputs": [
        {
          "internalType": "uint256",
          "name": "",
          "type": "uint256"
        }
      ],
      "name": "loans",
      "outputs": [
        {
          "internalType": "uint256",
          "name": "loanId",
          "type": "uint256"
        },
        {
          "internalType": "uint256",
          "name": "lenderId",
          "type": "uint256"
        },
        {
          "internalType": "uint256",
          "name": "amount",
          "type": "uint256"
        },
        {
          "internalType": "uint256",
          "name": "lendeeId",
          "type": "uint256"
        },
        {
          "internalType": "uint256",
          "name": "intrest",
          "type": "uint256"
        },
        {
          "internalType": "uint256",
          "name": "loanTime",
          "type": "uint256"
        },
        {
          "internalType": "uint256",
          "name": "date",
          "type": "uint256"
        },
        {
          "internalType": "uint256",
          "name": "lastEMI",
          "type": "uint256"
        }
      ],
      "stateMutability": "view",
      "type": "function"
    },
    {
      "inputs": [
        {
          "internalType": "uint256",
          "name": "",
          "type": "uint256"
        }
      ],
      "name": "shgRequests",
      "outputs": [
        {
          "internalType": "uint256",
          "name": "requestid",
          "type": "uint256"
        },
        {
          "internalType": "uint256",
          "name": "shgid",
          "type": "uint256"
        },
        {
          "internalType": "uint256",
          "name": "amount",
          "type": "uint256"
        },
        {
          "internalType": "uint256",
          "name": "loanTime",
          "type": "uint256"
        },
        {
          "internalType": "enum structs.RequestStatus",
          "name": "status",
          "type": "uint8"
        }
      ],
      "stateMutability": "view",
      "type": "function"
    },
    {
      "inputs": [
        {
          "internalType": "uint256",
          "name": "",
          "type": "uint256"
        }
      ],
      "name": "shgs",
      "outputs": [
        {
          "internalType": "uint256",
          "name": "id",
          "type": "uint256"
        },
        {
          "internalType": "string",
          "name": "name",
          "type": "string"
        },
        {
          "components": [
            {
              "internalType": "string",
              "name": "state",
              "type": "string"
            },
            {
              "internalType": "string",
              "name": "district",
              "type": "string"
            },
            {
              "internalType": "string",
              "name": "blockName",
              "type": "string"
            },
            {
              "internalType": "string",
              "name": "panchyatName",
              "type": "string"
            },
            {
              "internalType": "string",
              "name": "villageName",
              "type": "string"
            }
          ],
          "internalType": "struct structs.Location",
          "name": "location",
          "type": "tuple"
        },
        {
          "internalType": "string",
          "name": "dateOfFormation",
          "type": "string"
        },
        {
          "internalType": "uint256",
          "name": "currentBalance",
          "type": "uint256"
        },
        {
          "internalType": "uint256",
          "name": "owedBalance",
          "type": "uint256"
        },
        {
          "internalType": "uint256",
          "name": "baseIntrest",
          "type": "uint256"
        }
      ],
      "stateMutability": "view",
      "type": "function"
    },
    {
      "inputs": [
        {
          "internalType": "uint256",
          "name": "",
          "type": "uint256"
        }
      ],
      "name": "userRequests",
      "outputs": [
        {
          "internalType": "uint256",
          "name": "requestId",
          "type": "uint256"
        },
        {
          "internalType": "uint256",
          "name": "userId",
          "type": "uint256"
        },
        {
          "internalType": "uint256",
          "name": "amount",
          "type": "uint256"
        },
        {
          "internalType": "string",
          "name": "description",
          "type": "string"
        },
        {
          "internalType": "uint256",
          "name": "SHGId",
          "type": "uint256"
        },
        {
          "internalType": "enum structs.RequestStatus",
          "name": "status",
          "type": "uint8"
        },
        {
          "internalType": "uint256",
          "name": "loanTime",
          "type": "uint256"
        }
      ],
      "stateMutability": "view",
      "type": "function"
    },
    {
      "inputs": [
        {
          "internalType": "uint256",
          "name": "",
          "type": "uint256"
        }
      ],
      "name": "users",
      "outputs": [
        {
          "internalType": "uint256",
          "name": "id",
          "type": "uint256"
        },
        {
          "internalType": "string",
          "name": "name",
          "type": "string"
        },
        {
          "internalType": "string",
          "name": "aadhar",
          "type": "string"
        },
        {
          "internalType": "uint256",
          "name": "mobno",
          "type": "uint256"
        },
        {
          "internalType": "string",
          "name": "fatherName",
          "type": "string"
        },
        {
          "internalType": "address",
          "name": "walletAddress",
          "type": "address"
        },
        {
          "internalType": "uint256",
          "name": "amountTaken",
          "type": "uint256"
        },
        {
          "internalType": "uint256",
          "name": "shgid",
          "type": "uint256"
        },
        {
          "internalType": "enum structs.UserType",
          "name": "userType",
          "type": "uint8"
        },
        {
          "internalType": "enum structs.Gender",
          "name": "gender",
          "type": "uint8"
        },
        {
          "components": [
            {
              "internalType": "string",
              "name": "state",
              "type": "string"
            },
            {
              "internalType": "string",
              "name": "district",
              "type": "string"
            },
            {
              "internalType": "string",
              "name": "blockName",
              "type": "string"
            },
            {
              "internalType": "string",
              "name": "panchyatName",
              "type": "string"
            },
            {
              "internalType": "string",
              "name": "villageName",
              "type": "string"
            }
          ],
          "internalType": "struct structs.Location",
          "name": "location",
          "type": "tuple"
        }
      ],
      "stateMutability": "view",
      "type": "function"
    },
    {
      "inputs": [],
      "name": "login",
      "outputs": [
        {
          "internalType": "bool",
          "name": "",
          "type": "bool"
        }
      ],
      "stateMutability": "view",
      "type": "function"
    },
    {
      "inputs": [
        {
          "internalType": "string",
          "name": "name",
          "type": "string"
        },
        {
          "internalType": "string",
          "name": "aadhar",
          "type": "string"
        },
        {
          "internalType": "uint256",
          "name": "mobno",
          "type": "uint256"
        },
        {
          "internalType": "string",
          "name": "fatherName",
          "type": "string"
        },
        {
          "internalType": "enum structs.Gender",
          "name": "gender",
          "type": "uint8"
        },
        {
          "internalType": "string",
          "name": "_state",
          "type": "string"
        },
        {
          "internalType": "string",
          "name": "_district",
          "type": "string"
        },
        {
          "internalType": "string",
          "name": "_blockName",
          "type": "string"
        },
        {
          "internalType": "string",
          "name": "_panchyatName",
          "type": "string"
        },
        {
          "internalType": "string",
          "name": "_villageName",
          "type": "string"
        }
      ],
      "name": "addUser",
      "outputs": [],
      "stateMutability": "nonpayable",
      "type": "function"
    },
    {
      "inputs": [
        {
          "internalType": "uint256",
          "name": "_shgid",
          "type": "uint256"
        },
        {
          "internalType": "uint256",
          "name": "_userid",
          "type": "uint256"
        },
        {
          "internalType": "uint256",
          "name": "_amount",
          "type": "uint256"
        },
        {
          "internalType": "string",
          "name": "_description",
          "type": "string"
        },
        {
          "internalType": "uint256",
          "name": "_loanTime",
          "type": "uint256"
        }
      ],
      "name": "makeRequest",
      "outputs": [],
      "stateMutability": "nonpayable",
      "type": "function"
    },
    {
      "inputs": [
        {
          "internalType": "uint256",
          "name": "_userid",
          "type": "uint256"
        },
        {
          "internalType": "uint256",
          "name": "_requestid",
          "type": "uint256"
        }
      ],
      "name": "deleteRequest",
      "outputs": [],
      "stateMutability": "nonpayable",
      "type": "function"
    },
    {
      "inputs": [
        {
          "internalType": "uint256",
          "name": "_userid",
          "type": "uint256"
        },
        {
          "internalType": "uint256",
          "name": "_loanid",
          "type": "uint256"
        },
        {
          "internalType": "uint256",
          "name": "_amount",
          "type": "uint256"
        }
      ],
      "name": "payEMI",
      "outputs": [],
      "stateMutability": "payable",
      "type": "function"
    },
    {
      "inputs": [
        {
          "internalType": "uint256",
          "name": "userid",
          "type": "uint256"
        },
        {
          "internalType": "uint256",
          "name": "loanid",
          "type": "uint256"
        }
      ],
      "name": "getUserEMI",
      "outputs": [
        {
          "internalType": "uint256",
          "name": "",
          "type": "uint256"
        }
      ],
      "stateMutability": "nonpayable",
      "type": "function"
    },
    {
      "inputs": [
        {
          "internalType": "uint256",
          "name": "userid",
          "type": "uint256"
        }
      ],
      "name": "getAllLoans",
      "outputs": [
        {
          "internalType": "uint256[]",
          "name": "",
          "type": "uint256[]"
        }
      ],
      "stateMutability": "view",
      "type": "function"
    },
    {
      "inputs": [],
      "name": "flagDefaulters",
      "outputs": [],
      "stateMutability": "nonpayable",
      "type": "function"
    }
  ],
  "bytecode": "0x608060405234801561001057600080fd5b50612bea806100206000396000f3fe6080604052600436106100fd5760003560e01c806342f5f81511610095578063cfcb4b2f11610064578063cfcb4b2f146103a1578063ded9e96c146103de578063e1ec3c68146103f5578063edf5388614610439578063f736ae4314610476576100fd565b806342f5f815146102da57806361c91b70146102f65780639416965614610333578063b34e97e814610376576100fd565b80632e131046116100d15780632e131046146101f0578063365b98b2146102195780633ae0058f146102605780633c5657571461029d576100fd565b806285ae2b146101025780630227f43514610143578063257a170b1461016c57806326271cf2146101ad575b600080fd5b34801561010e57600080fd5b5061012960048036038101906101249190611feb565b61049f565b60405161013a9594939291906123ac565b60405180910390f35b34801561014f57600080fd5b5061016a6004803603810190610165919061209f565b610605565b005b34801561017857600080fd5b50610193600480360381019061018e9190611feb565b6107df565b6040516101a49594939291906125ce565b60405180910390f35b3480156101b957600080fd5b506101d460048036038101906101cf9190611feb565b610822565b6040516101e797969594939291906124d4565b60405180910390f35b3480156101fc57600080fd5b5061021760048036038101906102129190611e50565b610c58565b005b34801561022557600080fd5b50610240600480360381019061023b9190611feb565b611175565b6040516102579b9a9998979695949392919061240d565b60405180910390f35b34801561026c57600080fd5b5061028760048036038101906102829190611e27565b611685565b6040516102949190612391565b60405180910390f35b3480156102a957600080fd5b506102c460048036038101906102bf9190612014565b61169d565b6040516102d19190612391565b60405180910390f35b6102f460048036038101906102ef9190612050565b6117ba565b005b34801561030257600080fd5b5061031d60048036038101906103189190611e27565b611898565b60405161032a9190612391565b60405180910390f35b34801561033f57600080fd5b5061035a60048036038101906103559190611feb565b6118b0565b60405161036d9796959493929190612558565b60405180910390f35b34801561038257600080fd5b5061038b611987565b6040516103989190612356565b60405180910390f35b3480156103ad57600080fd5b506103c860048036038101906103c39190611feb565b611a31565b6040516103d59190612334565b60405180910390f35b3480156103ea57600080fd5b506103f3611ac3565b005b34801561040157600080fd5b5061041c60048036038101906104179190611feb565b611ac5565b604051610430989796959493929190612621565b60405180910390f35b34801561044557600080fd5b50610460600480360381019061045b9190611e27565b611b0d565b60405161046d9190612391565b60405180910390f35b34801561048257600080fd5b5061049d60048036038101906104989190612014565b611b25565b005b60026020528060005260406000206000915090508060000154908060010180546104c890612969565b80601f01602080910402602001604051908101604052809291908181526020018280546104f490612969565b80156105415780601f1061051657610100808354040283529160200191610541565b820191906000526020600020905b81548152906001019060200180831161052457829003601f168201915b5050505050908060020160009054906101000a900473ffffffffffffffffffffffffffffffffffffffff169080600301805461057c90612969565b80601f01602080910402602001604051908101604052809291908181526020018280546105a890612969565b80156105f55780601f106105ca576101008083540402835291602001916105f5565b820191906000526020600020905b8154815290600101906020018083116105d857829003601f168201915b5050505050908060040154905085565b6000600b60008154610616906129cc565b9190508190559050604051806101000160405280828152602001868152602001858152602001848152602001878152602001600380811115610681577f4e487b7100000000000000000000000000000000000000000000000000000000600052602160045260246000fd5b8152602001838152602001600067ffffffffffffffff8111156106cd577f4e487b7100000000000000000000000000000000000000000000000000000000600052604160045260246000fd5b6040519080825280602002602001820160405280156106fb5781602001602082028036833780820191505090505b5081525060056000838152602001908152602001600020600082015181600001556020820151816001015560408201518160020155606082015181600301908051906020019061074c929190611c2f565b506080820151816004015560a08201518160050160006101000a81548160ff021916908360038111156107a8577f4e487b7100000000000000000000000000000000000000000000000000000000600052602160045260246000fd5b021790555060c0820151816006015560e08201518160070190805190602001906107d3929190611cb5565b50905050505050505050565b60066020528060005260406000206000915090508060000154908060010154908060020154908060030154908060040160009054906101000a900460ff16905085565b600160205280600052604060002060009150905080600001549080600201805461084b90612969565b80601f016020809104026020016040519081016040528092919081815260200182805461087790612969565b80156108c45780601f10610899576101008083540402835291602001916108c4565b820191906000526020600020905b8154815290600101906020018083116108a757829003601f168201915b505050505090806003016040518060a00160405290816000820180546108e990612969565b80601f016020809104026020016040519081016040528092919081815260200182805461091590612969565b80156109625780601f1061093757610100808354040283529160200191610962565b820191906000526020600020905b81548152906001019060200180831161094557829003601f168201915b5050505050815260200160018201805461097b90612969565b80601f01602080910402602001604051908101604052809291908181526020018280546109a790612969565b80156109f45780601f106109c9576101008083540402835291602001916109f4565b820191906000526020600020905b8154815290600101906020018083116109d757829003601f168201915b50505050508152602001600282018054610a0d90612969565b80601f0160208091040260200160405190810160405280929190818152602001828054610a3990612969565b8015610a865780601f10610a5b57610100808354040283529160200191610a86565b820191906000526020600020905b815481529060010190602001808311610a6957829003601f168201915b50505050508152602001600382018054610a9f90612969565b80601f0160208091040260200160405190810160405280929190818152602001828054610acb90612969565b8015610b185780601f10610aed57610100808354040283529160200191610b18565b820191906000526020600020905b815481529060010190602001808311610afb57829003601f168201915b50505050508152602001600482018054610b3190612969565b80601f0160208091040260200160405190810160405280929190818152602001828054610b5d90612969565b8015610baa5780601f10610b7f57610100808354040283529160200191610baa565b820191906000526020600020905b815481529060010190602001808311610b8d57829003601f168201915b50505050508152505090806008018054610bc390612969565b80601f0160208091040260200160405190810160405280929190818152602001828054610bef90612969565b8015610c3c5780601f10610c1157610100808354040283529160200191610c3c565b820191906000526020600020905b815481529060010190602001808311610c1f57829003601f168201915b50505050509080600901549080600a01549080600d0154905087565b3373ffffffffffffffffffffffffffffffffffffffff16600080600360003373ffffffffffffffffffffffffffffffffffffffff1673ffffffffffffffffffffffffffffffffffffffff16815260200190815260200160002054815260200190815260200160002060050160009054906101000a900473ffffffffffffffffffffffffffffffffffffffff1673ffffffffffffffffffffffffffffffffffffffff161415610d3b576040517f08c379a0000000000000000000000000000000000000000000000000000000008152600401610d3290612371565b60405180910390fd5b6000600960008154610d4c906129cc565b919050819055905080600360003373ffffffffffffffffffffffffffffffffffffffff1673ffffffffffffffffffffffffffffffffffffffff1681526020019081526020016000208190555060006040518060a0016040528088815260200187815260200186815260200185815260200184815250905060405180610180016040528060096000815480929190610de2906129cc565b9190505581526020018d81526020018c81526020018b81526020018a81526020013373ffffffffffffffffffffffffffffffffffffffff168152602001600067ffffffffffffffff811115610e60577f4e487b7100000000000000000000000000000000000000000000000000000000600052604160045260246000fd5b604051908082528060200260200182016040528015610e8e5781602001602082028036833780820191505090505b508152602001600081526020016000815260200160046005811115610edc577f4e487b7100000000000000000000000000000000000000000000000000000000600052602160045260246000fd5b8152602001896002811115610f1a577f4e487b7100000000000000000000000000000000000000000000000000000000600052602160045260246000fd5b815260200182815250600080848152602001908152602001600020600082015181600001556020820151816001019080519060200190610f5b929190611c2f565b506040820151816002019080519060200190610f78929190611c2f565b50606082015181600301556080820151816004019080519060200190610f9f929190611c2f565b5060a08201518160050160006101000a81548173ffffffffffffffffffffffffffffffffffffffff021916908373ffffffffffffffffffffffffffffffffffffffff16021790555060c0820151816006019080519060200190611003929190611cb5565b5060e0820151816007015561010082015181600801556101208201518160090160006101000a81548160ff0219169083600581111561106b577f4e487b7100000000000000000000000000000000000000000000000000000000600052602160045260246000fd5b02179055506101408201518160090160016101000a81548160ff021916908360028111156110c2577f4e487b7100000000000000000000000000000000000000000000000000000000600052602160045260246000fd5b021790555061016082015181600a0160008201518160000190805190602001906110ed929190611c2f565b50602082015181600101908051906020019061110a929190611c2f565b506040820151816002019080519060200190611127929190611c2f565b506060820151816003019080519060200190611144929190611c2f565b506080820151816004019080519060200190611161929190611c2f565b505050905050505050505050505050505050565b600060205280600052604060002060009150905080600001549080600101805461119e90612969565b80601f01602080910402602001604051908101604052809291908181526020018280546111ca90612969565b80156112175780601f106111ec57610100808354040283529160200191611217565b820191906000526020600020905b8154815290600101906020018083116111fa57829003601f168201915b50505050509080600201805461122c90612969565b80601f016020809104026020016040519081016040528092919081815260200182805461125890612969565b80156112a55780601f1061127a576101008083540402835291602001916112a5565b820191906000526020600020905b81548152906001019060200180831161128857829003601f168201915b5050505050908060030154908060040180546112c090612969565b80601f01602080910402602001604051908101604052809291908181526020018280546112ec90612969565b80156113395780601f1061130e57610100808354040283529160200191611339565b820191906000526020600020905b81548152906001019060200180831161131c57829003601f168201915b5050505050908060050160009054906101000a900473ffffffffffffffffffffffffffffffffffffffff16908060070154908060080154908060090160009054906101000a900460ff16908060090160019054906101000a900460ff169080600a016040518060a00160405290816000820180546113b690612969565b80601f01602080910402602001604051908101604052809291908181526020018280546113e290612969565b801561142f5780601f106114045761010080835404028352916020019161142f565b820191906000526020600020905b81548152906001019060200180831161141257829003601f168201915b5050505050815260200160018201805461144890612969565b80601f016020809104026020016040519081016040528092919081815260200182805461147490612969565b80156114c15780601f10611496576101008083540402835291602001916114c1565b820191906000526020600020905b8154815290600101906020018083116114a457829003601f168201915b505050505081526020016002820180546114da90612969565b80601f016020809104026020016040519081016040528092919081815260200182805461150690612969565b80156115535780601f1061152857610100808354040283529160200191611553565b820191906000526020600020905b81548152906001019060200180831161153657829003601f168201915b5050505050815260200160038201805461156c90612969565b80601f016020809104026020016040519081016040528092919081815260200182805461159890612969565b80156115e55780601f106115ba576101008083540402835291602001916115e5565b820191906000526020600020905b8154815290600101906020018083116115c857829003601f168201915b505050505081526020016004820180546115fe90612969565b80601f016020809104026020016040519081016040528092919081815260200182805461162a90612969565b80156116775780601f1061164c57610100808354040283529160200191611677565b820191906000526020600020905b81548152906001019060200180831161165a57829003601f168201915b50505050508152505090508b565b60076020528060005260406000206000915090505481565b60008260008060008381526020019081526020016000206000015414156116c357600080fd5b60006004600085815260200190815260200160002090506000601e603c8060188560070154426116f3919061283c565b6116fd91906127b1565b61170791906127e2565b61171191906127e2565b61171b91906127e2565b90506000811161172a57600080fd5b60008260020154905060008360040154905060008460050154905060008382600c61175591906127e2565b61175f919061283c565b600c60648561176e91906127b1565b61177891906127e2565b6001611784919061275b565b8561178f91906127e2565b1890508086600201546117a2919061283c565b86600201819055508097505050505050505092915050565b8260008060008381526020019081526020016000206000015414156117de57600080fd5b60006117ea858561169d565b90508281146117f857600080fd5b60006004600086815260200190815260200160002090503073ffffffffffffffffffffffffffffffffffffffff166108fc859081150290604051600060405180830381858888f19350505050158015611855573d6000803e3d6000fd5b508360016000836003015481526020019081526020016000206009016000828254611880919061275b565b92505081905550428160070181905550505050505050565b60086020528060005260406000206000915090505481565b60056020528060005260406000206000915090508060000154908060010154908060020154908060030180546118e590612969565b80601f016020809104026020016040519081016040528092919081815260200182805461191190612969565b801561195e5780601f106119335761010080835404028352916020019161195e565b820191906000526020600020905b81548152906001019060200180831161194157829003601f168201915b5050505050908060040154908060050160009054906101000a900460ff16908060060154905087565b60003373ffffffffffffffffffffffffffffffffffffffff16600080600360003373ffffffffffffffffffffffffffffffffffffffff1673ffffffffffffffffffffffffffffffffffffffff16815260200190815260200160002054815260200190815260200160002060050160009054906101000a900473ffffffffffffffffffffffffffffffffffffffff1673ffffffffffffffffffffffffffffffffffffffff1614905090565b6060816000806000838152602001908152602001600020600001541415611a5757600080fd5b600080848152602001908152602001600020600601805480602002602001604051908101604052809291908181526020018280548015611ab657602002820191906000526020600020905b815481526020019060010190808311611aa2575b5050505050915050919050565b565b60046020528060005260406000206000915090508060000154908060010154908060020154908060030154908060040154908060050154908060060154908060070154905088565b60036020528060005260406000206000915090505481565b816000806000838152602001908152602001600020600001541415611b4957600080fd5b82600560008481526020019081526020016000206001015414611b6b57600080fd5b600080600090505b600b54811015611bb6578460056000838152602001908152602001600020600101541415611ba357809150611bb6565b8080611bae906129cc565b915050611b73565b506005600082815260200190815260200160002060008082016000905560018201600090556002820160009055600382016000611bf39190611d02565b60048201600090556005820160006101000a81549060ff02191690556006820160009055600782016000611c279190611d42565b505050505050565b828054611c3b90612969565b90600052602060002090601f016020900481019282611c5d5760008555611ca4565b82601f10611c7657805160ff1916838001178555611ca4565b82800160010185558215611ca4579182015b82811115611ca3578251825591602001919060010190611c88565b5b509050611cb19190611d63565b5090565b828054828255906000526020600020908101928215611cf1579160200282015b82811115611cf0578251825591602001919060010190611cd5565b5b509050611cfe9190611d63565b5090565b508054611d0e90612969565b6000825580601f10611d205750611d3f565b601f016020900490600052602060002090810190611d3e9190611d63565b5b50565b5080546000825590600052602060002090810190611d609190611d63565b50565b5b80821115611d7c576000816000905550600101611d64565b5090565b6000611d93611d8e846126c4565b61269f565b905082815260208101848484011115611dab57600080fd5b611db6848285612927565b509392505050565b600081359050611dcd81612b76565b92915050565b600081359050611de281612b8d565b92915050565b600082601f830112611df957600080fd5b8135611e09848260208601611d80565b91505092915050565b600081359050611e2181612b9d565b92915050565b600060208284031215611e3957600080fd5b6000611e4784828501611dbe565b91505092915050565b6000806000806000806000806000806101408b8d031215611e7057600080fd5b60008b013567ffffffffffffffff811115611e8a57600080fd5b611e968d828e01611de8565b9a505060208b013567ffffffffffffffff811115611eb357600080fd5b611ebf8d828e01611de8565b9950506040611ed08d828e01611e12565b98505060608b013567ffffffffffffffff811115611eed57600080fd5b611ef98d828e01611de8565b9750506080611f0a8d828e01611dd3565b96505060a08b013567ffffffffffffffff811115611f2757600080fd5b611f338d828e01611de8565b95505060c08b013567ffffffffffffffff811115611f5057600080fd5b611f5c8d828e01611de8565b94505060e08b013567ffffffffffffffff811115611f7957600080fd5b611f858d828e01611de8565b9350506101008b013567ffffffffffffffff811115611fa357600080fd5b611faf8d828e01611de8565b9250506101208b013567ffffffffffffffff811115611fcd57600080fd5b611fd98d828e01611de8565b9150509295989b9194979a5092959850565b600060208284031215611ffd57600080fd5b600061200b84828501611e12565b91505092915050565b6000806040838503121561202757600080fd5b600061203585828601611e12565b925050602061204685828601611e12565b9150509250929050565b60008060006060848603121561206557600080fd5b600061207386828701611e12565b935050602061208486828701611e12565b925050604061209586828701611e12565b9150509250925092565b600080600080600060a086880312156120b757600080fd5b60006120c588828901611e12565b95505060206120d688828901611e12565b94505060406120e788828901611e12565b935050606086013567ffffffffffffffff81111561210457600080fd5b61211088828901611de8565b925050608061212188828901611e12565b9150509295509295909350565b600061213a8383612316565b60208301905092915050565b61214f81612870565b82525050565b600061216082612705565b61216a8185612728565b9350612175836126f5565b8060005b838110156121a657815161218d888261212e565b97506121988361271b565b925050600181019050612179565b5085935050505092915050565b6121bc81612882565b82525050565b6121cb816128f1565b82525050565b6121da81612903565b82525050565b6121e981612915565b82525050565b60006121fa82612710565b6122048185612739565b9350612214818560208601612936565b61221d81612b00565b840191505092915050565b600061223382612710565b61223d818561274a565b935061224d818560208601612936565b61225681612b00565b840191505092915050565b600061226e60128361274a565b915061227982612b11565b602082019050919050565b600060a08301600083015184820360008601526122a182826121ef565b915050602083015184820360208601526122bb82826121ef565b915050604083015184820360408601526122d582826121ef565b915050606083015184820360608601526122ef82826121ef565b9150506080830151848203608086015261230982826121ef565b9150508091505092915050565b61231f816128e7565b82525050565b61232e816128e7565b82525050565b6000602082019050818103600083015261234e8184612155565b905092915050565b600060208201905061236b60008301846121b3565b92915050565b6000602082019050818103600083015261238a81612261565b9050919050565b60006020820190506123a66000830184612325565b92915050565b600060a0820190506123c16000830188612325565b81810360208301526123d38187612228565b90506123e26040830186612146565b81810360608301526123f48185612228565b90506124036080830184612325565b9695505050505050565b600061016082019050612423600083018e612325565b8181036020830152612435818d612228565b90508181036040830152612449818c612228565b9050612458606083018b612325565b818103608083015261246a818a612228565b905061247960a0830189612146565b61248660c0830188612325565b61249360e0830187612325565b6124a16101008301866121e0565b6124af6101208301856121c2565b8181036101408301526124c28184612284565b90509c9b505050505050505050505050565b600060e0820190506124e9600083018a612325565b81810360208301526124fb8189612228565b9050818103604083015261250f8188612284565b905081810360608301526125238187612228565b90506125326080830186612325565b61253f60a0830185612325565b61254c60c0830184612325565b98975050505050505050565b600060e08201905061256d600083018a612325565b61257a6020830189612325565b6125876040830188612325565b81810360608301526125998187612228565b90506125a86080830186612325565b6125b560a08301856121d1565b6125c260c0830184612325565b98975050505050505050565b600060a0820190506125e36000830188612325565b6125f06020830187612325565b6125fd6040830186612325565b61260a6060830185612325565b61261760808301846121d1565b9695505050505050565b600061010082019050612637600083018b612325565b612644602083018a612325565b6126516040830189612325565b61265e6060830188612325565b61266b6080830187612325565b61267860a0830186612325565b61268560c0830185612325565b61269260e0830184612325565b9998505050505050505050565b60006126a96126ba565b90506126b5828261299b565b919050565b6000604051905090565b600067ffffffffffffffff8211156126df576126de612ad1565b5b6126e882612b00565b9050602081019050919050565b6000819050602082019050919050565b600081519050919050565b600081519050919050565b6000602082019050919050565b600082825260208201905092915050565b600082825260208201905092915050565b600082825260208201905092915050565b6000612766826128e7565b9150612771836128e7565b9250827fffffffffffffffffffffffffffffffffffffffffffffffffffffffffffffffff038211156127a6576127a5612a15565b5b828201905092915050565b60006127bc826128e7565b91506127c7836128e7565b9250826127d7576127d6612a44565b5b828204905092915050565b60006127ed826128e7565b91506127f8836128e7565b9250817fffffffffffffffffffffffffffffffffffffffffffffffffffffffffffffffff048311821515161561283157612830612a15565b5b828202905092915050565b6000612847826128e7565b9150612852836128e7565b92508282101561286557612864612a15565b5b828203905092915050565b600061287b826128c7565b9050919050565b60008115159050919050565b600081905061289c82612b3a565b919050565b60008190506128af82612b4e565b919050565b60008190506128c282612b62565b919050565b600073ffffffffffffffffffffffffffffffffffffffff82169050919050565b6000819050919050565b60006128fc8261288e565b9050919050565b600061290e826128a1565b9050919050565b6000612920826128b4565b9050919050565b82818337600083830152505050565b60005b83811015612954578082015181840152602081019050612939565b83811115612963576000848401525b50505050565b6000600282049050600182168061298157607f821691505b6020821081141561299557612994612aa2565b5b50919050565b6129a482612b00565b810181811067ffffffffffffffff821117156129c3576129c2612ad1565b5b80604052505050565b60006129d7826128e7565b91507fffffffffffffffffffffffffffffffffffffffffffffffffffffffffffffffff821415612a0a57612a09612a15565b5b600182019050919050565b7f4e487b7100000000000000000000000000000000000000000000000000000000600052601160045260246000fd5b7f4e487b7100000000000000000000000000000000000000000000000000000000600052601260045260246000fd5b7f4e487b7100000000000000000000000000000000000000000000000000000000600052602160045260246000fd5b7f4e487b7100000000000000000000000000000000000000000000000000000000600052602260045260246000fd5b7f4e487b7100000000000000000000000000000000000000000000000000000000600052604160045260246000fd5b6000601f19601f8301169050919050565b7f416c726561647920526567697374657265640000000000000000000000000000600082015250565b60038110612b4b57612b4a612a73565b5b50565b60048110612b5f57612b5e612a73565b5b50565b60068110612b7357612b72612a73565b5b50565b612b7f81612870565b8114612b8a57600080fd5b50565b60038110612b9a57600080fd5b50565b612ba6816128e7565b8114612bb157600080fd5b5056fea264697066735822122074b824993a407d0a7c2a163051f3feac942ed4ca02f6b4d5ea0946605d789f7464736f6c63430008040033",
  "immutableReferences": {},
  "source": "// SPDX-License-Identifier: MIT\r\npragma solidity ^0.8.1;\r\nimport \"./structs.sol\";\r\nimport \"./modifiers.sol\";\r\n\r\ncontract User is structs, modifiers {\r\n    function login() public view returns (bool) {\r\n        return (users[addressToUser[msg.sender]].walletAddress == msg.sender);\r\n    }\r\n\r\n    function addUser(\r\n        string memory name,\r\n        string memory aadhar,\r\n        uint256 mobno,\r\n        string memory fatherName,\r\n        Gender gender,\r\n        string memory _state,\r\n        string memory _district,\r\n        string memory _blockName,\r\n        string memory _panchyatName,\r\n        string memory _villageName\r\n    ) public {\r\n        require(\r\n            users[addressToUser[msg.sender]].walletAddress != msg.sender,\r\n            \"Already Registered\"\r\n        );\r\n        uint256 id = ++numUsers;\r\n        addressToUser[msg.sender] = id;\r\n\r\n        Location memory newlocation = Location({\r\n            state: _state,\r\n            district: _district,\r\n            blockName: _blockName,\r\n            panchyatName: _panchyatName,\r\n            villageName: _villageName\r\n        });\r\n\r\n        users[id] = User(\r\n            numUsers++,\r\n            name,\r\n            aadhar,\r\n            mobno,\r\n            fatherName,\r\n            msg.sender,\r\n            new uint256[](0),\r\n            0,\r\n            0, // SHG id is zero inttially as a placeholder for every user\r\n            UserType.NONE,\r\n            gender,\r\n            newlocation\r\n        );\r\n    }\r\n\r\n    // Request functions for user\r\n\r\n    function makeRequest(\r\n        uint256 _shgid,\r\n        uint256 _userid,\r\n        uint256 _amount,\r\n        string memory _description,\r\n        uint256 _loanTime\r\n    ) public {\r\n        uint256 _requestId = ++numUserRequests;\r\n        userRequests[_requestId] = UserRequest(\r\n            _requestId,\r\n            _userid,\r\n            _amount,\r\n            _description,\r\n            _shgid,\r\n            RequestStatus.IN_PROCESS,\r\n            _loanTime,\r\n            new uint256[](0)\r\n        );\r\n    }\r\n\r\n    function deleteRequest(uint256 _userid, uint256 _requestid)\r\n        public\r\n        onlyUser(_userid)\r\n    {\r\n        require(userRequests[_requestid].userId == _userid);\r\n\r\n        uint256 index;\r\n        for (uint256 i = 0; i < numUserRequests; i++) {\r\n            if (userRequests[i].userId == _userid) {\r\n                index = i;\r\n                break;\r\n            }\r\n        }\r\n        delete userRequests[index];\r\n    }\r\n\r\n    // Repay functions for user\r\n\r\n    function payEMI(\r\n        uint256 _userid,\r\n        uint256 _loanid,\r\n        uint256 _amount\r\n    ) public payable onlyUser(_userid) {\r\n        uint256 amount = getUserEMI(_userid, _loanid);\r\n        require(amount == _amount);\r\n        Loan storage loan = loans[_loanid];\r\n        payable(address(this)).transfer(_amount);\r\n        shgs[loan.lendeeId].currentBalance += _amount;\r\n        loan.lastEMI = block.timestamp;\r\n    }\r\n\r\n    // fetch functions\r\n\r\n    function getUserEMI(uint256 userid, uint256 loanid)\r\n        public\r\n        onlyUser(userid)\r\n        returns (uint256)\r\n    {\r\n        Loan storage loan = loans[loanid];\r\n        uint256 months = ((block.timestamp - loan.lastEMI) / 24) * 60 * 60 * 30;\r\n\r\n        require(months > 0);\r\n        uint256 P = loan.amount;\r\n        uint256 r = loan.intrest;\r\n        uint256 t = loan.loanTime;\r\n        uint256 emi = (P * (1 + ((r / 100) * 12))) ^ ((12 * t) - P);\r\n\r\n        loan.amount = loan.amount - emi;\r\n        return emi;\r\n    }\r\n\r\n    function getAllLoans(uint256 userid)\r\n        public\r\n        view\r\n        onlyUser(userid)\r\n        returns (uint256[] memory)\r\n    {\r\n        return users[userid].loansTaken;\r\n    }\r\n\r\n    function flagDefaulters() public {}\r\n}\r\n",
  "sourcePath": "C:/Users/hardi/Desktop/yogdaan/contracts/lib/User.sol",
  "compiler": {
    "name": "solc",
    "version": "0.8.4+commit.c7e474f2.Emscripten.clang"
  },
  "schemaVersion": "3.4.0",
  "updatedAt": "2022-08-23T20:31:08.449Z",
  "devdoc": {
    "kind": "dev",
    "methods": {},
    "version": 1
  },
  "userdoc": {
    "kind": "user",
    "methods": {},
    "version": 1
  }
}