{
  "contractName": "Yogdaan",
  "abi": [
    {
      "inputs": [],
      "stateMutability": "nonpayable",
      "type": "constructor"
    },
    {
      "inputs": [
        {
          "internalType": "string",
          "name": "_name",
          "type": "string"
        },
        {
          "internalType": "address",
          "name": "_walletAddress",
          "type": "address"
        },
        {
          "internalType": "string",
          "name": "_code",
          "type": "string"
        },
        {
          "internalType": "uint256",
          "name": "_intrestRate",
          "type": "uint256"
        }
      ],
      "name": "addBank",
      "outputs": [],
      "stateMutability": "nonpayable",
      "type": "function"
    },
    {
      "inputs": [
        {
          "internalType": "uint256[]",
          "name": "members",
          "type": "uint256[]"
        },
        {
          "internalType": "uint256",
          "name": "president",
          "type": "uint256"
        },
        {
          "internalType": "string",
          "name": "name",
          "type": "string"
        },
        {
          "components": [
            {
              "internalType": "string",
              "name": "state",
              "type": "string"
            },
            {
              "internalType": "string",
              "name": "district",
              "type": "string"
            },
            {
              "internalType": "string",
              "name": "blockName",
              "type": "string"
            },
            {
              "internalType": "string",
              "name": "panchyatName",
              "type": "string"
            },
            {
              "internalType": "string",
              "name": "villageName",
              "type": "string"
            }
          ],
          "internalType": "struct structs.Location",
          "name": "location",
          "type": "tuple"
        },
        {
          "internalType": "string",
          "name": "dateOfFormation",
          "type": "string"
        },
        {
          "internalType": "uint256",
          "name": "_baseIntrest",
          "type": "uint256"
        }
      ],
      "name": "addSHG",
      "outputs": [],
      "stateMutability": "nonpayable",
      "type": "function"
    },
    {
      "inputs": [
        {
          "internalType": "uint256",
          "name": "userid",
          "type": "uint256"
        },
        {
          "internalType": "uint256",
          "name": "shg",
          "type": "uint256"
        }
      ],
      "name": "addSHGMember",
      "outputs": [],
      "stateMutability": "nonpayable",
      "type": "function"
    },
    {
      "inputs": [
        {
          "internalType": "string",
          "name": "name",
          "type": "string"
        },
        {
          "internalType": "string",
          "name": "aadhar",
          "type": "string"
        },
        {
          "internalType": "uint256",
          "name": "mobno",
          "type": "uint256"
        },
        {
          "internalType": "string",
          "name": "fatherName",
          "type": "string"
        },
        {
          "internalType": "enum structs.Gender",
          "name": "gender",
          "type": "uint8"
        },
        {
          "internalType": "string",
          "name": "_state",
          "type": "string"
        },
        {
          "internalType": "string",
          "name": "_district",
          "type": "string"
        },
        {
          "internalType": "string",
          "name": "_blockName",
          "type": "string"
        },
        {
          "internalType": "string",
          "name": "_panchyatName",
          "type": "string"
        },
        {
          "internalType": "string",
          "name": "_villageName",
          "type": "string"
        }
      ],
      "name": "addUser",
      "outputs": [],
      "stateMutability": "nonpayable",
      "type": "function"
    },
    {
      "inputs": [
        {
          "internalType": "address",
          "name": "",
          "type": "address"
        }
      ],
      "name": "addressToBankid",
      "outputs": [
        {
          "internalType": "uint256",
          "name": "",
          "type": "uint256"
        }
      ],
      "stateMutability": "view",
      "type": "function"
    },
    {
      "inputs": [
        {
          "internalType": "address",
          "name": "",
          "type": "address"
        }
      ],
      "name": "addressToSHGid",
      "outputs": [
        {
          "internalType": "uint256",
          "name": "",
          "type": "uint256"
        }
      ],
      "stateMutability": "view",
      "type": "function"
    },
    {
      "inputs": [
        {
          "internalType": "address",
          "name": "",
          "type": "address"
        }
      ],
      "name": "addressToUser",
      "outputs": [
        {
          "internalType": "uint256",
          "name": "",
          "type": "uint256"
        }
      ],
      "stateMutability": "view",
      "type": "function"
    },
    {
      "inputs": [
        {
          "internalType": "uint256",
          "name": "_shgrequestid",
          "type": "uint256"
        },
        {
          "internalType": "uint256",
          "name": "_bankid",
          "type": "uint256"
        }
      ],
      "name": "approveLoan",
      "outputs": [],
      "stateMutability": "nonpayable",
      "type": "function"
    },
    {
      "inputs": [
        {
          "internalType": "uint256",
          "name": "_requestid",
          "type": "uint256"
        },
        {
          "internalType": "uint256",
          "name": "_shgid",
          "type": "uint256"
        }
      ],
      "name": "approveRequest",
      "outputs": [],
      "stateMutability": "nonpayable",
      "type": "function"
    },
    {
      "inputs": [
        {
          "internalType": "uint256",
          "name": "",
          "type": "uint256"
        }
      ],
      "name": "banks",
      "outputs": [
        {
          "internalType": "uint256",
          "name": "id",
          "type": "uint256"
        },
        {
          "internalType": "string",
          "name": "name",
          "type": "string"
        },
        {
          "internalType": "address",
          "name": "walletAddress",
          "type": "address"
        },
        {
          "internalType": "string",
          "name": "code",
          "type": "string"
        },
        {
          "internalType": "uint256",
          "name": "intrestRate",
          "type": "uint256"
        }
      ],
      "stateMutability": "view",
      "type": "function"
    },
    {
      "inputs": [
        {
          "internalType": "uint256",
          "name": "_userid",
          "type": "uint256"
        },
        {
          "internalType": "uint256",
          "name": "_requestid",
          "type": "uint256"
        }
      ],
      "name": "deleteRequest",
      "outputs": [],
      "stateMutability": "nonpayable",
      "type": "function"
    },
    {
      "inputs": [],
      "name": "flagDefaulters",
      "outputs": [],
      "stateMutability": "nonpayable",
      "type": "function"
    },
    {
      "inputs": [
        {
          "internalType": "uint256",
          "name": "userid",
          "type": "uint256"
        }
      ],
      "name": "getAllLoans",
      "outputs": [
        {
          "internalType": "uint256[]",
          "name": "",
          "type": "uint256[]"
        }
      ],
      "stateMutability": "view",
      "type": "function"
    },
    {
      "inputs": [
        {
          "internalType": "uint256",
          "name": "shgid",
          "type": "uint256"
        }
      ],
      "name": "getSHG",
      "outputs": [
        {
          "components": [
            {
              "internalType": "uint256",
              "name": "id",
              "type": "uint256"
            },
            {
              "internalType": "uint256[]",
              "name": "users",
              "type": "uint256[]"
            },
            {
              "internalType": "string",
              "name": "name",
              "type": "string"
            },
            {
              "components": [
                {
                  "internalType": "string",
                  "name": "state",
                  "type": "string"
                },
                {
                  "internalType": "string",
                  "name": "district",
                  "type": "string"
                },
                {
                  "internalType": "string",
                  "name": "blockName",
                  "type": "string"
                },
                {
                  "internalType": "string",
                  "name": "panchyatName",
                  "type": "string"
                },
                {
                  "internalType": "string",
                  "name": "villageName",
                  "type": "string"
                }
              ],
              "internalType": "struct structs.Location",
              "name": "location",
              "type": "tuple"
            },
            {
              "internalType": "string",
              "name": "dateOfFormation",
              "type": "string"
            },
            {
              "internalType": "uint256",
              "name": "currentBalance",
              "type": "uint256"
            },
            {
              "internalType": "uint256",
              "name": "owedBalance",
              "type": "uint256"
            },
            {
              "internalType": "uint256[]",
              "name": "loansGiven",
              "type": "uint256[]"
            },
            {
              "internalType": "uint256[]",
              "name": "loansTaken",
              "type": "uint256[]"
            },
            {
              "internalType": "uint256",
              "name": "baseIntrest",
              "type": "uint256"
            }
          ],
          "internalType": "struct structs.SHG",
          "name": "",
          "type": "tuple"
        }
      ],
      "stateMutability": "view",
      "type": "function"
    },
    {
      "inputs": [
        {
          "internalType": "uint256",
          "name": "_shgid",
          "type": "uint256"
        },
        {
          "internalType": "uint256",
          "name": "_loanid",
          "type": "uint256"
        }
      ],
      "name": "getSHGEMI",
      "outputs": [
        {
          "internalType": "uint256",
          "name": "",
          "type": "uint256"
        }
      ],
      "stateMutability": "nonpayable",
      "type": "function"
    },
    {
      "inputs": [
        {
          "internalType": "uint256",
          "name": "shgid",
          "type": "uint256"
        }
      ],
      "name": "getSHGMembers",
      "outputs": [
        {
          "internalType": "uint256[]",
          "name": "",
          "type": "uint256[]"
        }
      ],
      "stateMutability": "view",
      "type": "function"
    },
    {
      "inputs": [
        {
          "internalType": "uint256",
          "name": "requestid",
          "type": "uint256"
        }
      ],
      "name": "getSHGRequests",
      "outputs": [
        {
          "components": [
            {
              "internalType": "uint256",
              "name": "requestid",
              "type": "uint256"
            },
            {
              "internalType": "uint256",
              "name": "shgid",
              "type": "uint256"
            },
            {
              "internalType": "uint256",
              "name": "amount",
              "type": "uint256"
            },
            {
              "internalType": "uint256",
              "name": "loanTime",
              "type": "uint256"
            },
            {
              "internalType": "enum structs.RequestStatus",
              "name": "status",
              "type": "uint8"
            }
          ],
          "internalType": "struct structs.SHGRequest",
          "name": "",
          "type": "tuple"
        }
      ],
      "stateMutability": "view",
      "type": "function"
    },
    {
      "inputs": [
        {
          "internalType": "uint256",
          "name": "userid",
          "type": "uint256"
        },
        {
          "internalType": "uint256",
          "name": "loanid",
          "type": "uint256"
        }
      ],
      "name": "getUserEMI",
      "outputs": [
        {
          "internalType": "uint256",
          "name": "",
          "type": "uint256"
        }
      ],
      "stateMutability": "nonpayable",
      "type": "function"
    },
    {
      "inputs": [
        {
          "internalType": "uint256",
          "name": "requestid",
          "type": "uint256"
        }
      ],
      "name": "getUserRequests",
      "outputs": [
        {
          "components": [
            {
              "internalType": "uint256",
              "name": "requestId",
              "type": "uint256"
            },
            {
              "internalType": "uint256",
              "name": "userId",
              "type": "uint256"
            },
            {
              "internalType": "uint256",
              "name": "amount",
              "type": "uint256"
            },
            {
              "internalType": "string",
              "name": "description",
              "type": "string"
            },
            {
              "internalType": "uint256",
              "name": "SHGId",
              "type": "uint256"
            },
            {
              "internalType": "enum structs.RequestStatus",
              "name": "status",
              "type": "uint8"
            },
            {
              "internalType": "uint256",
              "name": "loanTime",
              "type": "uint256"
            },
            {
              "internalType": "uint256[]",
              "name": "approvals",
              "type": "uint256[]"
            }
          ],
          "internalType": "struct structs.UserRequest",
          "name": "",
          "type": "tuple"
        }
      ],
      "stateMutability": "view",
      "type": "function"
    },
    {
      "inputs": [
        {
          "internalType": "uint256",
          "name": "bankid",
          "type": "uint256"
        }
      ],
      "name": "getbanks",
      "outputs": [
        {
          "components": [
            {
              "internalType": "uint256",
              "name": "id",
              "type": "uint256"
            },
            {
              "internalType": "string",
              "name": "name",
              "type": "string"
            },
            {
              "internalType": "address",
              "name": "walletAddress",
              "type": "address"
            },
            {
              "internalType": "string",
              "name": "code",
              "type": "string"
            },
            {
              "internalType": "uint256",
              "name": "intrestRate",
              "type": "uint256"
            },
            {
              "internalType": "uint256[]",
              "name": "requests",
              "type": "uint256[]"
            }
          ],
          "internalType": "struct structs.Bank",
          "name": "",
          "type": "tuple"
        }
      ],
      "stateMutability": "view",
      "type": "function"
    },
    {
      "inputs": [
        {
          "internalType": "uint256",
          "name": "_shgrequestid",
          "type": "uint256"
        },
        {
          "internalType": "uint256",
          "name": "_bankid",
          "type": "uint256"
        },
        {
          "internalType": "uint256",
          "name": "_amount",
          "type": "uint256"
        }
      ],
      "name": "grantLoan",
      "outputs": [],
      "stateMutability": "nonpayable",
      "type": "function"
    },
    {
      "inputs": [
        {
          "internalType": "uint256",
          "name": "",
          "type": "uint256"
        }
      ],
      "name": "loans",
      "outputs": [
        {
          "internalType": "uint256",
          "name": "loanId",
          "type": "uint256"
        },
        {
          "internalType": "uint256",
          "name": "lenderId",
          "type": "uint256"
        },
        {
          "internalType": "uint256",
          "name": "amount",
          "type": "uint256"
        },
        {
          "internalType": "uint256",
          "name": "lendeeId",
          "type": "uint256"
        },
        {
          "internalType": "uint256",
          "name": "intrest",
          "type": "uint256"
        },
        {
          "internalType": "uint256",
          "name": "loanTime",
          "type": "uint256"
        },
        {
          "internalType": "uint256",
          "name": "date",
          "type": "uint256"
        },
        {
          "internalType": "uint256",
          "name": "lastEMI",
          "type": "uint256"
        }
      ],
      "stateMutability": "view",
      "type": "function"
    },
    {
      "inputs": [],
      "name": "login",
      "outputs": [
        {
          "internalType": "bool",
          "name": "",
          "type": "bool"
        }
      ],
      "stateMutability": "view",
      "type": "function"
    },
    {
      "inputs": [
        {
          "internalType": "uint256",
          "name": "_shgid",
          "type": "uint256"
        },
        {
          "internalType": "uint256",
          "name": "_userid",
          "type": "uint256"
        },
        {
          "internalType": "uint256",
          "name": "_amount",
          "type": "uint256"
        },
        {
          "internalType": "string",
          "name": "_description",
          "type": "string"
        },
        {
          "internalType": "uint256",
          "name": "_loanTime",
          "type": "uint256"
        }
      ],
      "name": "makeRequest",
      "outputs": [],
      "stateMutability": "nonpayable",
      "type": "function"
    },
    {
      "inputs": [
        {
          "internalType": "uint256",
          "name": "_userid",
          "type": "uint256"
        },
        {
          "internalType": "uint256",
          "name": "_loanid",
          "type": "uint256"
        },
        {
          "internalType": "uint256",
          "name": "_amount",
          "type": "uint256"
        }
      ],
      "name": "payEMI",
      "outputs": [],
      "stateMutability": "payable",
      "type": "function"
    },
    {
      "inputs": [
        {
          "internalType": "uint256",
          "name": "userid",
          "type": "uint256"
        },
        {
          "internalType": "uint256",
          "name": "shgid",
          "type": "uint256"
        }
      ],
      "name": "removeSHGMember",
      "outputs": [],
      "stateMutability": "nonpayable",
      "type": "function"
    },
    {
      "inputs": [
        {
          "internalType": "uint256",
          "name": "_requestid",
          "type": "uint256"
        }
      ],
      "name": "sendGrant",
      "outputs": [],
      "stateMutability": "nonpayable",
      "type": "function"
    },
    {
      "inputs": [
        {
          "internalType": "uint256",
          "name": "_shgid",
          "type": "uint256"
        },
        {
          "internalType": "uint256",
          "name": "_amount",
          "type": "uint256"
        },
        {
          "internalType": "uint256",
          "name": "_loanTime",
          "type": "uint256"
        }
      ],
      "name": "sendRequestToBank",
      "outputs": [],
      "stateMutability": "nonpayable",
      "type": "function"
    },
    {
      "inputs": [
        {
          "internalType": "uint256",
          "name": "_bankid",
          "type": "uint256"
        },
        {
          "internalType": "uint256",
          "name": "_requestid",
          "type": "uint256"
        },
        {
          "internalType": "uint256",
          "name": "_amount",
          "type": "uint256"
        }
      ],
      "name": "shgLoan",
      "outputs": [],
      "stateMutability": "payable",
      "type": "function"
    },
    {
      "inputs": [
        {
          "internalType": "uint256",
          "name": "_shgid",
          "type": "uint256"
        },
        {
          "internalType": "uint256",
          "name": "_loanid",
          "type": "uint256"
        },
        {
          "internalType": "uint256",
          "name": "_amount",
          "type": "uint256"
        }
      ],
      "name": "shgPayEMI",
      "outputs": [],
      "stateMutability": "nonpayable",
      "type": "function"
    },
    {
      "inputs": [
        {
          "internalType": "uint256",
          "name": "",
          "type": "uint256"
        }
      ],
      "name": "shgRequests",
      "outputs": [
        {
          "internalType": "uint256",
          "name": "requestid",
          "type": "uint256"
        },
        {
          "internalType": "uint256",
          "name": "shgid",
          "type": "uint256"
        },
        {
          "internalType": "uint256",
          "name": "amount",
          "type": "uint256"
        },
        {
          "internalType": "uint256",
          "name": "loanTime",
          "type": "uint256"
        },
        {
          "internalType": "enum structs.RequestStatus",
          "name": "status",
          "type": "uint8"
        }
      ],
      "stateMutability": "view",
      "type": "function"
    },
    {
      "inputs": [
        {
          "internalType": "uint256",
          "name": "",
          "type": "uint256"
        }
      ],
      "name": "shgs",
      "outputs": [
        {
          "internalType": "uint256",
          "name": "id",
          "type": "uint256"
        },
        {
          "internalType": "string",
          "name": "name",
          "type": "string"
        },
        {
          "components": [
            {
              "internalType": "string",
              "name": "state",
              "type": "string"
            },
            {
              "internalType": "string",
              "name": "district",
              "type": "string"
            },
            {
              "internalType": "string",
              "name": "blockName",
              "type": "string"
            },
            {
              "internalType": "string",
              "name": "panchyatName",
              "type": "string"
            },
            {
              "internalType": "string",
              "name": "villageName",
              "type": "string"
            }
          ],
          "internalType": "struct structs.Location",
          "name": "location",
          "type": "tuple"
        },
        {
          "internalType": "string",
          "name": "dateOfFormation",
          "type": "string"
        },
        {
          "internalType": "uint256",
          "name": "currentBalance",
          "type": "uint256"
        },
        {
          "internalType": "uint256",
          "name": "owedBalance",
          "type": "uint256"
        },
        {
          "internalType": "uint256",
          "name": "baseIntrest",
          "type": "uint256"
        }
      ],
      "stateMutability": "view",
      "type": "function"
    },
    {
      "inputs": [
        {
          "internalType": "uint256",
          "name": "id",
          "type": "uint256"
        },
        {
          "internalType": "enum structs.UserType",
          "name": "updatedType",
          "type": "uint8"
        }
      ],
      "name": "updateMemberRole",
      "outputs": [],
      "stateMutability": "nonpayable",
      "type": "function"
    },
    {
      "inputs": [
        {
          "internalType": "uint256",
          "name": "",
          "type": "uint256"
        }
      ],
      "name": "userRequests",
      "outputs": [
        {
          "internalType": "uint256",
          "name": "requestId",
          "type": "uint256"
        },
        {
          "internalType": "uint256",
          "name": "userId",
          "type": "uint256"
        },
        {
          "internalType": "uint256",
          "name": "amount",
          "type": "uint256"
        },
        {
          "internalType": "string",
          "name": "description",
          "type": "string"
        },
        {
          "internalType": "uint256",
          "name": "SHGId",
          "type": "uint256"
        },
        {
          "internalType": "enum structs.RequestStatus",
          "name": "status",
          "type": "uint8"
        },
        {
          "internalType": "uint256",
          "name": "loanTime",
          "type": "uint256"
        }
      ],
      "stateMutability": "view",
      "type": "function"
    },
    {
      "inputs": [
        {
          "internalType": "uint256",
          "name": "",
          "type": "uint256"
        }
      ],
      "name": "users",
      "outputs": [
        {
          "internalType": "uint256",
          "name": "id",
          "type": "uint256"
        },
        {
          "internalType": "string",
          "name": "name",
          "type": "string"
        },
        {
          "internalType": "string",
          "name": "aadhar",
          "type": "string"
        },
        {
          "internalType": "uint256",
          "name": "mobno",
          "type": "uint256"
        },
        {
          "internalType": "string",
          "name": "fatherName",
          "type": "string"
        },
        {
          "internalType": "address",
          "name": "walletAddress",
          "type": "address"
        },
        {
          "internalType": "uint256",
          "name": "amountTaken",
          "type": "uint256"
        },
        {
          "internalType": "uint256",
          "name": "shgid",
          "type": "uint256"
        },
        {
          "internalType": "enum structs.UserType",
          "name": "userType",
          "type": "uint8"
        },
        {
          "internalType": "enum structs.Gender",
          "name": "gender",
          "type": "uint8"
        },
        {
          "components": [
            {
              "internalType": "string",
              "name": "state",
              "type": "string"
            },
            {
              "internalType": "string",
              "name": "district",
              "type": "string"
            },
            {
              "internalType": "string",
              "name": "blockName",
              "type": "string"
            },
            {
              "internalType": "string",
              "name": "panchyatName",
              "type": "string"
            },
            {
              "internalType": "string",
              "name": "villageName",
              "type": "string"
            }
          ],
          "internalType": "struct structs.Location",
          "name": "location",
          "type": "tuple"
        }
      ],
      "stateMutability": "view",
      "type": "function"
    }
  ],
  "bytecode": "0x608060405234801561001057600080fd5b5033600f60006101000a81548173ffffffffffffffffffffffffffffffffffffffff021916908373ffffffffffffffffffffffffffffffffffffffff16021790555061613a80620000626000396000f3fe6080604052600436106102035760003560e01c806361c91b7011610118578063af08a94f116100a0578063db223b4c1161006f578063db223b4c14610808578063ded9e96c14610831578063e1ec3c6814610848578063edf538861461088c578063f736ae43146108c957610203565b8063af08a94f14610726578063b34e97e814610763578063cfcb4b2f1461078e578063d3f86fb8146107cb57610203565b80637fa70fe2116100e75780637fa70fe21461062b57806394169656146106685780639bbc9ab1146106ab578063a29231fe146106d4578063a6e90a58146106fd57610203565b806361c91b701461055f578063769d0e161461059c5780637a646492146105d95780637d550bb31461060257610203565b80632c0a90a91161019b5780633ae0058f1161016a5780633ae0058f146104635780633b0ed213146104a05780633c565757146104dd57806342f5f8151461051a5780634f269c921461053657610203565b80632c0a90a9146103a15780632e131046146103ca578063365b98b2146103f357806339d8bed11461043a57610203565b806314795ce3116101d757806314795ce3146102d8578063249c4bff14610301578063257a170b1461031d57806326271cf21461035e57610203565b806285ae2b14610208578063021af397146102495780630227f4351461027257806310673f521461029b575b600080fd5b34801561021457600080fd5b5061022f600480360381019061022a9190614e2e565b6108f2565b6040516102409594939291906157bc565b60405180910390f35b34801561025557600080fd5b50610270600480360381019061026b9190614ecf565b610a58565b005b34801561027e57600080fd5b5061029960048036038101906102949190614f1e565b610c2f565b005b3480156102a757600080fd5b506102c260048036038101906102bd9190614e2e565b610e09565b6040516102cf9190615720565b60405180910390f35b3480156102e457600080fd5b506102ff60048036038101906102fa9190614c00565b61101c565b005b61031b60048036038101906103169190614ecf565b6111fc565b005b34801561032957600080fd5b50610344600480360381019061033f9190614e2e565b611405565b6040516103559594939291906159de565b60405180910390f35b34801561036a57600080fd5b5061038560048036038101906103809190614e2e565b611448565b60405161039897969594939291906158e4565b60405180910390f35b3480156103ad57600080fd5b506103c860048036038101906103c39190614e93565b61187e565b005b3480156103d657600080fd5b506103f160048036038101906103ec9190614c93565b6119d4565b005b3480156103ff57600080fd5b5061041a60048036038101906104159190614e2e565b611ef1565b6040516104319b9a9998979695949392919061581d565b60405180910390f35b34801561044657600080fd5b50610461600480360381019061045c9190614e93565b612401565b005b34801561046f57600080fd5b5061048a60048036038101906104859190614aee565b612517565b60405161049791906157a1565b60405180910390f35b3480156104ac57600080fd5b506104c760048036038101906104c29190614e2e565b61252f565b6040516104d4919061577f565b60405180910390f35b3480156104e957600080fd5b5061050460048036038101906104ff9190614e93565b612700565b60405161051191906157a1565b60405180910390f35b610534600480360381019061052f9190614ecf565b61281d565b005b34801561054257600080fd5b5061055d60048036038101906105589190614e57565b6128fb565b005b34801561056b57600080fd5b5061058660048036038101906105819190614aee565b612962565b60405161059391906157a1565b60405180910390f35b3480156105a857600080fd5b506105c360048036038101906105be9190614e93565b61297a565b6040516105d091906157a1565b60405180910390f35b3480156105e557600080fd5b5061060060048036038101906105fb9190614e93565b612a98565b005b34801561060e57600080fd5b5061062960048036038101906106249190614ecf565b612b27565b005b34801561063757600080fd5b50610652600480360381019061064d9190614e2e565b612c06565b60405161065f919061575d565b60405180910390f35b34801561067457600080fd5b5061068f600480360381019061068a9190614e2e565b613176565b6040516106a29796959493929190615968565b60405180910390f35b3480156106b757600080fd5b506106d260048036038101906106cd9190614e2e565b61324d565b005b3480156106e057600080fd5b506106fb60048036038101906106f69190614b17565b6136f5565b005b34801561070957600080fd5b50610724600480360381019061071f9190614e93565b613bdd565b005b34801561073257600080fd5b5061074d60048036038101906107489190614e2e565b613d6f565b60405161075a9190615623565b60405180910390f35b34801561076f57600080fd5b50610778613ddd565b6040516107859190615645565b60405180910390f35b34801561079a57600080fd5b506107b560048036038101906107b09190614e2e565b613e87565b6040516107c29190615623565b60405180910390f35b3480156107d757600080fd5b506107f260048036038101906107ed9190614e2e565b613f19565b6040516107ff9190615742565b60405180910390f35b34801561081457600080fd5b5061082f600480360381019061082a9190614ecf565b613ff5565b005b34801561083d57600080fd5b5061084661410f565b005b34801561085457600080fd5b5061086f600480360381019061086a9190614e2e565b614111565b604051610883989796959493929190615a31565b60405180910390f35b34801561089857600080fd5b506108b360048036038101906108ae9190614aee565b614159565b6040516108c091906157a1565b60405180910390f35b3480156108d557600080fd5b506108f060048036038101906108eb9190614e93565b614171565b005b600260205280600052604060002060009150905080600001549080600101805461091b90615db6565b80601f016020809104026020016040519081016040528092919081815260200182805461094790615db6565b80156109945780601f1061096957610100808354040283529160200191610994565b820191906000526020600020905b81548152906001019060200180831161097757829003601f168201915b5050505050908060020160009054906101000a900473ffffffffffffffffffffffffffffffffffffffff16908060030180546109cf90615db6565b80601f01602080910402602001604051908101604052809291908181526020018280546109fb90615db6565b8015610a485780601f10610a1d57610100808354040283529160200191610a48565b820191906000526020600020905b815481529060010190602001808311610a2b57829003601f168201915b5050505050908060040154905085565b82600060016000838152602001908152602001600020600001541415610a7d57600080fd5b83600080600360003373ffffffffffffffffffffffffffffffffffffffff1673ffffffffffffffffffffffffffffffffffffffff1681526020019081526020016000205481526020019081526020016000206008015414610add57600080fd5b6000600c6000815480929190610af290615e19565b9190505590506040518060a00160405280828152602001868152602001858152602001848152602001600380811115610b54577f4e487b7100000000000000000000000000000000000000000000000000000000600052602160045260246000fd5b815250600660008381526020019081526020016000206000820151816000015560208201518160010155604082015181600201556060820151816003015560808201518160040160006101000a81548160ff02191690836003811115610be3577f4e487b7100000000000000000000000000000000000000000000000000000000600052602160045260246000fd5b021790555090505060016000868152602001908152602001600020600c018190806001815401808255809150506001900390600052602060002001600090919091909150555050505050565b6000600b60008154610c4090615e19565b9190508190559050604051806101000160405280828152602001868152602001858152602001848152602001878152602001600380811115610cab577f4e487b7100000000000000000000000000000000000000000000000000000000600052602160045260246000fd5b8152602001838152602001600067ffffffffffffffff811115610cf7577f4e487b7100000000000000000000000000000000000000000000000000000000600052604160045260246000fd5b604051908082528060200260200182016040528015610d255781602001602082028036833780820191505090505b50815250600560008381526020019081526020016000206000820151816000015560208201518160010155604082015181600201556060820151816003019080519060200190610d76929190614593565b506080820151816004015560a08201518160050160006101000a81548160ff02191690836003811115610dd2577f4e487b7100000000000000000000000000000000000000000000000000000000600052602160045260246000fd5b021790555060c0820151816006015560e0820151816007019080519060200190610dfd929190614619565b50905050505050505050565b610e11614666565b600260008381526020019081526020016000206040518060c001604052908160008201548152602001600182018054610e4990615db6565b80601f0160208091040260200160405190810160405280929190818152602001828054610e7590615db6565b8015610ec25780601f10610e9757610100808354040283529160200191610ec2565b820191906000526020600020905b815481529060010190602001808311610ea557829003601f168201915b505050505081526020016002820160009054906101000a900473ffffffffffffffffffffffffffffffffffffffff1673ffffffffffffffffffffffffffffffffffffffff1673ffffffffffffffffffffffffffffffffffffffff168152602001600382018054610f3190615db6565b80601f0160208091040260200160405190810160405280929190818152602001828054610f5d90615db6565b8015610faa5780601f10610f7f57610100808354040283529160200191610faa565b820191906000526020600020905b815481529060010190602001808311610f8d57829003601f168201915b50505050508152602001600482015481526020016005820180548060200260200160405190810160405280929190818152602001828054801561100c57602002820191906000526020600020905b815481526020019060010190808311610ff8575b5050505050815250509050919050565b6000600d6000815461102d90615e19565b91905081905590506040518060c001604052808281526020018681526020018573ffffffffffffffffffffffffffffffffffffffff168152602001848152602001838152602001600067ffffffffffffffff8111156110b5577f4e487b7100000000000000000000000000000000000000000000000000000000600052604160045260246000fd5b6040519080825280602002602001820160405280156110e35781602001602082028036833780820191505090505b5081525060026000838152602001908152602001600020600082015181600001556020820151816001019080519060200190611120929190614593565b5060408201518160020160006101000a81548173ffffffffffffffffffffffffffffffffffffffff021916908373ffffffffffffffffffffffffffffffffffffffff1602179055506060820151816003019080519060200190611184929190614593565b506080820151816004015560a08201518160050190805190602001906111ab929190614619565b50905050600d54600860008673ffffffffffffffffffffffffffffffffffffffff1673ffffffffffffffffffffffffffffffffffffffff168152602001908152602001600020819055505050505050565b8260006002600083815260200190815260200160002060000154141561122157600080fd5b6000604051806101000160405280600e6000815461123e90615e19565b9190508190558152602001600660008781526020019081526020016000206001015481526020018481526020018681526020016002600088815260200190815260200160002060040154815260200160066000878152602001908152602001600020600301548152602001428152602001600081525090506001600060066000878152602001908152602001600020600101548152602001908152602001600020600c01600e5490806001815401808255809150506001900390600052602060002001600090919091909150553073ffffffffffffffffffffffffffffffffffffffff166108fc849081150290604051600060405180830381858888f19350505050158015611351573d6000803e3d6000fd5b50826001600060066000888152602001908152602001600020600101548152602001908152602001600020600901600082825461138e9190615ba8565b925050819055508060046000600e548152602001908152602001600020600082015181600001556020820151816001015560408201518160020155606082015181600301556080820151816004015560a0820151816005015560c0820151816006015560e082015181600701559050505050505050565b60066020528060005260406000206000915090508060000154908060010154908060020154908060030154908060040160009054906101000a900460ff16905085565b600160205280600052604060002060009150905080600001549080600201805461147190615db6565b80601f016020809104026020016040519081016040528092919081815260200182805461149d90615db6565b80156114ea5780601f106114bf576101008083540402835291602001916114ea565b820191906000526020600020905b8154815290600101906020018083116114cd57829003601f168201915b505050505090806003016040518060a001604052908160008201805461150f90615db6565b80601f016020809104026020016040519081016040528092919081815260200182805461153b90615db6565b80156115885780601f1061155d57610100808354040283529160200191611588565b820191906000526020600020905b81548152906001019060200180831161156b57829003601f168201915b505050505081526020016001820180546115a190615db6565b80601f01602080910402602001604051908101604052809291908181526020018280546115cd90615db6565b801561161a5780601f106115ef5761010080835404028352916020019161161a565b820191906000526020600020905b8154815290600101906020018083116115fd57829003601f168201915b5050505050815260200160028201805461163390615db6565b80601f016020809104026020016040519081016040528092919081815260200182805461165f90615db6565b80156116ac5780601f10611681576101008083540402835291602001916116ac565b820191906000526020600020905b81548152906001019060200180831161168f57829003601f168201915b505050505081526020016003820180546116c590615db6565b80601f01602080910402602001604051908101604052809291908181526020018280546116f190615db6565b801561173e5780601f106117135761010080835404028352916020019161173e565b820191906000526020600020905b81548152906001019060200180831161172157829003601f168201915b5050505050815260200160048201805461175790615db6565b80601f016020809104026020016040519081016040528092919081815260200182805461178390615db6565b80156117d05780601f106117a5576101008083540402835291602001916117d0565b820191906000526020600020905b8154815290600101906020018083116117b357829003601f168201915b505050505081525050908060080180546117e990615db6565b80601f016020809104026020016040519081016040528092919081815260200182805461181590615db6565b80156118625780601f1061183757610100808354040283529160200191611862565b820191906000526020600020905b81548152906001019060200180831161184557829003601f168201915b50505050509080600901549080600a01549080600d0154905087565b806000600160008381526020019081526020016000206000015414156118a357600080fd5b6000600560008581526020019081526020016000209050828160040154146118ca57600080fd5b6118d38461427b565b6118dc57600080fd5b80600701600360003373ffffffffffffffffffffffffffffffffffffffff1673ffffffffffffffffffffffffffffffffffffffff1681526020019081526020016000205490806001815401808255809150506001900390600052602060002001600090919091909150556002600160008581526020019081526020016000206001018054905061196c9190615bfe565b816007018054905011156119ce5760008160050160006101000a81548160ff021916908360038111156119c8577f4e487b7100000000000000000000000000000000000000000000000000000000600052602160045260246000fd5b02179055505b50505050565b3373ffffffffffffffffffffffffffffffffffffffff16600080600360003373ffffffffffffffffffffffffffffffffffffffff1673ffffffffffffffffffffffffffffffffffffffff16815260200190815260200160002054815260200190815260200160002060050160009054906101000a900473ffffffffffffffffffffffffffffffffffffffff1673ffffffffffffffffffffffffffffffffffffffff161415611ab7576040517f08c379a0000000000000000000000000000000000000000000000000000000008152600401611aae90615680565b60405180910390fd5b6000600960008154611ac890615e19565b919050819055905080600360003373ffffffffffffffffffffffffffffffffffffffff1673ffffffffffffffffffffffffffffffffffffffff1681526020019081526020016000208190555060006040518060a0016040528088815260200187815260200186815260200185815260200184815250905060405180610180016040528060096000815480929190611b5e90615e19565b9190505581526020018d81526020018c81526020018b81526020018a81526020013373ffffffffffffffffffffffffffffffffffffffff168152602001600067ffffffffffffffff811115611bdc577f4e487b7100000000000000000000000000000000000000000000000000000000600052604160045260246000fd5b604051908082528060200260200182016040528015611c0a5781602001602082028036833780820191505090505b508152602001600081526020016000815260200160046005811115611c58577f4e487b7100000000000000000000000000000000000000000000000000000000600052602160045260246000fd5b8152602001896002811115611c96577f4e487b7100000000000000000000000000000000000000000000000000000000600052602160045260246000fd5b815260200182815250600080848152602001908152602001600020600082015181600001556020820151816001019080519060200190611cd7929190614593565b506040820151816002019080519060200190611cf4929190614593565b50606082015181600301556080820151816004019080519060200190611d1b929190614593565b5060a08201518160050160006101000a81548173ffffffffffffffffffffffffffffffffffffffff021916908373ffffffffffffffffffffffffffffffffffffffff16021790555060c0820151816006019080519060200190611d7f929190614619565b5060e0820151816007015561010082015181600801556101208201518160090160006101000a81548160ff02191690836005811115611de7577f4e487b7100000000000000000000000000000000000000000000000000000000600052602160045260246000fd5b02179055506101408201518160090160016101000a81548160ff02191690836002811115611e3e577f4e487b7100000000000000000000000000000000000000000000000000000000600052602160045260246000fd5b021790555061016082015181600a016000820151816000019080519060200190611e69929190614593565b506020820151816001019080519060200190611e86929190614593565b506040820151816002019080519060200190611ea3929190614593565b506060820151816003019080519060200190611ec0929190614593565b506080820151816004019080519060200190611edd929190614593565b505050905050505050505050505050505050565b6000602052806000526040600020600091509050806000015490806001018054611f1a90615db6565b80601f0160208091040260200160405190810160405280929190818152602001828054611f4690615db6565b8015611f935780601f10611f6857610100808354040283529160200191611f93565b820191906000526020600020905b815481529060010190602001808311611f7657829003601f168201915b505050505090806002018054611fa890615db6565b80601f0160208091040260200160405190810160405280929190818152602001828054611fd490615db6565b80156120215780601f10611ff657610100808354040283529160200191612021565b820191906000526020600020905b81548152906001019060200180831161200457829003601f168201915b50505050509080600301549080600401805461203c90615db6565b80601f016020809104026020016040519081016040528092919081815260200182805461206890615db6565b80156120b55780601f1061208a576101008083540402835291602001916120b5565b820191906000526020600020905b81548152906001019060200180831161209857829003601f168201915b5050505050908060050160009054906101000a900473ffffffffffffffffffffffffffffffffffffffff16908060070154908060080154908060090160009054906101000a900460ff16908060090160019054906101000a900460ff169080600a016040518060a001604052908160008201805461213290615db6565b80601f016020809104026020016040519081016040528092919081815260200182805461215e90615db6565b80156121ab5780601f10612180576101008083540402835291602001916121ab565b820191906000526020600020905b81548152906001019060200180831161218e57829003601f168201915b505050505081526020016001820180546121c490615db6565b80601f01602080910402602001604051908101604052809291908181526020018280546121f090615db6565b801561223d5780601f106122125761010080835404028352916020019161223d565b820191906000526020600020905b81548152906001019060200180831161222057829003601f168201915b5050505050815260200160028201805461225690615db6565b80601f016020809104026020016040519081016040528092919081815260200182805461228290615db6565b80156122cf5780601f106122a4576101008083540402835291602001916122cf565b820191906000526020600020905b8154815290600101906020018083116122b257829003601f168201915b505050505081526020016003820180546122e890615db6565b80601f016020809104026020016040519081016040528092919081815260200182805461231490615db6565b80156123615780601f1061233657610100808354040283529160200191612361565b820191906000526020600020905b81548152906001019060200180831161234457829003601f168201915b5050505050815260200160048201805461237a90615db6565b80601f01602080910402602001604051908101604052809291908181526020018280546123a690615db6565b80156123f35780601f106123c8576101008083540402835291602001916123f3565b820191906000526020600020905b8154815290600101906020018083116123d657829003601f168201915b50505050508152505090508b565b806000808481526020019081526020016000206008015414612458576040517f08c379a000000000000000000000000000000000000000000000000000000000815260040161244f906156c0565b60405180910390fd5b8060008084815260200190815260200160002060080181905550600360008084815260200190815260200160002060090160006101000a81548160ff021916908360058111156124d1577f4e487b7100000000000000000000000000000000000000000000000000000000600052602160045260246000fd5b0217905550600160008281526020019081526020016000206001018290806001815401808255809150506001900390600052602060002001600090919091909150555050565b60076020528060005260406000206000915090505481565b6125376146b2565b600560008381526020019081526020016000206040518061010001604052908160008201548152602001600182015481526020016002820154815260200160038201805461258490615db6565b80601f01602080910402602001604051908101604052809291908181526020018280546125b090615db6565b80156125fd5780601f106125d2576101008083540402835291602001916125fd565b820191906000526020600020905b8154815290600101906020018083116125e057829003601f168201915b50505050508152602001600482015481526020016005820160009054906101000a900460ff16600381111561265b577f4e487b7100000000000000000000000000000000000000000000000000000000600052602160045260246000fd5b6003811115612693577f4e487b7100000000000000000000000000000000000000000000000000000000600052602160045260246000fd5b815260200160068201548152602001600782018054806020026020016040519081016040528092919081815260200182805480156126f057602002820191906000526020600020905b8154815260200190600101908083116126dc575b5050505050815250509050919050565b600082600080600083815260200190815260200160002060000154141561272657600080fd5b60006004600085815260200190815260200160002090506000601e603c8060188560070154426127569190615c89565b6127609190615bfe565b61276a9190615c2f565b6127749190615c2f565b61277e9190615c2f565b90506000811161278d57600080fd5b60008260020154905060008360040154905060008460050154905060008382600c6127b89190615c2f565b6127c29190615c89565b600c6064856127d19190615bfe565b6127db9190615c2f565b60016127e79190615ba8565b856127f29190615c2f565b1890508086600201546128059190615c89565b86600201819055508097505050505050505092915050565b82600080600083815260200190815260200160002060000154141561284157600080fd5b600061284d8585612700565b905082811461285b57600080fd5b60006004600086815260200190815260200160002090503073ffffffffffffffffffffffffffffffffffffffff166108fc859081150290604051600060405180830381858888f193505050501580156128b8573d6000803e3d6000fd5b5083600160008360030154815260200190815260200160002060090160008282546128e39190615ba8565b92505081905550428160070181905550505050505050565b8060008084815260200190815260200160002060090160006101000a81548160ff02191690836005811115612959577f4e487b7100000000000000000000000000000000000000000000000000000000600052602160045260246000fd5b02179055505050565b60086020528060005260406000206000915090505481565b6000826000600160008381526020019081526020016000206000015414156129a157600080fd5b60006004600085815260200190815260200160002090506000601e603c8060188560070154426129d19190615c89565b6129db9190615bfe565b6129e59190615c2f565b6129ef9190615c2f565b6129f99190615c2f565b905060008111612a0857600080fd5b60008260020154905060008360040154905060008460050154905060008382600c612a339190615c2f565b612a3d9190615c89565b600c606485612a4c9190615bfe565b612a569190615c2f565b6001612a629190615ba8565b85612a6d9190615c2f565b189050808660020154612a809190615c89565b86600201819055508097505050505050505092915050565b80600060026000838152602001908152602001600020600001541415612abd57600080fd5b60006006600085815260200190815260200160002060040160006101000a81548160ff02191690836003811115612b1d577f4e487b7100000000000000000000000000000000000000000000000000000000600052602160045260246000fd5b0217905550505050565b82600060016000838152602001908152602001600020600001541415612b4c57600080fd5b6000612b58858561297a565b9050828114612b6657600080fd5b60006004600086815260200190815260200160002090503073ffffffffffffffffffffffffffffffffffffffff166108fc859081150290604051600060405180830381858888f19350505050158015612bc3573d6000803e3d6000fd5b508360016000836003015481526020019081526020016000206009016000828254612bee9190615ba8565b92505081905550428160070181905550505050505050565b612c0e61472f565b60016000838152602001908152602001600020604051806101400160405290816000820154815260200160018201805480602002602001604051908101604052809291908181526020018280548015612c8657602002820191906000526020600020905b815481526020019060010190808311612c72575b50505050508152602001600282018054612c9f90615db6565b80601f0160208091040260200160405190810160405280929190818152602001828054612ccb90615db6565b8015612d185780601f10612ced57610100808354040283529160200191612d18565b820191906000526020600020905b815481529060010190602001808311612cfb57829003601f168201915b50505050508152602001600382016040518060a0016040529081600082018054612d4190615db6565b80601f0160208091040260200160405190810160405280929190818152602001828054612d6d90615db6565b8015612dba5780601f10612d8f57610100808354040283529160200191612dba565b820191906000526020600020905b815481529060010190602001808311612d9d57829003601f168201915b50505050508152602001600182018054612dd390615db6565b80601f0160208091040260200160405190810160405280929190818152602001828054612dff90615db6565b8015612e4c5780601f10612e2157610100808354040283529160200191612e4c565b820191906000526020600020905b815481529060010190602001808311612e2f57829003601f168201915b50505050508152602001600282018054612e6590615db6565b80601f0160208091040260200160405190810160405280929190818152602001828054612e9190615db6565b8015612ede5780601f10612eb357610100808354040283529160200191612ede565b820191906000526020600020905b815481529060010190602001808311612ec157829003601f168201915b50505050508152602001600382018054612ef790615db6565b80601f0160208091040260200160405190810160405280929190818152602001828054612f2390615db6565b8015612f705780601f10612f4557610100808354040283529160200191612f70565b820191906000526020600020905b815481529060010190602001808311612f5357829003601f168201915b50505050508152602001600482018054612f8990615db6565b80601f0160208091040260200160405190810160405280929190818152602001828054612fb590615db6565b80156130025780601f10612fd757610100808354040283529160200191613002565b820191906000526020600020905b815481529060010190602001808311612fe557829003601f168201915b505050505081525050815260200160088201805461301f90615db6565b80601f016020809104026020016040519081016040528092919081815260200182805461304b90615db6565b80156130985780601f1061306d57610100808354040283529160200191613098565b820191906000526020600020905b81548152906001019060200180831161307b57829003601f168201915b5050505050815260200160098201548152602001600a8201548152602001600b820180548060200260200160405190810160405280929190818152602001828054801561310457602002820191906000526020600020905b8154815260200190600101908083116130f0575b50505050508152602001600c820180548060200260200160405190810160405280929190818152602001828054801561315c57602002820191906000526020600020905b815481526020019060010190808311613148575b50505050508152602001600d820154815250509050919050565b60056020528060005260406000206000915090508060000154908060010154908060020154908060030180546131ab90615db6565b80601f01602080910402602001604051908101604052809291908181526020018280546131d790615db6565b80156132245780601f106131f957610100808354040283529160200191613224565b820191906000526020600020905b81548152906001019060200180831161320757829003601f168201915b5050505050908060040154908060050160009054906101000a900460ff16908060060154905087565b60026005811115613287577f4e487b7100000000000000000000000000000000000000000000000000000000600052602160045260246000fd5b600080600360003373ffffffffffffffffffffffffffffffffffffffff1673ffffffffffffffffffffffffffffffffffffffff16815260200190815260200160002054815260200190815260200160002060090160009054906101000a900460ff166005811115613321577f4e487b7100000000000000000000000000000000000000000000000000000000600052602160045260246000fd5b14613361576040517f08c379a000000000000000000000000000000000000000000000000000000000815260040161335890615700565b60405180910390fd5b6000600381111561339b577f4e487b7100000000000000000000000000000000000000000000000000000000600052602160045260246000fd5b6005600083815260200190815260200160002060050160009054906101000a900460ff1660038111156133f7577f4e487b7100000000000000000000000000000000000000000000000000000000600052602160045260246000fd5b14613437576040517f08c379a000000000000000000000000000000000000000000000000000000000815260040161342e906156e0565b60405180910390fd5b600060056000838152602001908152602001600020905060018160050160006101000a81548160ff0219169083600381111561349c577f4e487b7100000000000000000000000000000000000000000000000000000000600052602160045260246000fd5b02179055506000604051806101000160405280600e600081546134be90615e19565b91905081905581526020018360040154815260200183600201548152602001836001015481526020016001600085600401548152602001908152602001600020600d0154815260200183600601548152602001428152602001600081525090508060046000600e548152602001908152602001600020600082015181600001556020820151816001015560408201518160020155606082015181600301556080820151816004015560a0820151816005015560c0820151816006015560e082015181600701559050506001600083600401548152602001908152602001600020600b01600e54908060018154018082558091505060019003906000526020600020016000909190919091505560008083600101548152602001908152602001600020600601600e5490806001815401808255809150506001900390600052602060002001600090919091909150558160020154600160008460040154815260200190815260200160002060090154101561363757600080fd5b6000808360010154815260200190815260200160002060050160009054906101000a900473ffffffffffffffffffffffffffffffffffffffff1673ffffffffffffffffffffffffffffffffffffffff166108fc83600201549081150290604051600060405180830381858888f193505050501580156136ba573d6000803e3d6000fd5b508160020154600160008460040154815260200190815260200160002060090160008282546136e99190615c89565b92505081905550505050565b60078651101561373a576040517f08c379a000000000000000000000000000000000000000000000000000000000815260040161373190615660565b60405180910390fd5b6000600a6000815461374b90615e19565b91905081905590506040518061014001604052808281526020018881526020018681526020018581526020018481526020016000815260200160008152602001600067ffffffffffffffff8111156137cc577f4e487b7100000000000000000000000000000000000000000000000000000000600052604160045260246000fd5b6040519080825280602002602001820160405280156137fa5781602001602082028036833780820191505090505b508152602001600067ffffffffffffffff811115613841577f4e487b7100000000000000000000000000000000000000000000000000000000600052604160045260246000fd5b60405190808252806020026020018201604052801561386f5781602001602082028036833780820191505090505b50815260200183815250600160008381526020019081526020016000206000820151816000015560208201518160010190805190602001906138b2929190614619565b5060408201518160020190805190602001906138cf929190614593565b5060608201518160030160008201518160000190805190602001906138f5929190614593565b506020820151816001019080519060200190613912929190614593565b50604082015181600201908051906020019061392f929190614593565b50606082015181600301908051906020019061394c929190614593565b506080820151816004019080519060200190613969929190614593565b5050506080820151816008019080519060200190613988929190614593565b5060a0820151816009015560c082015181600a015560e082015181600b0190805190602001906139b9929190614619565b5061010082015181600c0190805190602001906139d7929190614619565b5061012082015181600d015590505060005b8751811015613af85786888281518110613a2c577f4e487b7100000000000000000000000000000000000000000000000000000000600052603260045260246000fd5b602002602001015114613a40576003613a43565b60005b6000808a8481518110613a7f577f4e487b7100000000000000000000000000000000000000000000000000000000600052603260045260246000fd5b6020026020010151815260200190815260200160002060090160006101000a81548160ff02191690836005811115613ae0577f4e487b7100000000000000000000000000000000000000000000000000000000600052602160045260246000fd5b02179055508080613af090615e19565b9150506139e9565b5060005b8751811015613bd357600a54600760008060008c8681518110613b48577f4e487b7100000000000000000000000000000000000000000000000000000000600052603260045260246000fd5b6020026020010151815260200190815260200160002060050160009054906101000a900473ffffffffffffffffffffffffffffffffffffffff1673ffffffffffffffffffffffffffffffffffffffff1673ffffffffffffffffffffffffffffffffffffffff168152602001908152602001600020819055508080613bcb90615e19565b915050613afc565b5050505050505050565b6000600160008381526020019081526020016000209050613c5081600101805480602002602001604051908101604052809291908181526020018280548015613c4557602002820191906000526020600020905b815481526020019060010190808311613c31575b505050505083614359565b613c8f576040517f08c379a0000000000000000000000000000000000000000000000000000000008152600401613c86906156a0565b60405180910390fd5b6000613ced82600101805480602002602001604051908101604052809291908181526020018280548015613ce257602002820191906000526020600020905b815481526020019060010190808311613cce575b5050505050856143e7565b90506000613d4d83600101805480602002602001604051908101604052809291908181526020018280548015613d4257602002820191906000526020600020905b815481526020019060010190808311613d2e575b505050505083614468565b905080836001019080519060200190613d67929190614619565b505050505050565b606060016000838152602001908152602001600020600101805480602002602001604051908101604052809291908181526020018280548015613dd157602002820191906000526020600020905b815481526020019060010190808311613dbd575b50505050509050919050565b60003373ffffffffffffffffffffffffffffffffffffffff16600080600360003373ffffffffffffffffffffffffffffffffffffffff1673ffffffffffffffffffffffffffffffffffffffff16815260200190815260200160002054815260200190815260200160002060050160009054906101000a900473ffffffffffffffffffffffffffffffffffffffff1673ffffffffffffffffffffffffffffffffffffffff1614905090565b6060816000806000838152602001908152602001600020600001541415613ead57600080fd5b600080848152602001908152602001600020600601805480602002602001604051908101604052809291908181526020018280548015613f0c57602002820191906000526020600020905b815481526020019060010190808311613ef8575b5050505050915050919050565b613f21614788565b600660008381526020019081526020016000206040518060a0016040529081600082015481526020016001820154815260200160028201548152602001600382015481526020016004820160009054906101000a900460ff166003811115613fb2577f4e487b7100000000000000000000000000000000000000000000000000000000600052602160045260246000fd5b6003811115613fea577f4e487b7100000000000000000000000000000000000000000000000000000000600052602160045260246000fd5b815250509050919050565b8160006002600083815260200190815260200160002060000154141561401a57600080fd5b3073ffffffffffffffffffffffffffffffffffffffff166108fc839081150290604051600060405180830381858888f19350505050158015614060573d6000803e3d6000fd5b5060016006600086815260200190815260200160002060040160006101000a81548160ff021916908360038111156140c1577f4e487b7100000000000000000000000000000000000000000000000000000000600052602160045260246000fd5b021790555081600160006006600088815260200190815260200160002060010154815260200190815260200160002060090160008282546141029190615ba8565b9250508190555050505050565b565b60046020528060005260406000206000915090508060000154908060010154908060020154908060030154908060040154908060050154908060060154908060070154905088565b60036020528060005260406000206000915090505481565b81600080600083815260200190815260200160002060000154141561419557600080fd5b826005600084815260200190815260200160002060010154146141b757600080fd5b600080600090505b600b548110156142025784600560008381526020019081526020016000206001015414156141ef57809150614202565b80806141fa90615e19565b9150506141bf565b50600560008281526020019081526020016000206000808201600090556001820160009055600282016000905560038201600061423f91906147ef565b60048201600090556005820160006101000a81549060ff02191690556006820160009055600782016000614273919061482f565b505050505050565b60008060056000848152602001908152602001600020600701905060005b818054905081101561434d57600360003373ffffffffffffffffffffffffffffffffffffffff1673ffffffffffffffffffffffffffffffffffffffff1681526020019081526020016000205482828154811061431e577f4e487b7100000000000000000000000000000000000000000000000000000000600052603260045260246000fd5b9060005260206000200154141561433a57600092505050614354565b808061434590615e19565b915050614299565b5060019150505b919050565b600080600090505b6001845161436f9190615c89565b8110156143db57828482815181106143b0577f4e487b7100000000000000000000000000000000000000000000000000000000600052603260045260246000fd5b602002602001015114156143c85760019150506143e1565b80806143d390615e19565b915050614361565b50600090505b92915050565b600080600090505b835181101561445c5782848281518110614432577f4e487b7100000000000000000000000000000000000000000000000000000000600052603260045260246000fd5b602002602001015114156144495780915050614462565b808061445490615e19565b9150506143ef565b50600090505b92915050565b60608251821061447757600080fd5b60008290505b6001845161448b9190615c89565b81101561453757836001826144a09190615ba8565b815181106144d7577f4e487b7100000000000000000000000000000000000000000000000000000000600052603260045260246000fd5b6020026020010151848281518110614518577f4e487b7100000000000000000000000000000000000000000000000000000000600052603260045260246000fd5b602002602001018181525050808061452f90615e19565b91505061447d565b5082600184516145479190615c89565b8151811061457e577f4e487b7100000000000000000000000000000000000000000000000000000000600052603260045260246000fd5b60200260200101600081525082905092915050565b82805461459f90615db6565b90600052602060002090601f0160209004810192826145c15760008555614608565b82601f106145da57805160ff1916838001178555614608565b82800160010185558215614608579182015b828111156146075782518255916020019190600101906145ec565b5b5090506146159190614850565b5090565b828054828255906000526020600020908101928215614655579160200282015b82811115614654578251825591602001919060010190614639565b5b5090506146629190614850565b5090565b6040518060c001604052806000815260200160608152602001600073ffffffffffffffffffffffffffffffffffffffff1681526020016060815260200160008152602001606081525090565b60405180610100016040528060008152602001600081526020016000815260200160608152602001600081526020016000600381111561471b577f4e487b7100000000000000000000000000000000000000000000000000000000600052602160045260246000fd5b815260200160008152602001606081525090565b60405180610140016040528060008152602001606081526020016060815260200161475861486d565b81526020016060815260200160008152602001600081526020016060815260200160608152602001600081525090565b6040518060a0016040528060008152602001600081526020016000815260200160008152602001600060038111156147e9577f4e487b7100000000000000000000000000000000000000000000000000000000600052602160045260246000fd5b81525090565b5080546147fb90615db6565b6000825580601f1061480d575061482c565b601f01602090049060005260206000209081019061482b9190614850565b5b50565b508054600082559060005260206000209081019061484d9190614850565b50565b5b80821115614869576000816000905550600101614851565b5090565b6040518060a0016040528060608152602001606081526020016060815260200160608152602001606081525090565b60006148af6148aa84615ad4565b615aaf565b905080838252602082019050828560208602820111156148ce57600080fd5b60005b858110156148fe57816148e48882614ad9565b8452602084019350602083019250506001810190506148d1565b5050509392505050565b600061491b61491684615b00565b615aaf565b90508281526020810184848401111561493357600080fd5b61493e848285615d74565b509392505050565b600081359050614955816160b6565b92915050565b600082601f83011261496c57600080fd5b813561497c84826020860161489c565b91505092915050565b600081359050614994816160cd565b92915050565b6000813590506149a9816160dd565b92915050565b600082601f8301126149c057600080fd5b81356149d0848260208601614908565b91505092915050565b600060a082840312156149eb57600080fd5b6149f560a0615aaf565b9050600082013567ffffffffffffffff811115614a1157600080fd5b614a1d848285016149af565b600083015250602082013567ffffffffffffffff811115614a3d57600080fd5b614a49848285016149af565b602083015250604082013567ffffffffffffffff811115614a6957600080fd5b614a75848285016149af565b604083015250606082013567ffffffffffffffff811115614a9557600080fd5b614aa1848285016149af565b606083015250608082013567ffffffffffffffff811115614ac157600080fd5b614acd848285016149af565b60808301525092915050565b600081359050614ae8816160ed565b92915050565b600060208284031215614b0057600080fd5b6000614b0e84828501614946565b91505092915050565b60008060008060008060c08789031215614b3057600080fd5b600087013567ffffffffffffffff811115614b4a57600080fd5b614b5689828a0161495b565b9650506020614b6789828a01614ad9565b955050604087013567ffffffffffffffff811115614b8457600080fd5b614b9089828a016149af565b945050606087013567ffffffffffffffff811115614bad57600080fd5b614bb989828a016149d9565b935050608087013567ffffffffffffffff811115614bd657600080fd5b614be289828a016149af565b92505060a0614bf389828a01614ad9565b9150509295509295509295565b60008060008060808587031215614c1657600080fd5b600085013567ffffffffffffffff811115614c3057600080fd5b614c3c878288016149af565b9450506020614c4d87828801614946565b935050604085013567ffffffffffffffff811115614c6a57600080fd5b614c76878288016149af565b9250506060614c8787828801614ad9565b91505092959194509250565b6000806000806000806000806000806101408b8d031215614cb357600080fd5b60008b013567ffffffffffffffff811115614ccd57600080fd5b614cd98d828e016149af565b9a505060208b013567ffffffffffffffff811115614cf657600080fd5b614d028d828e016149af565b9950506040614d138d828e01614ad9565b98505060608b013567ffffffffffffffff811115614d3057600080fd5b614d3c8d828e016149af565b9750506080614d4d8d828e01614985565b96505060a08b013567ffffffffffffffff811115614d6a57600080fd5b614d768d828e016149af565b95505060c08b013567ffffffffffffffff811115614d9357600080fd5b614d9f8d828e016149af565b94505060e08b013567ffffffffffffffff811115614dbc57600080fd5b614dc88d828e016149af565b9350506101008b013567ffffffffffffffff811115614de657600080fd5b614df28d828e016149af565b9250506101208b013567ffffffffffffffff811115614e1057600080fd5b614e1c8d828e016149af565b9150509295989b9194979a5092959850565b600060208284031215614e4057600080fd5b6000614e4e84828501614ad9565b91505092915050565b60008060408385031215614e6a57600080fd5b6000614e7885828601614ad9565b9250506020614e898582860161499a565b9150509250929050565b60008060408385031215614ea657600080fd5b6000614eb485828601614ad9565b9250506020614ec585828601614ad9565b9150509250929050565b600080600060608486031215614ee457600080fd5b6000614ef286828701614ad9565b9350506020614f0386828701614ad9565b9250506040614f1486828701614ad9565b9150509250925092565b600080600080600060a08688031215614f3657600080fd5b6000614f4488828901614ad9565b9550506020614f5588828901614ad9565b9450506040614f6688828901614ad9565b935050606086013567ffffffffffffffff811115614f8357600080fd5b614f8f888289016149af565b9250506080614fa088828901614ad9565b9150509295509295909350565b6000614fb98383615605565b60208301905092915050565b614fce81615cbd565b82525050565b614fdd81615cbd565b82525050565b6000614fee82615b41565b614ff88185615b64565b935061500383615b31565b8060005b8381101561503457815161501b8882614fad565b975061502683615b57565b925050600181019050615007565b5085935050505092915050565b600061504c82615b41565b6150568185615b75565b935061506183615b31565b8060005b838110156150925781516150798882614fad565b975061508483615b57565b925050600181019050615065565b5085935050505092915050565b6150a881615ccf565b82525050565b6150b781615d3e565b82525050565b6150c681615d50565b82525050565b6150d581615d50565b82525050565b6150e481615d62565b82525050565b60006150f582615b4c565b6150ff8185615b86565b935061510f818560208601615d83565b61511881615f4d565b840191505092915050565b600061512e82615b4c565b6151388185615b97565b9350615148818560208601615d83565b61515181615f4d565b840191505092915050565b6000615169601a83615b97565b915061517482615f5e565b602082019050919050565b600061518c601283615b97565b915061519782615f87565b602082019050919050565b60006151af602583615b97565b91506151ba82615fb0565b604082019050919050565b60006151d2601283615b97565b91506151dd82615fff565b602082019050919050565b60006151f5601283615b97565b915061520082616028565b602082019050919050565b6000615218601383615b97565b915061522382616051565b602082019050919050565b600060c0830160008301516152466000860182615605565b506020830151848203602086015261525e82826150ea565b91505060408301516152736040860182614fc5565b506060830151848203606086015261528b82826150ea565b91505060808301516152a06080860182615605565b5060a083015184820360a08601526152b88282614fe3565b9150508091505092915050565b600060a08301600083015184820360008601526152e282826150ea565b915050602083015184820360208601526152fc82826150ea565b9150506040830151848203604086015261531682826150ea565b9150506060830151848203606086015261533082826150ea565b9150506080830151848203608086015261534a82826150ea565b9150508091505092915050565b600060a083016000830151848203600086015261537482826150ea565b9150506020830151848203602086015261538e82826150ea565b915050604083015184820360408601526153a882826150ea565b915050606083015184820360608601526153c282826150ea565b915050608083015184820360808601526153dc82826150ea565b9150508091505092915050565b60a0820160008201516153ff6000850182615605565b5060208201516154126020850182615605565b5060408201516154256040850182615605565b5060608201516154386060850182615605565b50608082015161544b60808501826150bd565b50505050565b60006101408301600083015161546a6000860182615605565b50602083015184820360208601526154828282614fe3565b9150506040830151848203604086015261549c82826150ea565b915050606083015184820360608601526154b682826152c5565b915050608083015184820360808601526154d082826150ea565b91505060a08301516154e560a0860182615605565b5060c08301516154f860c0860182615605565b5060e083015184820360e08601526155108282614fe3565b91505061010083015184820361010086015261552c8282614fe3565b915050610120830151615543610120860182615605565b508091505092915050565b6000610100830160008301516155676000860182615605565b50602083015161557a6020860182615605565b50604083015161558d6040860182615605565b50606083015184820360608601526155a582826150ea565b91505060808301516155ba6080860182615605565b5060a08301516155cd60a08601826150bd565b5060c08301516155e060c0860182615605565b5060e083015184820360e08601526155f88282614fe3565b9150508091505092915050565b61560e81615d34565b82525050565b61561d81615d34565b82525050565b6000602082019050818103600083015261563d8184615041565b905092915050565b600060208201905061565a600083018461509f565b92915050565b600060208201905081810360008301526156798161515c565b9050919050565b600060208201905081810360008301526156998161517f565b9050919050565b600060208201905081810360008301526156b9816151a2565b9050919050565b600060208201905081810360008301526156d9816151c5565b9050919050565b600060208201905081810360008301526156f9816151e8565b9050919050565b600060208201905081810360008301526157198161520b565b9050919050565b6000602082019050818103600083015261573a818461522e565b905092915050565b600060a08201905061575760008301846153e9565b92915050565b600060208201905081810360008301526157778184615451565b905092915050565b60006020820190508181036000830152615799818461554e565b905092915050565b60006020820190506157b66000830184615614565b92915050565b600060a0820190506157d16000830188615614565b81810360208301526157e38187615123565b90506157f26040830186614fd4565b81810360608301526158048185615123565b90506158136080830184615614565b9695505050505050565b600061016082019050615833600083018e615614565b8181036020830152615845818d615123565b90508181036040830152615859818c615123565b9050615868606083018b615614565b818103608083015261587a818a615123565b905061588960a0830189614fd4565b61589660c0830188615614565b6158a360e0830187615614565b6158b16101008301866150db565b6158bf6101208301856150ae565b8181036101408301526158d28184615357565b90509c9b505050505050505050505050565b600060e0820190506158f9600083018a615614565b818103602083015261590b8189615123565b9050818103604083015261591f8188615357565b905081810360608301526159338187615123565b90506159426080830186615614565b61594f60a0830185615614565b61595c60c0830184615614565b98975050505050505050565b600060e08201905061597d600083018a615614565b61598a6020830189615614565b6159976040830188615614565b81810360608301526159a98187615123565b90506159b86080830186615614565b6159c560a08301856150cc565b6159d260c0830184615614565b98975050505050505050565b600060a0820190506159f36000830188615614565b615a006020830187615614565b615a0d6040830186615614565b615a1a6060830185615614565b615a2760808301846150cc565b9695505050505050565b600061010082019050615a47600083018b615614565b615a54602083018a615614565b615a616040830189615614565b615a6e6060830188615614565b615a7b6080830187615614565b615a8860a0830186615614565b615a9560c0830185615614565b615aa260e0830184615614565b9998505050505050505050565b6000615ab9615aca565b9050615ac58282615de8565b919050565b6000604051905090565b600067ffffffffffffffff821115615aef57615aee615f1e565b5b602082029050602081019050919050565b600067ffffffffffffffff821115615b1b57615b1a615f1e565b5b615b2482615f4d565b9050602081019050919050565b6000819050602082019050919050565b600081519050919050565b600081519050919050565b6000602082019050919050565b600082825260208201905092915050565b600082825260208201905092915050565b600082825260208201905092915050565b600082825260208201905092915050565b6000615bb382615d34565b9150615bbe83615d34565b9250827fffffffffffffffffffffffffffffffffffffffffffffffffffffffffffffffff03821115615bf357615bf2615e62565b5b828201905092915050565b6000615c0982615d34565b9150615c1483615d34565b925082615c2457615c23615e91565b5b828204905092915050565b6000615c3a82615d34565b9150615c4583615d34565b9250817fffffffffffffffffffffffffffffffffffffffffffffffffffffffffffffffff0483118215151615615c7e57615c7d615e62565b5b828202905092915050565b6000615c9482615d34565b9150615c9f83615d34565b925082821015615cb257615cb1615e62565b5b828203905092915050565b6000615cc882615d14565b9050919050565b60008115159050919050565b6000819050615ce98261607a565b919050565b6000819050615cfc8261608e565b919050565b6000819050615d0f826160a2565b919050565b600073ffffffffffffffffffffffffffffffffffffffff82169050919050565b6000819050919050565b6000615d4982615cdb565b9050919050565b6000615d5b82615cee565b9050919050565b6000615d6d82615d01565b9050919050565b82818337600083830152505050565b60005b83811015615da1578082015181840152602081019050615d86565b83811115615db0576000848401525b50505050565b60006002820490506001821680615dce57607f821691505b60208210811415615de257615de1615eef565b5b50919050565b615df182615f4d565b810181811067ffffffffffffffff82111715615e1057615e0f615f1e565b5b80604052505050565b6000615e2482615d34565b91507fffffffffffffffffffffffffffffffffffffffffffffffffffffffffffffffff821415615e5757615e56615e62565b5b600182019050919050565b7f4e487b7100000000000000000000000000000000000000000000000000000000600052601160045260246000fd5b7f4e487b7100000000000000000000000000000000000000000000000000000000600052601260045260246000fd5b7f4e487b7100000000000000000000000000000000000000000000000000000000600052602160045260246000fd5b7f4e487b7100000000000000000000000000000000000000000000000000000000600052602260045260246000fd5b7f4e487b7100000000000000000000000000000000000000000000000000000000600052604160045260246000fd5b6000601f19601f8301169050919050565b7f41746c656173742037206d656d62657273207265717569726564000000000000600082015250565b7f416c726561647920526567697374657265640000000000000000000000000000600082015250565b7f5573657220697320616c7265616479206e6f7420612070617274206f6620746860008201527f6520534847000000000000000000000000000000000000000000000000000000602082015250565b7f5573657220616c72656164792061646465640000000000000000000000000000600082015250565b7f556e617070726f76656420726571756573740000000000000000000000000000600082015250565b7f556e617574686f72697a65642072657165737400000000000000000000000000600082015250565b6003811061608b5761608a615ec0565b5b50565b6004811061609f5761609e615ec0565b5b50565b600681106160b3576160b2615ec0565b5b50565b6160bf81615cbd565b81146160ca57600080fd5b50565b600381106160da57600080fd5b50565b600681106160ea57600080fd5b50565b6160f681615d34565b811461610157600080fd5b5056fea2646970667358221220efc754093b1a07159a67c5886dd0db283a697e695dba7ea5ce6ccb115fe7774a64736f6c63430008040033",
  "immutableReferences": {},
  "source": "// SPDX-License-Identifier: MIT\r\npragma solidity ^0.8.1;\r\nimport \"./lib/Bank.sol\";\r\nimport \"./lib/SHG.sol\";\r\nimport \"./lib/User.sol\";\r\n\r\ncontract Yogdaan is Bank, SHG, User {\r\n    address admin;\r\n\r\n    constructor() {\r\n        admin = msg.sender;\r\n    }\r\n}\r\n",
  "sourcePath": "C:/Users/hardi/Desktop/yogdaan/contracts/yogdaan.sol",
  "compiler": {
    "name": "solc",
    "version": "0.8.4+commit.c7e474f2.Emscripten.clang"
  },
  "schemaVersion": "3.4.0",
  "updatedAt": "2022-08-23T20:21:39.969Z",
  "devdoc": {
    "kind": "dev",
    "methods": {},
    "version": 1
  },
  "userdoc": {
    "kind": "user",
    "methods": {},
    "version": 1
  }
}