{
  "contractName": "Yogdaan",
  "abi": [
    {
      "inputs": [],
      "stateMutability": "nonpayable",
      "type": "constructor"
    },
    {
      "inputs": [
        {
          "internalType": "string",
          "name": "_name",
          "type": "string"
        },
        {
          "internalType": "address",
          "name": "_walletAddress",
          "type": "address"
        },
        {
          "internalType": "string",
          "name": "_code",
          "type": "string"
        },
        {
          "internalType": "uint256",
          "name": "_intrestRate",
          "type": "uint256"
        }
      ],
      "name": "addBank",
      "outputs": [],
      "stateMutability": "nonpayable",
      "type": "function"
    },
    {
      "inputs": [
        {
          "internalType": "uint256[]",
          "name": "members",
          "type": "uint256[]"
        },
        {
          "internalType": "uint256",
          "name": "president",
          "type": "uint256"
        },
        {
          "internalType": "string",
          "name": "name",
          "type": "string"
        },
        {
          "components": [
            {
              "internalType": "string",
              "name": "state",
              "type": "string"
            },
            {
              "internalType": "string",
              "name": "district",
              "type": "string"
            },
            {
              "internalType": "string",
              "name": "blockName",
              "type": "string"
            },
            {
              "internalType": "string",
              "name": "panchyarName",
              "type": "string"
            },
            {
              "internalType": "string",
              "name": "villageName",
              "type": "string"
            }
          ],
          "internalType": "struct structs.Location",
          "name": "location",
          "type": "tuple"
        },
        {
          "internalType": "string",
          "name": "dateOfFormation",
          "type": "string"
        },
        {
          "internalType": "uint256",
          "name": "_baseIntrest",
          "type": "uint256"
        }
      ],
      "name": "addSHG",
      "outputs": [],
      "stateMutability": "nonpayable",
      "type": "function"
    },
    {
      "inputs": [
        {
          "internalType": "uint256",
          "name": "userid",
          "type": "uint256"
        },
        {
          "internalType": "uint256",
          "name": "shg",
          "type": "uint256"
        }
      ],
      "name": "addSHGMember",
      "outputs": [],
      "stateMutability": "nonpayable",
      "type": "function"
    },
    {
      "inputs": [
        {
          "internalType": "string",
          "name": "name",
          "type": "string"
        },
        {
          "internalType": "string",
          "name": "aadhar",
          "type": "string"
        },
        {
          "internalType": "uint256",
          "name": "mobno",
          "type": "uint256"
        },
        {
          "internalType": "string",
          "name": "fatherName",
          "type": "string"
        },
        {
          "internalType": "enum structs.Gender",
          "name": "gender",
          "type": "uint8"
        }
      ],
      "name": "addUser",
      "outputs": [],
      "stateMutability": "nonpayable",
      "type": "function"
    },
    {
      "inputs": [
        {
          "internalType": "uint256",
          "name": "_shgrequestid",
          "type": "uint256"
        },
        {
          "internalType": "uint256",
          "name": "_bankid",
          "type": "uint256"
        }
      ],
      "name": "approveLoan",
      "outputs": [],
      "stateMutability": "nonpayable",
      "type": "function"
    },
    {
      "inputs": [
        {
          "internalType": "uint256",
          "name": "_requestid",
          "type": "uint256"
        },
        {
          "internalType": "uint256",
          "name": "_shgid",
          "type": "uint256"
        }
      ],
      "name": "approveRequest",
      "outputs": [],
      "stateMutability": "nonpayable",
      "type": "function"
    },
    {
      "inputs": [
        {
          "internalType": "uint256",
          "name": "_userid",
          "type": "uint256"
        },
        {
          "internalType": "uint256",
          "name": "_requestid",
          "type": "uint256"
        }
      ],
      "name": "deleteRequest",
      "outputs": [],
      "stateMutability": "nonpayable",
      "type": "function"
    },
    {
      "inputs": [],
      "name": "flagDefaulters",
      "outputs": [],
      "stateMutability": "nonpayable",
      "type": "function"
    },
    {
      "inputs": [
        {
          "internalType": "uint256",
          "name": "userid",
          "type": "uint256"
        }
      ],
      "name": "getAllLoans",
      "outputs": [
        {
          "internalType": "uint256[]",
          "name": "",
          "type": "uint256[]"
        }
      ],
      "stateMutability": "view",
      "type": "function",
      "constant": true
    },
    {
      "inputs": [
        {
          "internalType": "uint256",
          "name": "shgid",
          "type": "uint256"
        }
      ],
      "name": "getSHG",
      "outputs": [
        {
          "components": [
            {
              "internalType": "uint256",
              "name": "id",
              "type": "uint256"
            },
            {
              "internalType": "uint256[]",
              "name": "users",
              "type": "uint256[]"
            },
            {
              "internalType": "string",
              "name": "name",
              "type": "string"
            },
            {
              "components": [
                {
                  "internalType": "string",
                  "name": "state",
                  "type": "string"
                },
                {
                  "internalType": "string",
                  "name": "district",
                  "type": "string"
                },
                {
                  "internalType": "string",
                  "name": "blockName",
                  "type": "string"
                },
                {
                  "internalType": "string",
                  "name": "panchyarName",
                  "type": "string"
                },
                {
                  "internalType": "string",
                  "name": "villageName",
                  "type": "string"
                }
              ],
              "internalType": "struct structs.Location",
              "name": "location",
              "type": "tuple"
            },
            {
              "internalType": "string",
              "name": "dateOfFormation",
              "type": "string"
            },
            {
              "internalType": "uint256",
              "name": "currentBalance",
              "type": "uint256"
            },
            {
              "internalType": "uint256",
              "name": "owedBalance",
              "type": "uint256"
            },
            {
              "internalType": "uint256[]",
              "name": "loansGiven",
              "type": "uint256[]"
            },
            {
              "internalType": "uint256[]",
              "name": "loansTaken",
              "type": "uint256[]"
            },
            {
              "internalType": "uint256",
              "name": "baseIntrest",
              "type": "uint256"
            }
          ],
          "internalType": "struct structs.SHG",
          "name": "",
          "type": "tuple"
        }
      ],
      "stateMutability": "view",
      "type": "function",
      "constant": true
    },
    {
      "inputs": [
        {
          "internalType": "uint256",
          "name": "_shgid",
          "type": "uint256"
        },
        {
          "internalType": "uint256",
          "name": "_loanid",
          "type": "uint256"
        }
      ],
      "name": "getSHGEMI",
      "outputs": [
        {
          "internalType": "uint256",
          "name": "",
          "type": "uint256"
        }
      ],
      "stateMutability": "nonpayable",
      "type": "function"
    },
    {
      "inputs": [
        {
          "internalType": "uint256",
          "name": "shgid",
          "type": "uint256"
        }
      ],
      "name": "getSHGMembers",
      "outputs": [
        {
          "internalType": "uint256[]",
          "name": "",
          "type": "uint256[]"
        }
      ],
      "stateMutability": "view",
      "type": "function",
      "constant": true
    },
    {
      "inputs": [
        {
          "internalType": "uint256",
          "name": "requestid",
          "type": "uint256"
        }
      ],
      "name": "getSHGRequests",
      "outputs": [
        {
          "components": [
            {
              "internalType": "uint256",
              "name": "requestid",
              "type": "uint256"
            },
            {
              "internalType": "uint256",
              "name": "shgid",
              "type": "uint256"
            },
            {
              "internalType": "uint256",
              "name": "amount",
              "type": "uint256"
            },
            {
              "internalType": "uint256",
              "name": "loanTime",
              "type": "uint256"
            },
            {
              "internalType": "enum structs.RequestStatus",
              "name": "status",
              "type": "uint8"
            }
          ],
          "internalType": "struct structs.SHGRequest",
          "name": "",
          "type": "tuple"
        }
      ],
      "stateMutability": "view",
      "type": "function",
      "constant": true
    },
    {
      "inputs": [
        {
          "internalType": "uint256",
          "name": "userid",
          "type": "uint256"
        },
        {
          "internalType": "uint256",
          "name": "loanid",
          "type": "uint256"
        }
      ],
      "name": "getUserEMI",
      "outputs": [
        {
          "internalType": "uint256",
          "name": "",
          "type": "uint256"
        }
      ],
      "stateMutability": "nonpayable",
      "type": "function"
    },
    {
      "inputs": [
        {
          "internalType": "uint256",
          "name": "requestid",
          "type": "uint256"
        }
      ],
      "name": "getUserRequests",
      "outputs": [
        {
          "components": [
            {
              "internalType": "uint256",
              "name": "requestId",
              "type": "uint256"
            },
            {
              "internalType": "uint256",
              "name": "userId",
              "type": "uint256"
            },
            {
              "internalType": "uint256",
              "name": "amount",
              "type": "uint256"
            },
            {
              "internalType": "string",
              "name": "description",
              "type": "string"
            },
            {
              "internalType": "uint256",
              "name": "SHGId",
              "type": "uint256"
            },
            {
              "internalType": "enum structs.RequestStatus",
              "name": "status",
              "type": "uint8"
            },
            {
              "internalType": "uint256",
              "name": "loanTime",
              "type": "uint256"
            },
            {
              "internalType": "uint256[]",
              "name": "approvals",
              "type": "uint256[]"
            }
          ],
          "internalType": "struct structs.UserRequest",
          "name": "",
          "type": "tuple"
        }
      ],
      "stateMutability": "view",
      "type": "function",
      "constant": true
    },
    {
      "inputs": [
        {
          "internalType": "uint256",
          "name": "bankid",
          "type": "uint256"
        }
      ],
      "name": "getbanks",
      "outputs": [
        {
          "components": [
            {
              "internalType": "uint256",
              "name": "id",
              "type": "uint256"
            },
            {
              "internalType": "string",
              "name": "name",
              "type": "string"
            },
            {
              "internalType": "address",
              "name": "walletAddress",
              "type": "address"
            },
            {
              "internalType": "string",
              "name": "code",
              "type": "string"
            },
            {
              "internalType": "uint256",
              "name": "intrestRate",
              "type": "uint256"
            },
            {
              "internalType": "uint256[]",
              "name": "requests",
              "type": "uint256[]"
            }
          ],
          "internalType": "struct structs.Bank",
          "name": "",
          "type": "tuple"
        }
      ],
      "stateMutability": "view",
      "type": "function",
      "constant": true
    },
    {
      "inputs": [
        {
          "internalType": "uint256",
          "name": "_shgrequestid",
          "type": "uint256"
        },
        {
          "internalType": "uint256",
          "name": "_bankid",
          "type": "uint256"
        },
        {
          "internalType": "uint256",
          "name": "_amount",
          "type": "uint256"
        }
      ],
      "name": "grantLoan",
      "outputs": [],
      "stateMutability": "nonpayable",
      "type": "function"
    },
    {
      "inputs": [],
      "name": "login",
      "outputs": [
        {
          "internalType": "bool",
          "name": "",
          "type": "bool"
        }
      ],
      "stateMutability": "view",
      "type": "function",
      "constant": true
    },
    {
      "inputs": [
        {
          "internalType": "uint256",
          "name": "_shgid",
          "type": "uint256"
        },
        {
          "internalType": "uint256",
          "name": "_userid",
          "type": "uint256"
        },
        {
          "internalType": "uint256",
          "name": "_amount",
          "type": "uint256"
        },
        {
          "internalType": "string",
          "name": "_description",
          "type": "string"
        },
        {
          "internalType": "uint256",
          "name": "_loanTime",
          "type": "uint256"
        }
      ],
      "name": "makeRequest",
      "outputs": [],
      "stateMutability": "nonpayable",
      "type": "function"
    },
    {
      "inputs": [
        {
          "internalType": "uint256",
          "name": "_userid",
          "type": "uint256"
        },
        {
          "internalType": "uint256",
          "name": "_loanid",
          "type": "uint256"
        },
        {
          "internalType": "uint256",
          "name": "_amount",
          "type": "uint256"
        }
      ],
      "name": "payEMI",
      "outputs": [],
      "stateMutability": "payable",
      "type": "function",
      "payable": true
    },
    {
      "inputs": [
        {
          "internalType": "uint256",
          "name": "userid",
          "type": "uint256"
        },
        {
          "internalType": "uint256",
          "name": "shgid",
          "type": "uint256"
        }
      ],
      "name": "removeSHGMember",
      "outputs": [],
      "stateMutability": "nonpayable",
      "type": "function"
    },
    {
      "inputs": [
        {
          "internalType": "uint256",
          "name": "_requestid",
          "type": "uint256"
        }
      ],
      "name": "sendGrant",
      "outputs": [],
      "stateMutability": "nonpayable",
      "type": "function"
    },
    {
      "inputs": [
        {
          "internalType": "uint256",
          "name": "_shgid",
          "type": "uint256"
        },
        {
          "internalType": "uint256",
          "name": "_amount",
          "type": "uint256"
        },
        {
          "internalType": "uint256",
          "name": "_loanTime",
          "type": "uint256"
        }
      ],
      "name": "sendRequestToBank",
      "outputs": [],
      "stateMutability": "nonpayable",
      "type": "function"
    },
    {
      "inputs": [
        {
          "internalType": "uint256",
          "name": "_bankid",
          "type": "uint256"
        },
        {
          "internalType": "uint256",
          "name": "_requestid",
          "type": "uint256"
        },
        {
          "internalType": "uint256",
          "name": "_amount",
          "type": "uint256"
        }
      ],
      "name": "shgLoan",
      "outputs": [],
      "stateMutability": "payable",
      "type": "function",
      "payable": true
    },
    {
      "inputs": [
        {
          "internalType": "uint256",
          "name": "_shgid",
          "type": "uint256"
        },
        {
          "internalType": "uint256",
          "name": "_loanid",
          "type": "uint256"
        },
        {
          "internalType": "uint256",
          "name": "_amount",
          "type": "uint256"
        }
      ],
      "name": "shgPayEMI",
      "outputs": [],
      "stateMutability": "nonpayable",
      "type": "function"
    },
    {
      "inputs": [
        {
          "internalType": "uint256",
          "name": "",
          "type": "uint256"
        }
      ],
      "name": "shgs",
      "outputs": [
        {
          "internalType": "uint256",
          "name": "id",
          "type": "uint256"
        },
        {
          "internalType": "string",
          "name": "name",
          "type": "string"
        },
        {
          "components": [
            {
              "internalType": "string",
              "name": "state",
              "type": "string"
            },
            {
              "internalType": "string",
              "name": "district",
              "type": "string"
            },
            {
              "internalType": "string",
              "name": "blockName",
              "type": "string"
            },
            {
              "internalType": "string",
              "name": "panchyarName",
              "type": "string"
            },
            {
              "internalType": "string",
              "name": "villageName",
              "type": "string"
            }
          ],
          "internalType": "struct structs.Location",
          "name": "location",
          "type": "tuple"
        },
        {
          "internalType": "string",
          "name": "dateOfFormation",
          "type": "string"
        },
        {
          "internalType": "uint256",
          "name": "currentBalance",
          "type": "uint256"
        },
        {
          "internalType": "uint256",
          "name": "owedBalance",
          "type": "uint256"
        },
        {
          "internalType": "uint256",
          "name": "baseIntrest",
          "type": "uint256"
        }
      ],
      "stateMutability": "view",
      "type": "function",
      "constant": true
    },
    {
      "inputs": [
        {
          "internalType": "uint256",
          "name": "id",
          "type": "uint256"
        },
        {
          "internalType": "enum structs.UserType",
          "name": "updatedType",
          "type": "uint8"
        }
      ],
      "name": "updateMemberRole",
      "outputs": [],
      "stateMutability": "nonpayable",
      "type": "function"
    }
  ],
  "bytecode": "0x608060405234801561001057600080fd5b5033600d60006101000a81548173ffffffffffffffffffffffffffffffffffffffff021916908373ffffffffffffffffffffffffffffffffffffffff160217905550615095806100616000396000f3fe60806040526004361061019c5760003560e01c8063769d0e16116100ec578063af08a94f1161008a578063d3f86fb811610064578063d3f86fb8146105de578063db223b4c1461061b578063ded9e96c14610644578063f736ae431461065b5761019c565b8063af08a94f14610539578063b34e97e814610576578063cfcb4b2f146105a15761019c565b80637fa70fe2116100c65780637fa70fe2146104815780639bbc9ab1146104be578063a29231fe146104e7578063a6e90a58146105105761019c565b8063769d0e16146103f25780637a6464921461042f5780637d550bb3146104585761019c565b80632c0a90a9116101595780633c565757116101335780633c5657571461034757806342f5f815146103845780634f269c92146103a05780635582a13e146103c95761019c565b80632c0a90a9146102b857806339d8bed1146102e15780633b0ed2131461030a5761019c565b8063021af397146101a15780630227f435146101ca57806310673f52146101f357806314795ce314610230578063249c4bff1461025957806326271cf214610275575b600080fd5b3480156101ad57600080fd5b506101c860048036038101906101c39190614147565b610684565b005b3480156101d657600080fd5b506101f160048036038101906101ec9190614196565b61085b565b005b3480156101ff57600080fd5b5061021a600480360381019061021591906140a6565b610a35565b604051610227919061495c565b60405180910390f35b34801561023c57600080fd5b5061025760048036038101906102529190613f54565b610c48565b005b610273600480360381019061026e9190614147565b610de2565b005b34801561028157600080fd5b5061029c600480360381019061029791906140a6565b610feb565b6040516102af97969594939291906149f8565b60405180910390f35b3480156102c457600080fd5b506102df60048036038101906102da919061410b565b611421565b005b3480156102ed57600080fd5b506103086004803603810190610303919061410b565b611577565b005b34801561031657600080fd5b50610331600480360381019061032c91906140a6565b61168d565b60405161033e91906149bb565b60405180910390f35b34801561035357600080fd5b5061036e6004803603810190610369919061410b565b61185e565b60405161037b91906149dd565b60405180910390f35b61039e60048036038101906103999190614147565b61197b565b005b3480156103ac57600080fd5b506103c760048036038101906103c291906140cf565b611a59565b005b3480156103d557600080fd5b506103f060048036038101906103eb9190613fe7565b611ac0565b005b3480156103fe57600080fd5b506104196004803603810190610414919061410b565b611f09565b60405161042691906149dd565b60405180910390f35b34801561043b57600080fd5b506104566004803603810190610451919061410b565b612027565b005b34801561046457600080fd5b5061047f600480360381019061047a9190614147565b6120b6565b005b34801561048d57600080fd5b506104a860048036038101906104a391906140a6565b612195565b6040516104b59190614999565b60405180910390f35b3480156104ca57600080fd5b506104e560048036038101906104e091906140a6565b612705565b005b3480156104f357600080fd5b5061050e60048036038101906105099190613e6b565b612bad565b005b34801561051c57600080fd5b506105376004803603810190610532919061410b565b612fba565b005b34801561054557600080fd5b50610560600480360381019061055b91906140a6565b61314c565b60405161056d919061485f565b60405180910390f35b34801561058257600080fd5b5061058b6131ba565b6040516105989190614881565b60405180910390f35b3480156105ad57600080fd5b506105c860048036038101906105c391906140a6565b613264565b6040516105d5919061485f565b60405180910390f35b3480156105ea57600080fd5b50610605600480360381019061060091906140a6565b6132f6565b604051610612919061497e565b60405180910390f35b34801561062757600080fd5b50610642600480360381019061063d9190614147565b6133d2565b005b34801561065057600080fd5b506106596134ec565b005b34801561066757600080fd5b50610682600480360381019061067d919061410b565b6134ee565b005b826000600160008381526020019081526020016000206000015414156106a957600080fd5b83600080600360003373ffffffffffffffffffffffffffffffffffffffff1673ffffffffffffffffffffffffffffffffffffffff168152602001908152602001600020548152602001908152602001600020600801541461070957600080fd5b6000600a600081548092919061071e90614d9c565b9190505590506040518060a00160405280828152602001868152602001858152602001848152602001600380811115610780577f4e487b7100000000000000000000000000000000000000000000000000000000600052602160045260246000fd5b815250600660008381526020019081526020016000206000820151816000015560208201518160010155604082015181600201556060820151816003015560808201518160040160006101000a81548160ff0219169083600381111561080f577f4e487b7100000000000000000000000000000000000000000000000000000000600052602160045260246000fd5b021790555090505060016000868152602001908152602001600020600c018190806001815401808255809150506001900390600052602060002001600090919091909150555050505050565b600060096000815461086c90614d9c565b91905081905590506040518061010001604052808281526020018681526020018581526020018481526020018781526020016003808111156108d7577f4e487b7100000000000000000000000000000000000000000000000000000000600052602160045260246000fd5b8152602001838152602001600067ffffffffffffffff811115610923577f4e487b7100000000000000000000000000000000000000000000000000000000600052604160045260246000fd5b6040519080825280602002602001820160405280156109515781602001602082028036833780820191505090505b508152506005600083815260200190815260200160002060008201518160000155602082015181600101556040820151816002015560608201518160030190805190602001906109a2929190613910565b506080820151816004015560a08201518160050160006101000a81548160ff021916908360038111156109fe577f4e487b7100000000000000000000000000000000000000000000000000000000600052602160045260246000fd5b021790555060c0820151816006015560e0820151816007019080519060200190610a29929190613996565b50905050505050505050565b610a3d6139e3565b600260008381526020019081526020016000206040518060c001604052908160008201548152602001600182018054610a7590614d39565b80601f0160208091040260200160405190810160405280929190818152602001828054610aa190614d39565b8015610aee5780601f10610ac357610100808354040283529160200191610aee565b820191906000526020600020905b815481529060010190602001808311610ad157829003601f168201915b505050505081526020016002820160009054906101000a900473ffffffffffffffffffffffffffffffffffffffff1673ffffffffffffffffffffffffffffffffffffffff1673ffffffffffffffffffffffffffffffffffffffff168152602001600382018054610b5d90614d39565b80601f0160208091040260200160405190810160405280929190818152602001828054610b8990614d39565b8015610bd65780601f10610bab57610100808354040283529160200191610bd6565b820191906000526020600020905b815481529060010190602001808311610bb957829003601f168201915b505050505081526020016004820154815260200160058201805480602002602001604051908101604052809291908181526020018280548015610c3857602002820191906000526020600020905b815481526020019060010190808311610c24575b5050505050815250509050919050565b6000600b60008154610c5990614d9c565b91905081905590506040518060c001604052808281526020018681526020018573ffffffffffffffffffffffffffffffffffffffff168152602001848152602001838152602001600067ffffffffffffffff811115610ce1577f4e487b7100000000000000000000000000000000000000000000000000000000600052604160045260246000fd5b604051908082528060200260200182016040528015610d0f5781602001602082028036833780820191505090505b5081525060026000838152602001908152602001600020600082015181600001556020820151816001019080519060200190610d4c929190613910565b5060408201518160020160006101000a81548173ffffffffffffffffffffffffffffffffffffffff021916908373ffffffffffffffffffffffffffffffffffffffff1602179055506060820151816003019080519060200190610db0929190613910565b506080820151816004015560a0820151816005019080519060200190610dd7929190613996565b509050505050505050565b82600060026000838152602001908152602001600020600001541415610e0757600080fd5b6000604051806101000160405280600c60008154610e2490614d9c565b9190508190558152602001600660008781526020019081526020016000206001015481526020018481526020018681526020016002600088815260200190815260200160002060040154815260200160066000878152602001908152602001600020600301548152602001428152602001600081525090506001600060066000878152602001908152602001600020600101548152602001908152602001600020600c01600c5490806001815401808255809150506001900390600052602060002001600090919091909150553073ffffffffffffffffffffffffffffffffffffffff166108fc849081150290604051600060405180830381858888f19350505050158015610f37573d6000803e3d6000fd5b508260016000600660008881526020019081526020016000206001015481526020019081526020016000206009016000828254610f749190614b75565b925050819055508060046000600c548152602001908152602001600020600082015181600001556020820151816001015560408201518160020155606082015181600301556080820151816004015560a0820151816005015560c0820151816006015560e082015181600701559050505050505050565b600160205280600052604060002060009150905080600001549080600201805461101490614d39565b80601f016020809104026020016040519081016040528092919081815260200182805461104090614d39565b801561108d5780601f106110625761010080835404028352916020019161108d565b820191906000526020600020905b81548152906001019060200180831161107057829003601f168201915b505050505090806003016040518060a00160405290816000820180546110b290614d39565b80601f01602080910402602001604051908101604052809291908181526020018280546110de90614d39565b801561112b5780601f106111005761010080835404028352916020019161112b565b820191906000526020600020905b81548152906001019060200180831161110e57829003601f168201915b5050505050815260200160018201805461114490614d39565b80601f016020809104026020016040519081016040528092919081815260200182805461117090614d39565b80156111bd5780601f10611192576101008083540402835291602001916111bd565b820191906000526020600020905b8154815290600101906020018083116111a057829003601f168201915b505050505081526020016002820180546111d690614d39565b80601f016020809104026020016040519081016040528092919081815260200182805461120290614d39565b801561124f5780601f106112245761010080835404028352916020019161124f565b820191906000526020600020905b81548152906001019060200180831161123257829003601f168201915b5050505050815260200160038201805461126890614d39565b80601f016020809104026020016040519081016040528092919081815260200182805461129490614d39565b80156112e15780601f106112b6576101008083540402835291602001916112e1565b820191906000526020600020905b8154815290600101906020018083116112c457829003601f168201915b505050505081526020016004820180546112fa90614d39565b80601f016020809104026020016040519081016040528092919081815260200182805461132690614d39565b80156113735780601f1061134857610100808354040283529160200191611373565b820191906000526020600020905b81548152906001019060200180831161135657829003601f168201915b5050505050815250509080600801805461138c90614d39565b80601f01602080910402602001604051908101604052809291908181526020018280546113b890614d39565b80156114055780601f106113da57610100808354040283529160200191611405565b820191906000526020600020905b8154815290600101906020018083116113e857829003601f168201915b50505050509080600901549080600a01549080600d0154905087565b8060006001600083815260200190815260200160002060000154141561144657600080fd5b60006005600085815260200190815260200160002090508281600401541461146d57600080fd5b611476846135f8565b61147f57600080fd5b80600701600360003373ffffffffffffffffffffffffffffffffffffffff1673ffffffffffffffffffffffffffffffffffffffff1681526020019081526020016000205490806001815401808255809150506001900390600052602060002001600090919091909150556002600160008581526020019081526020016000206001018054905061150f9190614bcb565b816007018054905011156115715760008160050160006101000a81548160ff0219169083600381111561156b577f4e487b7100000000000000000000000000000000000000000000000000000000600052602160045260246000fd5b02179055505b50505050565b8060008084815260200190815260200160002060080154146115ce576040517f08c379a00000000000000000000000000000000000000000000000000000000081526004016115c5906148fc565b60405180910390fd5b8060008084815260200190815260200160002060080181905550600360008084815260200190815260200160002060090160006101000a81548160ff02191690836005811115611647577f4e487b7100000000000000000000000000000000000000000000000000000000600052602160045260246000fd5b0217905550600160008281526020019081526020016000206001018290806001815401808255809150506001900390600052602060002001600090919091909150555050565b611695613a2f565b60056000838152602001908152602001600020604051806101000160405290816000820154815260200160018201548152602001600282015481526020016003820180546116e290614d39565b80601f016020809104026020016040519081016040528092919081815260200182805461170e90614d39565b801561175b5780601f106117305761010080835404028352916020019161175b565b820191906000526020600020905b81548152906001019060200180831161173e57829003601f168201915b50505050508152602001600482015481526020016005820160009054906101000a900460ff1660038111156117b9577f4e487b7100000000000000000000000000000000000000000000000000000000600052602160045260246000fd5b60038111156117f1577f4e487b7100000000000000000000000000000000000000000000000000000000600052602160045260246000fd5b8152602001600682015481526020016007820180548060200260200160405190810160405280929190818152602001828054801561184e57602002820191906000526020600020905b81548152602001906001019080831161183a575b5050505050815250509050919050565b600082600080600083815260200190815260200160002060000154141561188457600080fd5b60006004600085815260200190815260200160002090506000601e603c8060188560070154426118b49190614c56565b6118be9190614bcb565b6118c89190614bfc565b6118d29190614bfc565b6118dc9190614bfc565b9050600081116118eb57600080fd5b60008260020154905060008360040154905060008460050154905060008382600c6119169190614bfc565b6119209190614c56565b600c60648561192f9190614bcb565b6119399190614bfc565b60016119459190614b75565b856119509190614bfc565b1890508086600201546119639190614c56565b86600201819055508097505050505050505092915050565b82600080600083815260200190815260200160002060000154141561199f57600080fd5b60006119ab858561185e565b90508281146119b957600080fd5b60006004600086815260200190815260200160002090503073ffffffffffffffffffffffffffffffffffffffff166108fc859081150290604051600060405180830381858888f19350505050158015611a16573d6000803e3d6000fd5b508360016000836003015481526020019081526020016000206009016000828254611a419190614b75565b92505081905550428160070181905550505050505050565b8060008084815260200190815260200160002060090160006101000a81548160ff02191690836005811115611ab7577f4e487b7100000000000000000000000000000000000000000000000000000000600052602160045260246000fd5b02179055505050565b3373ffffffffffffffffffffffffffffffffffffffff16600080600360003373ffffffffffffffffffffffffffffffffffffffff1673ffffffffffffffffffffffffffffffffffffffff16815260200190815260200160002054815260200190815260200160002060050160009054906101000a900473ffffffffffffffffffffffffffffffffffffffff1673ffffffffffffffffffffffffffffffffffffffff161415611ba3576040517f08c379a0000000000000000000000000000000000000000000000000000000008152600401611b9a906148bc565b60405180910390fd5b6000600760008154611bb490614d9c565b919050819055905080600360003373ffffffffffffffffffffffffffffffffffffffff1673ffffffffffffffffffffffffffffffffffffffff1681526020019081526020016000208190555060405180610160016040528060076000815480929190611c1f90614d9c565b9190505581526020018781526020018681526020018581526020018481526020013373ffffffffffffffffffffffffffffffffffffffff168152602001600067ffffffffffffffff811115611c9d577f4e487b7100000000000000000000000000000000000000000000000000000000600052604160045260246000fd5b604051908082528060200260200182016040528015611ccb5781602001602082028036833780820191505090505b508152602001600081526020016000815260200160046005811115611d19577f4e487b7100000000000000000000000000000000000000000000000000000000600052602160045260246000fd5b8152602001836002811115611d57577f4e487b7100000000000000000000000000000000000000000000000000000000600052602160045260246000fd5b815250600080838152602001908152602001600020600082015181600001556020820151816001019080519060200190611d92929190613910565b506040820151816002019080519060200190611daf929190613910565b50606082015181600301556080820151816004019080519060200190611dd6929190613910565b5060a08201518160050160006101000a81548173ffffffffffffffffffffffffffffffffffffffff021916908373ffffffffffffffffffffffffffffffffffffffff16021790555060c0820151816006019080519060200190611e3a929190613996565b5060e0820151816007015561010082015181600801556101208201518160090160006101000a81548160ff02191690836005811115611ea2577f4e487b7100000000000000000000000000000000000000000000000000000000600052602160045260246000fd5b02179055506101408201518160090160016101000a81548160ff02191690836002811115611ef9577f4e487b7100000000000000000000000000000000000000000000000000000000600052602160045260246000fd5b0217905550905050505050505050565b600082600060016000838152602001908152602001600020600001541415611f3057600080fd5b60006004600085815260200190815260200160002090506000601e603c806018856007015442611f609190614c56565b611f6a9190614bcb565b611f749190614bfc565b611f7e9190614bfc565b611f889190614bfc565b905060008111611f9757600080fd5b60008260020154905060008360040154905060008460050154905060008382600c611fc29190614bfc565b611fcc9190614c56565b600c606485611fdb9190614bcb565b611fe59190614bfc565b6001611ff19190614b75565b85611ffc9190614bfc565b18905080866002015461200f9190614c56565b86600201819055508097505050505050505092915050565b8060006002600083815260200190815260200160002060000154141561204c57600080fd5b60006006600085815260200190815260200160002060040160006101000a81548160ff021916908360038111156120ac577f4e487b7100000000000000000000000000000000000000000000000000000000600052602160045260246000fd5b0217905550505050565b826000600160008381526020019081526020016000206000015414156120db57600080fd5b60006120e78585611f09565b90508281146120f557600080fd5b60006004600086815260200190815260200160002090503073ffffffffffffffffffffffffffffffffffffffff166108fc859081150290604051600060405180830381858888f19350505050158015612152573d6000803e3d6000fd5b50836001600083600301548152602001908152602001600020600901600082825461217d9190614b75565b92505081905550428160070181905550505050505050565b61219d613aac565b6001600083815260200190815260200160002060405180610140016040529081600082015481526020016001820180548060200260200160405190810160405280929190818152602001828054801561221557602002820191906000526020600020905b815481526020019060010190808311612201575b5050505050815260200160028201805461222e90614d39565b80601f016020809104026020016040519081016040528092919081815260200182805461225a90614d39565b80156122a75780601f1061227c576101008083540402835291602001916122a7565b820191906000526020600020905b81548152906001019060200180831161228a57829003601f168201915b50505050508152602001600382016040518060a00160405290816000820180546122d090614d39565b80601f01602080910402602001604051908101604052809291908181526020018280546122fc90614d39565b80156123495780601f1061231e57610100808354040283529160200191612349565b820191906000526020600020905b81548152906001019060200180831161232c57829003601f168201915b5050505050815260200160018201805461236290614d39565b80601f016020809104026020016040519081016040528092919081815260200182805461238e90614d39565b80156123db5780601f106123b0576101008083540402835291602001916123db565b820191906000526020600020905b8154815290600101906020018083116123be57829003601f168201915b505050505081526020016002820180546123f490614d39565b80601f016020809104026020016040519081016040528092919081815260200182805461242090614d39565b801561246d5780601f106124425761010080835404028352916020019161246d565b820191906000526020600020905b81548152906001019060200180831161245057829003601f168201915b5050505050815260200160038201805461248690614d39565b80601f01602080910402602001604051908101604052809291908181526020018280546124b290614d39565b80156124ff5780601f106124d4576101008083540402835291602001916124ff565b820191906000526020600020905b8154815290600101906020018083116124e257829003601f168201915b5050505050815260200160048201805461251890614d39565b80601f016020809104026020016040519081016040528092919081815260200182805461254490614d39565b80156125915780601f1061256657610100808354040283529160200191612591565b820191906000526020600020905b81548152906001019060200180831161257457829003601f168201915b50505050508152505081526020016008820180546125ae90614d39565b80601f01602080910402602001604051908101604052809291908181526020018280546125da90614d39565b80156126275780601f106125fc57610100808354040283529160200191612627565b820191906000526020600020905b81548152906001019060200180831161260a57829003601f168201915b5050505050815260200160098201548152602001600a8201548152602001600b820180548060200260200160405190810160405280929190818152602001828054801561269357602002820191906000526020600020905b81548152602001906001019080831161267f575b50505050508152602001600c82018054806020026020016040519081016040528092919081815260200182805480156126eb57602002820191906000526020600020905b8154815260200190600101908083116126d7575b50505050508152602001600d820154815250509050919050565b6002600581111561273f577f4e487b7100000000000000000000000000000000000000000000000000000000600052602160045260246000fd5b600080600360003373ffffffffffffffffffffffffffffffffffffffff1673ffffffffffffffffffffffffffffffffffffffff16815260200190815260200160002054815260200190815260200160002060090160009054906101000a900460ff1660058111156127d9577f4e487b7100000000000000000000000000000000000000000000000000000000600052602160045260246000fd5b14612819576040517f08c379a00000000000000000000000000000000000000000000000000000000081526004016128109061493c565b60405180910390fd5b60006003811115612853577f4e487b7100000000000000000000000000000000000000000000000000000000600052602160045260246000fd5b6005600083815260200190815260200160002060050160009054906101000a900460ff1660038111156128af577f4e487b7100000000000000000000000000000000000000000000000000000000600052602160045260246000fd5b146128ef576040517f08c379a00000000000000000000000000000000000000000000000000000000081526004016128e69061491c565b60405180910390fd5b600060056000838152602001908152602001600020905060018160050160006101000a81548160ff02191690836003811115612954577f4e487b7100000000000000000000000000000000000000000000000000000000600052602160045260246000fd5b02179055506000604051806101000160405280600c6000815461297690614d9c565b91905081905581526020018360040154815260200183600201548152602001836001015481526020016001600085600401548152602001908152602001600020600d0154815260200183600601548152602001428152602001600081525090508060046000600c548152602001908152602001600020600082015181600001556020820151816001015560408201518160020155606082015181600301556080820151816004015560a0820151816005015560c0820151816006015560e082015181600701559050506001600083600401548152602001908152602001600020600b01600c54908060018154018082558091505060019003906000526020600020016000909190919091505560008083600101548152602001908152602001600020600601600c54908060018154018082558091505060019003906000526020600020016000909190919091505581600201546001600084600401548152602001908152602001600020600901541015612aef57600080fd5b6000808360010154815260200190815260200160002060050160009054906101000a900473ffffffffffffffffffffffffffffffffffffffff1673ffffffffffffffffffffffffffffffffffffffff166108fc83600201549081150290604051600060405180830381858888f19350505050158015612b72573d6000803e3d6000fd5b50816002015460016000846004015481526020019081526020016000206009016000828254612ba19190614c56565b92505081905550505050565b600786511015612bf2576040517f08c379a0000000000000000000000000000000000000000000000000000000008152600401612be99061489c565b60405180910390fd5b6000600860008154612c0390614d9c565b91905081905590506040518061014001604052808281526020018881526020018681526020018581526020018481526020016000815260200160008152602001600067ffffffffffffffff811115612c84577f4e487b7100000000000000000000000000000000000000000000000000000000600052604160045260246000fd5b604051908082528060200260200182016040528015612cb25781602001602082028036833780820191505090505b508152602001600067ffffffffffffffff811115612cf9577f4e487b7100000000000000000000000000000000000000000000000000000000600052604160045260246000fd5b604051908082528060200260200182016040528015612d275781602001602082028036833780820191505090505b5081526020018381525060016000838152602001908152602001600020600082015181600001556020820151816001019080519060200190612d6a929190613996565b506040820151816002019080519060200190612d87929190613910565b506060820151816003016000820151816000019080519060200190612dad929190613910565b506020820151816001019080519060200190612dca929190613910565b506040820151816002019080519060200190612de7929190613910565b506060820151816003019080519060200190612e04929190613910565b506080820151816004019080519060200190612e21929190613910565b5050506080820151816008019080519060200190612e40929190613910565b5060a0820151816009015560c082015181600a015560e082015181600b019080519060200190612e71929190613996565b5061010082015181600c019080519060200190612e8f929190613996565b5061012082015181600d015590505060005b8751811015612fb05786888281518110612ee4577f4e487b7100000000000000000000000000000000000000000000000000000000600052603260045260246000fd5b602002602001015114612ef8576003612efb565b60005b6000808a8481518110612f37577f4e487b7100000000000000000000000000000000000000000000000000000000600052603260045260246000fd5b6020026020010151815260200190815260200160002060090160006101000a81548160ff02191690836005811115612f98577f4e487b7100000000000000000000000000000000000000000000000000000000600052602160045260246000fd5b02179055508080612fa890614d9c565b915050612ea1565b5050505050505050565b600060016000838152602001908152602001600020905061302d8160010180548060200260200160405190810160405280929190818152602001828054801561302257602002820191906000526020600020905b81548152602001906001019080831161300e575b5050505050836136d6565b61306c576040517f08c379a0000000000000000000000000000000000000000000000000000000008152600401613063906148dc565b60405180910390fd5b60006130ca826001018054806020026020016040519081016040528092919081815260200182805480156130bf57602002820191906000526020600020905b8154815260200190600101908083116130ab575b505050505085613764565b9050600061312a8360010180548060200260200160405190810160405280929190818152602001828054801561311f57602002820191906000526020600020905b81548152602001906001019080831161310b575b5050505050836137e5565b905080836001019080519060200190613144929190613996565b505050505050565b6060600160008381526020019081526020016000206001018054806020026020016040519081016040528092919081815260200182805480156131ae57602002820191906000526020600020905b81548152602001906001019080831161319a575b50505050509050919050565b60003373ffffffffffffffffffffffffffffffffffffffff16600080600360003373ffffffffffffffffffffffffffffffffffffffff1673ffffffffffffffffffffffffffffffffffffffff16815260200190815260200160002054815260200190815260200160002060050160009054906101000a900473ffffffffffffffffffffffffffffffffffffffff1673ffffffffffffffffffffffffffffffffffffffff1614905090565b606081600080600083815260200190815260200160002060000154141561328a57600080fd5b6000808481526020019081526020016000206006018054806020026020016040519081016040528092919081815260200182805480156132e957602002820191906000526020600020905b8154815260200190600101908083116132d5575b5050505050915050919050565b6132fe613b05565b600660008381526020019081526020016000206040518060a0016040529081600082015481526020016001820154815260200160028201548152602001600382015481526020016004820160009054906101000a900460ff16600381111561338f577f4e487b7100000000000000000000000000000000000000000000000000000000600052602160045260246000fd5b60038111156133c7577f4e487b7100000000000000000000000000000000000000000000000000000000600052602160045260246000fd5b815250509050919050565b816000600260008381526020019081526020016000206000015414156133f757600080fd5b3073ffffffffffffffffffffffffffffffffffffffff166108fc839081150290604051600060405180830381858888f1935050505015801561343d573d6000803e3d6000fd5b5060016006600086815260200190815260200160002060040160006101000a81548160ff0219169083600381111561349e577f4e487b7100000000000000000000000000000000000000000000000000000000600052602160045260246000fd5b021790555081600160006006600088815260200190815260200160002060010154815260200190815260200160002060090160008282546134df9190614b75565b9250508190555050505050565b565b81600080600083815260200190815260200160002060000154141561351257600080fd5b8260056000848152602001908152602001600020600101541461353457600080fd5b600080600090505b60095481101561357f57846005600083815260200190815260200160002060010154141561356c5780915061357f565b808061357790614d9c565b91505061353c565b5060056000828152602001908152602001600020600080820160009055600182016000905560028201600090556003820160006135bc9190613b6c565b60048201600090556005820160006101000a81549060ff021916905560068201600090556007820160006135f09190613bac565b505050505050565b60008060056000848152602001908152602001600020600701905060005b81805490508110156136ca57600360003373ffffffffffffffffffffffffffffffffffffffff1673ffffffffffffffffffffffffffffffffffffffff1681526020019081526020016000205482828154811061369b577f4e487b7100000000000000000000000000000000000000000000000000000000600052603260045260246000fd5b906000526020600020015414156136b7576000925050506136d1565b80806136c290614d9c565b915050613616565b5060019150505b919050565b600080600090505b600184516136ec9190614c56565b811015613758578284828151811061372d577f4e487b7100000000000000000000000000000000000000000000000000000000600052603260045260246000fd5b6020026020010151141561374557600191505061375e565b808061375090614d9c565b9150506136de565b50600090505b92915050565b600080600090505b83518110156137d957828482815181106137af577f4e487b7100000000000000000000000000000000000000000000000000000000600052603260045260246000fd5b602002602001015114156137c657809150506137df565b80806137d190614d9c565b91505061376c565b50600090505b92915050565b6060825182106137f457600080fd5b60008290505b600184516138089190614c56565b8110156138b4578360018261381d9190614b75565b81518110613854577f4e487b7100000000000000000000000000000000000000000000000000000000600052603260045260246000fd5b6020026020010151848281518110613895577f4e487b7100000000000000000000000000000000000000000000000000000000600052603260045260246000fd5b60200260200101818152505080806138ac90614d9c565b9150506137fa565b5082600184516138c49190614c56565b815181106138fb577f4e487b7100000000000000000000000000000000000000000000000000000000600052603260045260246000fd5b60200260200101600081525082905092915050565b82805461391c90614d39565b90600052602060002090601f01602090048101928261393e5760008555613985565b82601f1061395757805160ff1916838001178555613985565b82800160010185558215613985579182015b82811115613984578251825591602001919060010190613969565b5b5090506139929190613bcd565b5090565b8280548282559060005260206000209081019282156139d2579160200282015b828111156139d15782518255916020019190600101906139b6565b5b5090506139df9190613bcd565b5090565b6040518060c001604052806000815260200160608152602001600073ffffffffffffffffffffffffffffffffffffffff1681526020016060815260200160008152602001606081525090565b604051806101000160405280600081526020016000815260200160008152602001606081526020016000815260200160006003811115613a98577f4e487b7100000000000000000000000000000000000000000000000000000000600052602160045260246000fd5b815260200160008152602001606081525090565b604051806101400160405280600081526020016060815260200160608152602001613ad5613bea565b81526020016060815260200160008152602001600081526020016060815260200160608152602001600081525090565b6040518060a001604052806000815260200160008152602001600081526020016000815260200160006003811115613b66577f4e487b7100000000000000000000000000000000000000000000000000000000600052602160045260246000fd5b81525090565b508054613b7890614d39565b6000825580601f10613b8a5750613ba9565b601f016020900490600052602060002090810190613ba89190613bcd565b5b50565b5080546000825590600052602060002090810190613bca9190613bcd565b50565b5b80821115613be6576000816000905550600101613bce565b5090565b6040518060a0016040528060608152602001606081526020016060815260200160608152602001606081525090565b6000613c2c613c2784614aa1565b614a7c565b90508083825260208201905082856020860282011115613c4b57600080fd5b60005b85811015613c7b5781613c618882613e56565b845260208401935060208301925050600181019050613c4e565b5050509392505050565b6000613c98613c9384614acd565b614a7c565b905082815260208101848484011115613cb057600080fd5b613cbb848285614cf7565b509392505050565b600081359050613cd281615011565b92915050565b600082601f830112613ce957600080fd5b8135613cf9848260208601613c19565b91505092915050565b600081359050613d1181615028565b92915050565b600081359050613d2681615038565b92915050565b600082601f830112613d3d57600080fd5b8135613d4d848260208601613c85565b91505092915050565b600060a08284031215613d6857600080fd5b613d7260a0614a7c565b9050600082013567ffffffffffffffff811115613d8e57600080fd5b613d9a84828501613d2c565b600083015250602082013567ffffffffffffffff811115613dba57600080fd5b613dc684828501613d2c565b602083015250604082013567ffffffffffffffff811115613de657600080fd5b613df284828501613d2c565b604083015250606082013567ffffffffffffffff811115613e1257600080fd5b613e1e84828501613d2c565b606083015250608082013567ffffffffffffffff811115613e3e57600080fd5b613e4a84828501613d2c565b60808301525092915050565b600081359050613e6581615048565b92915050565b60008060008060008060c08789031215613e8457600080fd5b600087013567ffffffffffffffff811115613e9e57600080fd5b613eaa89828a01613cd8565b9650506020613ebb89828a01613e56565b955050604087013567ffffffffffffffff811115613ed857600080fd5b613ee489828a01613d2c565b945050606087013567ffffffffffffffff811115613f0157600080fd5b613f0d89828a01613d56565b935050608087013567ffffffffffffffff811115613f2a57600080fd5b613f3689828a01613d2c565b92505060a0613f4789828a01613e56565b9150509295509295509295565b60008060008060808587031215613f6a57600080fd5b600085013567ffffffffffffffff811115613f8457600080fd5b613f9087828801613d2c565b9450506020613fa187828801613cc3565b935050604085013567ffffffffffffffff811115613fbe57600080fd5b613fca87828801613d2c565b9250506060613fdb87828801613e56565b91505092959194509250565b600080600080600060a08688031215613fff57600080fd5b600086013567ffffffffffffffff81111561401957600080fd5b61402588828901613d2c565b955050602086013567ffffffffffffffff81111561404257600080fd5b61404e88828901613d2c565b945050604061405f88828901613e56565b935050606086013567ffffffffffffffff81111561407c57600080fd5b61408888828901613d2c565b925050608061409988828901613d02565b9150509295509295909350565b6000602082840312156140b857600080fd5b60006140c684828501613e56565b91505092915050565b600080604083850312156140e257600080fd5b60006140f085828601613e56565b925050602061410185828601613d17565b9150509250929050565b6000806040838503121561411e57600080fd5b600061412c85828601613e56565b925050602061413d85828601613e56565b9150509250929050565b60008060006060848603121561415c57600080fd5b600061416a86828701613e56565b935050602061417b86828701613e56565b925050604061418c86828701613e56565b9150509250925092565b600080600080600060a086880312156141ae57600080fd5b60006141bc88828901613e56565b95505060206141cd88828901613e56565b94505060406141de88828901613e56565b935050606086013567ffffffffffffffff8111156141fb57600080fd5b61420788828901613d2c565b925050608061421888828901613e56565b9150509295509295909350565b60006142318383614841565b60208301905092915050565b61424681614c8a565b82525050565b600061425782614b0e565b6142618185614b31565b935061426c83614afe565b8060005b8381101561429d5781516142848882614225565b975061428f83614b24565b925050600181019050614270565b5085935050505092915050565b60006142b582614b0e565b6142bf8185614b42565b93506142ca83614afe565b8060005b838110156142fb5781516142e28882614225565b97506142ed83614b24565b9250506001810190506142ce565b5085935050505092915050565b61431181614c9c565b82525050565b61432081614ce5565b82525050565b600061433182614b19565b61433b8185614b53565b935061434b818560208601614d06565b61435481614ed0565b840191505092915050565b600061436a82614b19565b6143748185614b64565b9350614384818560208601614d06565b61438d81614ed0565b840191505092915050565b60006143a5601a83614b64565b91506143b082614ee1565b602082019050919050565b60006143c8601283614b64565b91506143d382614f0a565b602082019050919050565b60006143eb602583614b64565b91506143f682614f33565b604082019050919050565b600061440e601283614b64565b915061441982614f82565b602082019050919050565b6000614431601283614b64565b915061443c82614fab565b602082019050919050565b6000614454601383614b64565b915061445f82614fd4565b602082019050919050565b600060c0830160008301516144826000860182614841565b506020830151848203602086015261449a8282614326565b91505060408301516144af604086018261423d565b50606083015184820360608601526144c78282614326565b91505060808301516144dc6080860182614841565b5060a083015184820360a08601526144f4828261424c565b9150508091505092915050565b600060a083016000830151848203600086015261451e8282614326565b915050602083015184820360208601526145388282614326565b915050604083015184820360408601526145528282614326565b9150506060830151848203606086015261456c8282614326565b915050608083015184820360808601526145868282614326565b9150508091505092915050565b600060a08301600083015184820360008601526145b08282614326565b915050602083015184820360208601526145ca8282614326565b915050604083015184820360408601526145e48282614326565b915050606083015184820360608601526145fe8282614326565b915050608083015184820360808601526146188282614326565b9150508091505092915050565b60a08201600082015161463b6000850182614841565b50602082015161464e6020850182614841565b5060408201516146616040850182614841565b5060608201516146746060850182614841565b5060808201516146876080850182614317565b50505050565b6000610140830160008301516146a66000860182614841565b50602083015184820360208601526146be828261424c565b915050604083015184820360408601526146d88282614326565b915050606083015184820360608601526146f28282614501565b9150506080830151848203608086015261470c8282614326565b91505060a083015161472160a0860182614841565b5060c083015161473460c0860182614841565b5060e083015184820360e086015261474c828261424c565b915050610100830151848203610100860152614768828261424c565b91505061012083015161477f610120860182614841565b508091505092915050565b6000610100830160008301516147a36000860182614841565b5060208301516147b66020860182614841565b5060408301516147c96040860182614841565b50606083015184820360608601526147e18282614326565b91505060808301516147f66080860182614841565b5060a083015161480960a0860182614317565b5060c083015161481c60c0860182614841565b5060e083015184820360e0860152614834828261424c565b9150508091505092915050565b61484a81614cdb565b82525050565b61485981614cdb565b82525050565b6000602082019050818103600083015261487981846142aa565b905092915050565b60006020820190506148966000830184614308565b92915050565b600060208201905081810360008301526148b581614398565b9050919050565b600060208201905081810360008301526148d5816143bb565b9050919050565b600060208201905081810360008301526148f5816143de565b9050919050565b6000602082019050818103600083015261491581614401565b9050919050565b6000602082019050818103600083015261493581614424565b9050919050565b6000602082019050818103600083015261495581614447565b9050919050565b60006020820190508181036000830152614976818461446a565b905092915050565b600060a0820190506149936000830184614625565b92915050565b600060208201905081810360008301526149b3818461468d565b905092915050565b600060208201905081810360008301526149d5818461478a565b905092915050565b60006020820190506149f26000830184614850565b92915050565b600060e082019050614a0d600083018a614850565b8181036020830152614a1f818961435f565b90508181036040830152614a338188614593565b90508181036060830152614a47818761435f565b9050614a566080830186614850565b614a6360a0830185614850565b614a7060c0830184614850565b98975050505050505050565b6000614a86614a97565b9050614a928282614d6b565b919050565b6000604051905090565b600067ffffffffffffffff821115614abc57614abb614ea1565b5b602082029050602081019050919050565b600067ffffffffffffffff821115614ae857614ae7614ea1565b5b614af182614ed0565b9050602081019050919050565b6000819050602082019050919050565b600081519050919050565b600081519050919050565b6000602082019050919050565b600082825260208201905092915050565b600082825260208201905092915050565b600082825260208201905092915050565b600082825260208201905092915050565b6000614b8082614cdb565b9150614b8b83614cdb565b9250827fffffffffffffffffffffffffffffffffffffffffffffffffffffffffffffffff03821115614bc057614bbf614de5565b5b828201905092915050565b6000614bd682614cdb565b9150614be183614cdb565b925082614bf157614bf0614e14565b5b828204905092915050565b6000614c0782614cdb565b9150614c1283614cdb565b9250817fffffffffffffffffffffffffffffffffffffffffffffffffffffffffffffffff0483118215151615614c4b57614c4a614de5565b5b828202905092915050565b6000614c6182614cdb565b9150614c6c83614cdb565b925082821015614c7f57614c7e614de5565b5b828203905092915050565b6000614c9582614cbb565b9050919050565b60008115159050919050565b6000819050614cb682614ffd565b919050565b600073ffffffffffffffffffffffffffffffffffffffff82169050919050565b6000819050919050565b6000614cf082614ca8565b9050919050565b82818337600083830152505050565b60005b83811015614d24578082015181840152602081019050614d09565b83811115614d33576000848401525b50505050565b60006002820490506001821680614d5157607f821691505b60208210811415614d6557614d64614e72565b5b50919050565b614d7482614ed0565b810181811067ffffffffffffffff82111715614d9357614d92614ea1565b5b80604052505050565b6000614da782614cdb565b91507fffffffffffffffffffffffffffffffffffffffffffffffffffffffffffffffff821415614dda57614dd9614de5565b5b600182019050919050565b7f4e487b7100000000000000000000000000000000000000000000000000000000600052601160045260246000fd5b7f4e487b7100000000000000000000000000000000000000000000000000000000600052601260045260246000fd5b7f4e487b7100000000000000000000000000000000000000000000000000000000600052602160045260246000fd5b7f4e487b7100000000000000000000000000000000000000000000000000000000600052602260045260246000fd5b7f4e487b7100000000000000000000000000000000000000000000000000000000600052604160045260246000fd5b6000601f19601f8301169050919050565b7f41746c656173742037206d656d62657273207265717569726564000000000000600082015250565b7f416c726561647920526567697374657265640000000000000000000000000000600082015250565b7f5573657220697320616c7265616479206e6f7420612070617274206f6620746860008201527f6520534847000000000000000000000000000000000000000000000000000000602082015250565b7f5573657220616c72656164792061646465640000000000000000000000000000600082015250565b7f556e617070726f76656420726571756573740000000000000000000000000000600082015250565b7f556e617574686f72697a65642072657165737400000000000000000000000000600082015250565b6004811061500e5761500d614e43565b5b50565b61501a81614c8a565b811461502557600080fd5b50565b6003811061503557600080fd5b50565b6006811061504557600080fd5b50565b61505181614cdb565b811461505c57600080fd5b5056fea2646970667358221220c7162d684d11052e23806a6bb5edfcddca04c274fc45c46d869849f65202c79264736f6c63430008040033",
  "immutableReferences": {},
  "source": "// SPDX-License-Identifier: MIT\npragma solidity ^0.8.1;\nimport \"./lib/Bank.sol\";\nimport \"./lib/SHG.sol\";\nimport \"./lib/User.sol\";\n\ncontract Yogdaan is Bank, SHG, User {\n    address admin;\n\n    constructor() {\n        admin = msg.sender;\n    }\n}\n",
  "sourcePath": "/home/sdas/code/yogdaan-contracts/contracts/yogdaan.sol",
  "compiler": {
    "name": "solc",
    "version": "0.8.4+commit.c7e474f2.Emscripten.clang"
  },
  "schemaVersion": "3.4.9",
  "updatedAt": "2022-08-22T05:58:32.298Z",
  "networkType": "ethereum",
  "devdoc": {
    "kind": "dev",
    "methods": {},
    "version": 1
  },
  "userdoc": {
    "kind": "user",
    "methods": {},
    "version": 1
  }
}